:020000040800F2
:10000000E0190020490200084DB800082DAE000894
:1000100049B80008B113000801D500085B020008C8
:100020000000000000000000000000002DBF0008DC
:10003000AD1B000800000000A5BC000831BF00088F
:10004000650200086502000821BF0008650200087B
:1000500065020008650200086502000865020008E4
:10006000650200086502000865020008B11B00086F
:1000700065020008650200086502000865020008C4
:1000800065020008650200086502000865020008B4
:1000900065020008650200086502000865020008A4
:1000A0006502000865020008650200086502000894
:1000B00000000000D91C0008E51C0008F11C000825
:1000C000FD1C0008091D0008151D00086502000838
:1000D0006502000865020008650200086502000864
:1000E000650200086502000839C0000865020008C2
:1000F000650200086502000845C0000851C00008FC
:100100006502000865020008650200086502000833
:100110006502000865020008650200086502000823
:100120006502000865020008650200086502000813
:10013000650200086502000841D200086502000857
:1001400065020008650200086502000895AE000817
:1001500065020008650200086502000865020008E3
:1001600065020008650200086502000865020008D3
:1001700065020008650200086502000865020008C3
:1001800065020008650200086502000865020008B3
:1001900065020008650200086502000865020008A3
:1001A0006502000865020008650200086502000893
:1001B00065020008000000006502000865020008F2
:1001C00065020008000000006502000865020008E2
:1001D0006502000865020008650200086502000863
:1001E0006502000865020008650200086502000853
:1001F0000000000000000000650200086502000821
:10020000650200082D0F000865020008650200085D
:100210006502000865020008650200086502000822
:100220006502000865020008650200086502000812
:1002300065020008DFF80CD000F0B0FC0048004771
:1002400041D50008E01900200748804707480047CB
:10025000FEE7FEE7FEE7FEE7FEE7FEE7FEE7FEE776
:10026000FEE7FEE7FEE70000EDBF000835020008EC
:100270002DE9F05F0546002092469B4688460646DB
:10028000814640241BE0284641464746224600F06E
:10029000C4FA53465A46C01A914110D31146184623
:1002A000224600F0ABFA2D1A67EB01084F462246B2
:1002B0000120002100F0A2FA17EB00094E41201E98
:1002C000A4F10104DFDC484631462A464346BDE836
:1002D000F09FD2B201E000F8012B491EFBD270471B
:1002E0000022F6E710B513460A4604461946FFF702
:1002F000F0FF204610BD30B505462A460B4612F8E1
:10030000010B13F8014B08B1A042F8D01CB1002832
:1003100002D06D1CF1E7284630BDCAB2401E10F86D
:10032000011F8A4202D00029F9D100207047421CE7
:1003300010F8011B0029FBD1801A704710B5044644
:1003400000E0401C0378002BFBD100E0401C521E53
:1003500004D311F8013B0370002BF7D10021017089
:10036000204610BD30B505460020034600E05B1C6A
:10037000934205D2EC5CC85C201A01D1002CF6D166
:1003800030BD000070B50F4D00B92868002412E0A0
:100390000A4602E09E4203D0521C1378002BF9D18A
:1003A000DAB2224305D02BB124B1002100F8011BA1
:1003B00004E00446401C0678002EE9D1286020465F
:1003C00070BD0000000000200FB400B58DB010A972
:1003D00009900B9000914FF0FF300A9000200C9094
:1003E00005480690054807906A4609A80F9900F04D
:1003F0004BFA0DB05DF814FBA5080008C30800080F
:100400002DE9FF5F1D464FF0FF3BD5E901469146C0
:100410005F464FF00008A9697F1C01988847296A48
:10042000824688470028F6D1BAF1FF3F0CD024F469
:10043000C064002E19DD600614D5BAF12B0F09D067
:10044000BAF12D0F0ED103E0584604B0BDE8F09F7D
:1004500044F48064A9697F1C01988847761E82460F
:10046000002E02DDBAF1300F03D0B9F1000F26D013
:1004700032E0A969761E44F400747F1C0198884715
:100480008246002E05DDBAF1780F06D0BAF1580F7A
:1004900003D0B9F1000F10D01EE0B9F1000F02D067
:1004A000B9F1100F18D1A969761E24F400747F1CCD
:1004B000019888478246102002E0082000E00A20C8
:1004C000814609E008FB0908A969761E44F4007416
:1004D0007F1C019888478246002E05DD494650461C
:1004E00000F0BDF90028EDDAE96901988847A00518
:1004F00002D46FF00100A8E7E00725D1600613D50C
:10050000600502D5C8F1000000E0404629680A1DD8
:100510002A600968220501D5087015E0220701D577
:10052000088011E008600FE02868011D296000685C
:10053000210502D580F8008006E0210702D5A0F849
:10054000008001E0C0F8008038467EE72DE9FE4FCC
:10055000804681EA0300C00F0C46009021F0004164
:1005600023F00045B8EB0200A94105D240462146E0
:1005700090461C460B46024623F00040104347D0ED
:10058000270DC7F30A00C3F30A510290401A0190E5
:1005900040286BDAC3F3130040F4801B00989246A6
:1005A00020B10023D2EB030A63EB0B0B01985946F1
:1005B000C0F14002504600F021F906460D46504673
:1005C0005946019A00F039F910EB08006141002406
:1005D00087EA115284EAE7731A4340D0009A62B363
:1005E000019A012A4FEA075215DC001B61EB020158
:1005F0004FF0004202EA0752CDE90042001C41F5EB
:10060000801132462B4600F0DCF903B0BDE8F08FD4
:1006100040462146F9E7001B61EB0201001C41F551
:10062000801300185B412018A2F5001747EB030167
:1006300040EAD570B6196D4111E06D084FEA3606F3
:1006400045EAC0754FEA0752001B61EB0201001C2E
:1006500041F5801149084FEA3000001951413246F6
:100660002B4603B0BDE8F04F00F09CB90098012282
:1006700040000023D0EB020263EBE07300982146B8
:100680004FEAE074B8EB000061EB0401E9E783F0A6
:1006900000435BE781F0004158E72DE9FE4F81EA16
:1006A000030404F0004421F0004100944FF0000BDB
:1006B00023F0004350EA01045ED052EA03045BD009
:1006C000C3F30A54C1F30A552C44A4F2F334019441
:1006D000A0FB0254C1F3130141F48011C3F31303CF
:1006E00043F4801301FB024400FB034E840A970A83
:1006F00044EA815447EA8357A4FB076802958D0AB0
:1007000005FB07854FEA932C04FB0C542705029D3B
:100710004FEA065847EA1637B5EB08056EEB070CAB
:10072000870E920E47EA811742EA8312A7FB020165
:10073000B6EB0B0164EB00042B0D43EA0C335E189F
:1007400044EB1C50DA465146E7FB0201C5F31304A3
:100750004FEA0B3343EA14534FEA0432019C43EA55
:100760000603A4F10C040294009CCDE900B400F04F
:1007700028F903B0BDE8F08F00200146F9E70EB577
:1007800040F2334102910021CDE900110A460B46A7
:1007900000F017F903B000BD01F0004330B421F0C0
:1007A000004150EA010206D00A0DA2F56072C1F3C1
:1007B0001301002A02DC30BC00207047440F44EAD9
:1007C000C104C100E01830BC00EBC25000F08AB890
:1007D00030B50B46014600202022012409E021FA11
:1007E00002F59D4205D303FA02F5491B04FA02F50E
:1007F0002844151EA2F10102F1DC30BD202A04DBE1
:10080000203A00FA02F1002070479140C2F1200323
:1008100020FA03F3194390407047202A04DB203A62
:1008200021FA02F00021704721FA02F3D040C2F110
:1008300020029140084319467047202A06DBCB1757
:10084000203A41FA02F043EAE07306E041FA02F38B
:10085000D040C2F1200291400843194670473A281F
:1008600000D2303820F02002412A01D3A2F1370013
:10087000884201D34FF0FF307047000002681144F6
:100880001378016018467047D160044951610449EA
:10089000116200211161114600F09EB97D08000827
:1008A000CD0B0008426842B1016811F8013B23B149
:1008B000521EC0E90012184670470121C160881E0F
:1008C000704742685AB1C368016843B983688B4274
:1008D00005D0491E521CC0E90012002070474FF09D
:1008E000FF3070470029A8BF7047401C490008BF6F
:1008F00020F00100704710B4B0FA80FC00FA0CF050
:1009000050EA010404BF10BC704749B1CCF1200487
:1009100021FA04F411FA0CF118BF01212143084314
:10092000A3EB0C01CB1D4FEA00614FEA102042BF40
:10093000002010BC704700EBC35010440029A4BF36
:1009400010BC7047401C490008BF20F0010010BCDB
:100950007047F0B400F0004221F0004120F0004068
:10096000CE0DC30DC1F3160141F40001C0F3160012
:100970004C42154640F40000761E09E010EB44009E
:1009800002D582F0004240428842F7D840005B1E08
:10099000B342F9DA18B1F0BC0021FFF7ACBF28462A
:1009A000F0BC704710B5141E73F1000408DA401C47
:1009B00041F1000192185B411A4301D120F001007E
:1009C00010BD2DE9F04D92469B4611B1B1FA81F26E
:1009D00002E0B0FA80F220329046FFF70FFF0446A3
:1009E0000F4640EA0A0041EA0B0153465A460843C3
:1009F00013D0114653EA010019D0C8F14002504605
:100A0000FFF70BFF05460E46504659464246FFF794
:100A1000F5FE084305D0012004E020463946BDE834
:100A2000F08D0020054346EAE0762C4337430A98D0
:100A30006305E40AA0EB08000022FD0A44EA4754DB
:100A40000A3002D500200146E9E701051019694185
:100A5000DDE9084500196941BDE8F04DA2E72DE93F
:100A6000F04D81EA030404F0004B21F000451446E8
:100A70004FF0000A23F0004150EA050220D054EA6A
:100A800001021DD0C5F30A570246C5F31303C1F393
:100A90001300C1F30A5640F4801543F48013A7EB0A
:100AA0000608101BD64608F2FD3873EB050002D38A
:100AB00008F1010801E092185B41B8F1000F03DA78
:100AC00000200146BDE8F08D00204FF4801106465D
:100AD00084460EE0171B73EB050705D3121B63EB6F
:100AE000050306434CEA010C49084FEA300092180E
:100AF0005B4150EA0107EDD152EA030012D082EACD
:100B0000040083EA0501084305D0101BAB4106D25F
:100B10000122002306E000224FF0004302E06FF0C4
:100B2000010253101AEB06004CEB085110EB0A00BF
:100B300041EB0B01BDE8F04DFFF734BFC1F30A52A2
:100B4000C1F3130140F2FF3341F480119A4202DAFB
:100B500000200146704740F233439A42A2F23342EA
:100B600002DC5242FFF759BEFFF748BE30B5041E03
:100B700071F1000404DB4FF00044404264EB0101DA
:100B8000141E73F1000405DB1C464FF00043524273
:100B900063EB0403994208BF904230BD1CB509487D
:100BA0000090094801900546009C06E0E06840F08E
:100BB000010394E8070098471034AC42F6D3FFF7DE
:100BC0003DFB0000E4E2000804E30008C0B24FF47B
:100BD000F05100F097B900002DE9F34F8BB04FF0C2
:100BE000000801F10C000C464FF0010B46460DF1D8
:100BF000080A01906269012101989047051E2DD0D5
:100C0000252D2CD0216A8847C0B162690121019845
:100C10009047216A88470028F7D1411E62690198F0
:100C2000904700E0761CA1690B988847216A8847A5
:100C30000028F7D1E1690B988847DBE7A1690B9899
:100C400088470746A84201D1761CD3E7E1690B9893
:100C500088477F1C02D1B8F1000F6FD046E1002712
:100C600062693D463946019890472A2804D1626955
:100C70000121019890470125DFF8849262690121E2
:100C800001989047A0F130010A290AD24F45E5DCCE
:100C900007EB870100EB4107303FDFD445F010053B
:100CA000ECE7E90601D46FF000476C280AD04C2825
:100CB00014D0682815D06A280DD074281CD07A2842
:100CC0001AD01DE062690121019890476C2802D07A
:100CD00045F0040514E045F002050DE045F020055F
:100CE0000AE06269012101989047682802D045F026
:100CF000080505E045F40065626901210198904707
:100D0000C4E9015765283DD019DC58287AD00CDC9D
:100D1000452837D004DC252826D0412831D131E0C0
:100D200046282FD047282CD12CE05B2877D061288B
:100D300028D063287CD0642823D15AE0D0E06F28E3
:100D400048D008DC66281DD067281BD0692821D030
:100D50006E2816D127E0702845D0732868D07528F2
:100D600047D078280DD14DE0A1690B9888470546FA
:100D700025283FF469AFE1690B9888476D1C3FF463
:100D80006AAFB3E023466A466FF001000B99AFF3F8
:100D900000809EE045F040006060A80723464FF0C9
:100DA000000236D43EE0E8077FF447AF2068011D1B
:100DB00021600068290501D506701BE7290701D5C8
:100DC000068017E7A90703D5F117C0E9006111E70D
:100DD00006600FE745F040006060A80723464FF02B
:100DE000080216D41EE040F60E0125EA01006060FC
:100DF00016E045F040006060A80723464FF00A0265
:100E000007D40FE045F040006060A80708D52346EE
:100E100010226FF001000B99AFF3008059E007E05A
:100E2000234610226FF001000B99FFF7E9FA50E01A
:100E30004FF000094F464B46632802D05B2806D08E
:100E400040E0E80601D40120A06001273AE0626991
:100E50000121019890475E2805D14FF00109626990
:100E6000494601989047216939B900210A465346FD
:100E700043F82120491C0829FADBB0B3216969B97C
:100E8000C11700EBD16253110AEB830122F01F025C
:100E9000821A01200B68904003430B6062690121B4
:100EA000019890475D28E8D1B9F1000F09D00020E2
:100EB000514651F82020D24341F82020401C0828F8
:100EC000F7DB02AB224600976FF001000B99AFF3FE
:100ED000008000280CDA401C08D1BBF1000F05D0BF
:100EE0004FF0FF300DB0BDE8F08FFFE74046F9E767
:100EF000E90701D108F1010806444FF0000B79E63B
:100F0000CCCCCC0C7F2801D9002208E0064A02EBA9
:100F10005002C007127800D1120902F00F0201201E
:100F2000904008407047000068E00008B0B540F20B
:100F3000C404C2F20004607801281ED12078E0B910
:100F4000606840F6E465B0F5616FC2F2000501D952
:100F5000012203E0C009182808D8002240F200400E
:100F6000C4F202208021A27003F046FF012029680C
:100F70002070486820F08000486040F6E460C2F2CB
:100F80000000BDE8B04001F017BE00000146C06D92
:100F9000836F826F13F0500F08D0D20648BF01F064
:100FA00009BE006F826E0846104700BF42F4007110
:100FB000816701680B68CA681B0703D4910707D0D3
:100FC00001F0DEBD12F4406FFAD1C9688904F7D48C
:100FD000816F21F480718167816FC90448BF01F07E
:100FE000CFBD816F41F00101816701F0C9BD0000F3
:100FF000C06D816F41F040018167C16F41F0040114
:10100000C16701F0D7BD0000C06D01F0D1BD000087
:10101000B0B5016804468A688868C0074FF00000D0
:1010200033D012F0020218BFB0BD886800F00D0086
:10103000012821D188684FF6C072C7F6FF721040B0
:10104000023088600320086003F0E4FE21688968AC
:10105000C90704BF0020B0BD054604E08068C00792
:1010600004BF0020B0BD03F0D5FE411B206803295A
:10107000F4D38168C907F1D0A06F40F01000A067D9
:10108000E06F40F00100E0670120B0BD70B504469C
:1010900000688168C90741D14FF6C076C7F6FF7670
:1010A000816806F17F0211420AD0A06F40F0100063
:1010B000A067E06F40F00100E067012070BD00BF55
:1010C000816841F200023140C4F2026241F0010144
:1010D0009042816001D1206A00BB03F09BFE216831
:1010E0000A68D2071AD1054605E000BF0868C007A4
:1010F0001CBF002070BD8868C00704D188683040DC
:1011000040F00100886003F085FE401B2168032841
:10111000ECD30868C007E9D1C7E700BF002070BD65
:101120002DE9F04F95B042F2000840F23804C0F6C5
:101130000808C2F200042046414600F0B9FDA01C98
:101140000AF0E6FB41F2C827C2F2000706464FF05C
:10115000000910A938460022CDE91399CDE911996B
:10116000CDE90F9906F008FF0FA93846002206F0D6
:10117000CDFE002E54D006EB460040F23801C2F2FC
:10118000000101EB400040F23804451C071FC2F289
:10119000000410E0207808F5005141EA00103946BB
:1011A00000F08CFD207801302070013E063D3006B5
:1011B000A7F1060734D09DF83F0035F8051C00F56F
:1011C000FA608842E6D3F0D115F8030C9DF83D1083
:1011D0008842DFD8E9D115F8020C9DF83E1088420C
:1011E000D8D815F8020C9DF83E10884205D115F8A4
:1011F000010C9DF840108842CCD815F8020C9DF8DF
:101200003E108842D1D115F8010C9DF8401088425B
:10121000CBD128789DF841108842BBD8C5E700BFE4
:1012200001204121012200F025FD40F23804C2F2E4
:1012300000044046214600F041FD2078ADF838908A
:101240000028CDF8349000F0938040F634094FF038
:101250000C0A1F2617243B25002708F5005B4FF0DA
:10126000000813E09DF837209DF838409DF839506C
:1012700081468A46164640F23800C2F200000078E5
:1012800008F10108804507F1100774D247EA0B0105
:101290000DA800F00DFD9DF83F10BDF8340001F5DC
:1012A000FA61814226D29DF836104845DAD39DF87E
:1012B000372001D15145D7D380EA0903B4462646E9
:1012C0002C4681EA0A052B4325463446664601D161
:1012D000B242C9D3921BB3FA83F3B2FA82F25B092A
:1012E00052091A409DF83830012A31D1A3422FD239
:1012F0003246B9E7BFD19DF836109DF83D209142A6
:10130000D3D8B8D19DF837209DF83E309A42CCD83A
:101310009DF837209DF83E309A4205D19DF838203F
:101320009DF840309A42C0D89DF837209DF83E3055
:101330009A42A0D19DF838209DF840309A429AD127
:101340009DF839209DF841309A4294D9ADE700BF0D
:101350001B1BB3FA83F35B091A40012A7FF48BAF9E
:101360009DF83920EBB29A423246FFF47DAF82E716
:101370003B2517241F263746264601AC2046282148
:10138000FEF7AEFF4FF480700C9001200B9041F2FD
:10139000C820C2F20000214600228DF804608DF8BA
:1013A00005508DF8287006F0D3FE15B0BDE8F08F1B
:1013B000FEE700002DE9F04186B00446A188002038
:1013C0000590CDE90110039002212068049101A944
:1013D00003F0E2FB2068A18803F008FD98B341F216
:1013E000040540F214084DF683670021CEF2000593
:1013F000C2F20008C4F21B372868D8F800200E4655
:10140000A2FB0712910C00BF2A68121A8A420BD263
:101410002A68121A8A4207D22A68121A8A4203D20A
:101420002A68121A8A42EFD32068A18803F0DEFCF2
:1014300018B1632E06F10101DED3622E82BF0120B6
:1014400006B0BDE8F0812068A18803F0CFFC002839
:101450001EBF002006B0BDE8F08141F2040540F255
:1014600014084DF683670021CEF20005C2F2000891
:10147000C4F21B372868D8F800200E46A2FB0712DA
:10148000910C00BF2A68121A8A420BD22A68121ADB
:101490008A4207D22A68121A8A4203D22A68121A8A
:1014A0008A42EFD32068A18803F0A0FC18B9632E0C
:1014B00006F10101DED30020622E88BF012006B0B4
:1014C000BDE8F0814EF6FC50CEF20000016841F01C
:1014D0008071016041F20000CEF20000016841F02D
:1014E000010101607047000080B541F2040E40F236
:1014F0001403CEF2000EC2F20003DEF80020D3F88F
:1015000000C04DF68363C4F21B33ACFB0331890C7E
:1015100001FB00F00BE000BFDEF80010891A8142E9
:1015200028BF80BDDEF80010891A814209D2DEF89A
:101530000010891A814204D2DEF80010891A814213
:10154000EAD380BDB0B584B040F20040C4F20220BE
:1015500000F5806140F2080402910821009001200A
:10156000C2F20004ADF80C10ADF80400621C02A831
:10157000214600F0F5F838B141F2B840C2F200005F
:101580001DA10BF09FFF08E02278637841F2B8407C
:10159000C2F2000023A10BF095FF2546227815F832
:1015A000013F41F22840C2F2000029A10BF08AFF5E
:1015B000684621462A4600F0D3F868B141F2B840A7
:1015C0004EF2B221C2F20000C0F6000104B0BDE844
:1015D000B0400BF077BF00BF2278637841F2B8408B
:1015E0004EF28221C2F20000C0F6000104B0BDE854
:1015F000B0400BF067BF00BF41542B4D51545450C5
:1016000055423D302C22436162696E657454482F07
:10161000736574222C224572726F72222C302C302A
:101620000D0A000041542B4D5154545055423D3049
:101630002C22436162696E657454482F736574226D
:101640002C22542564482564222C302C300D0A00AD
:1016500054656D703A25640A48756D69643A25646D
:10166000000000002DE9F04104460068A18841F225
:101670000405CEF2000503F0B9FB40F214084DF664
:101680008367C2F20008C4F21B3700B3002600BF14
:101690002868D8F80010A1FB0712910C2A68121ACA
:1016A0008A420BD22A68121A8A4207D22A68121A70
:1016B0008A4203D22A68121A8A42EFD32068A1888C
:1016C00003F094FB18B1632E06F10106E0D3206805
:1016D000A18803F08BFB00BB002600BF2868D8F868
:1016E0000010A1FB0712910C2A68121A8A420BD231
:1016F0002A68121A8A4207D22A68121A8A4203D228
:101700002A68121A8A42EFD32068A18803F06EFB80
:1017100018B9632E06F10106E0D32868D8F8001046
:10172000A1FB0712910C01EB8101C9002A68121A72
:101730008A420BD22A68121A8A4207D22A68121ADF
:101740008A4203D22A68121A8A42EFD32068A188FB
:1017500003F04CFB002818BF0120BDE8F081000019
:101760002DE9F04F85B0064688460020B1880490E8
:1017700001200091CDE9010002213068039141F27E
:10178000040469469146CEF2000403F005FA30687D
:10179000B188002203F030FB40F21405C2F20005CC
:1017A000206829684DF68367C4F21B37A1FB071236
:1017B000910C44F6206201FB02F100BF2268121A6C
:1017C0008A420BD22268121A8A4207D22268121A5F
:1017D0008A4203D22268121A8A42EFD33068B18853
:1017E000012203F009FB20682968A1FB0712910C74
:1017F0000901A1EB924149002268121A8A420BD2D8
:101800002268121A8A4207D22268121A8A4203D226
:101810002268121A8A42EFD33046FFF7CBFD002828
:1018200040F0D6803046FFF71DFF07463046FFF7F1
:1018300019FF400040EA87043046FFF713FF0443D6
:101840003046FFF70FFFA10041EA40043046FFF7A2
:1018500009FF04433046FFF705FFA10041EA4004B9
:101860003046FFF7FFFE04433046FFF7FBFE40EA39
:10187000440A3046FFF7F6FE07463046FFF7F2FE11
:10188000400040EA87043046FFF7ECFE0443304650
:10189000FFF7E8FEA10041EA40043046FFF7E2FE10
:1018A00004433046FFF7DEFEA10041EA4004304623
:1018B000FFF7D8FE04433046FFF7D4FE40EA440B5E
:1018C0003046FFF7CFFE07463046FFF7CBFE40001D
:1018D00040EA87043046FFF7C5FE04433046FFF771
:1018E000C1FEA10041EA40043046FFF7BBFE0443BD
:1018F0003046FFF7B7FEA10041EA40043046FFF74B
:10190000B1FE04433046FFF7ADFE40EA44043046E2
:10191000FFF7A8FE07463046FFF7A4FE400040EA66
:1019200087053046FFF79EFE05433046FFF79AFED7
:10193000A90041EA40053046FFF794FE05433046D2
:10194000FFF790FEA90041EA40053046FFF78AFE06
:1019500005433046FFF786FE40EA45053046FFF76F
:1019600081FE07463046FFF77DFE400040EA8707CC
:101970003046FFF777FE07433046FFF773FEB900A6
:1019800041EA40073046FFF76DFE07433046FFF758
:1019900069FEB90041EA40073046FFF763FE07439E
:1019A0003046FFF75FFE5FFA8BF151FA8AF140EAA9
:1019B000470051FA84F1C0B251FA85F1814207D152
:1019C00089F800A088F80040002005B0BDE8F08F3D
:1019D000012005B0BDE8F08F2DE9F043D2F800C03A
:1019E000D0F808E0002953D0BEF1000F4FF00004FA
:1019F00064D04FF6FC7311EA03094FF000074FF073
:101A0000000300F0B58005684FF6FC732B40BEF173
:101A1000020F4FF0010455D34B4553D04FF6FF74DE
:101A200025EA040605274FF6FC7800BF46EA0304C2
:101A300054F82C50FC1E744505EA08054ED24D455D
:101A40004CD046EA050353F82C30BC1E744503EA1B
:101A500008031AD24B4518D046EA030454F82C5018
:101A60007C1E744505EA080538D24D4536D046EA55
:101A7000050353F82C30774503EA080307F1040403
:101A800002D24B452746D1D1043C1F462B466FE07E
:101A9000BEF1000F1AD004684FF6FC75BEF10103C9
:101AA00004EA050716D04FF6FF75AC43AEF1020508
:101AB000032D03F0030813D230E000BF00270023FA
:101AC00056E000BF1F46002352E000BF002300275E
:101AD000002456E00124002353E000BF2F4647E0D6
:101AE00023F003054FF6FC7644EA070353F82C3045
:101AF000043D03EA060343EA040353F82C3003EAE7
:101B0000060343EA040353F82C3003EA060344EACD
:101B1000030757F82C7007EA0607E5D13D46B8F1F0
:101B2000000F24D044EA050353F82C604FF6FC73F1
:101B3000B8F1010F06EA030604D1744637462B4676
:101B400016E000BF44EA060555F82C50B8F1020F24
:101B500003EA050304D174461F46334608E000BF7C
:101B60001C4354F82C404FF6FC7504EA05077446F4
:101B700039B14FF6FC7631408F421CBF0120BDE8E1
:101B8000F0834088946043EA004147EA0043516093
:101B9000D36053F82C1029B14FF6FC7300041940A0
:101BA000084310610020BDE8F0830000704700008A
:101BB00080B540F2C400C2F200004178B1FA81F170
:101BC0004A09427041F60000C4F20220042103F0E9
:101BD00013F90120BDE8804002F0C4BFEFF310808C
:101BE00072B600BFFEE70000B0B542F22005044621
:101BF000C4F2020503F00EF9296811F4403F0DD03C
:101C0000611C27D0044400BF03F004F9A04224BFA4
:101C10000320B0BD286810F4403FF5D1286842F297
:101C2000FA0101401CD040F21800C2F200004268E4
:101C30000A43426001202960B0BD00BF286810F44B
:101C4000403FEBD0286810F4403FE7D0286810F4FC
:101C5000403FE3D0286810F4403FEFD1DEE700BFFB
:101C60002868C0074FF0000008BFB0BD01212960FF
:101C7000B0BD000070B586B014460D46064603F0B0
:101C8000DFF802F0F5FE002005900220CDE9010604
:101C900001A805A9CDE9035402F074FD4FF47A7050
:101CA000FFF7A2FF03F0EEF802F0F0FD06B070BD02
:101CB000D1E90012C0E9001270470000B0B50C462F
:101CC000054602F0D5FE01202946224602F0EAFD33
:101CD000BDE8B04002F0DABD40F67070C2F200001C
:101CE00002F040B940F6E870C2F2000002F03AB9E2
:101CF00041F26000C2F2000002F034B941F2D800B3
:101D0000C2F2000002F02EB941F25010C2F20000FF
:101D100002F028B941F2C810C2F2000002F022B964
:101D200070B540F22C14C2F2000420464FF4B461A6
:101D30003022FEF7CEFA41F2DC35C2F20005284629
:101D40000021002607F0F8FE286800214662284698
:101D500022464FF4B76307F0C1FC0120BDE8704094
:101D6000FFF7C2BBF0B583B09FED3D1AB4EE410A58
:101D7000F1EE10FA2CDD9FED3B1AB4EE410AF1EEC4
:101D800010FA25DA9FED3A1A002620EE010A9FED9F
:101D9000391A02A981EE000A8DF80A60ADF80860D0
:101DA00080ED020A08F09EFF9DF80A00BDF80810B9
:101DB00041EA004704F07F40C419F5B228462146A5
:101DC00000F05AF83B2D06F10106F3D32EE000BFD8
:101DD0009FED251AB4EE410AF1EE10FA3EDD9FEDBB
:101DE000231AB4EE410AF1EE10FA37DA4DF20A7115
:101DF000C3F623410026816001A98DF80660ADF885
:101E0000046008F06FFF9DF80600BDF8041041EA79
:101E1000004700BF04F07F40C419F5B228462146B0
:101E200000F02AF83B2D06F10106F3D341F2DC3431
:101E3000C2F2000420460021002507F07DFE206844
:101E400040F22C1245622046C2F2000200214FF4FB
:101E5000B76307F043FC0120FFF746FB03B0F0BD7A
:101E6000CDCCCC3D0000E1430000FA4300007A44B1
:101E70006F12833A0AD7A33B80B50A0600EB4003F2
:101E800040F22C1E4FF05002C2F2000E58BF30221A
:101E90000EF833200A040EEBC3004FF0500258BF77
:101EA000302202720A024FF0500258BF30220274F0
:101EB0004A064FF0500258BF302242704A044FF099
:101EC000500258BF302242724A024FF0500258BFAF
:101ED000302242748A064FF0500258BF302282707E
:101EE0008A044FF0500258BF302282728A024FF0AB
:101EF000500258BF30228274CA064FF0500258BFB9
:101F00003022C270CA044FF0500258BF3022C27251
:101F1000CA024FF0500258BF3022C2740A074FF075
:101F2000500258BF302202710A054FF0500258BFCC
:101F3000302202730A034FF0500258BF302202755C
:101F40004A074FF0500258BF302242714A054FF005
:101F5000500258BF302242734A034FF0500258BF1C
:101F6000302242758A074FF0500258BF30228271EA
:101F70008A054FF0500258BF302282738A034FF017
:101F8000500258BF30228275CA074FF0500208BF76
:101F90003022C271CA054FF0500C4FF0500258BFAA
:101FA0003022C273C90358BF4FF0300C80F817C0FD
:101FB00080BD0000B0B582B004460020019094F8C6
:101FC0007400012802BF022002B0B0BD012084F8D5
:101FD000740020460D46FFF71BF8A16F10B141F0C9
:101FE000100159E041F2021291430231A16741F21E
:101FF0000802C4F202622168A2F1080399424FF676
:10200000C073C7F6FE7309D08A681A4005F480339E
:102010001A4302F100428A6007E000BF156803F529
:1020200080332B4043F00043136049F2FF52C5F266
:102030005A528B68B3F1FF3F2ADC019B01330193B5
:10204000019B93421DD88B68B3F1FF3F20DC019BBD
:1020500001330193019B934213D88B68B3F1FF3F87
:1020600016DC019B01330193019B934209D88B68D5
:10207000B3F1FF3F0CDC019B01330193019B9342C1
:10208000D7D9A06F40F0100020F00201012003E03A
:10209000A16F012262F30101A167002184F874108D
:1020A00002B0B0BD704700007047000070470000EC
:1020B0007047000090F87420012A04BF0220704786
:1020C0002DE9F04341F2200CC4F2026C0268ACF13D
:1020D000200901264A4580F8746027D096689568E3
:1020E000C5F3C00506F00406761926D1D1E90046ED
:1020F00040F2000EC7F6C05E7445A6F500054FEA33
:10210000862646EA95551FD14FF6FF74052DC8F275
:102110003F2400F27780DFE805F0034B555B656BE9
:10212000D5682C4044F400046EE000BF5CF8186CE5
:10213000002506F004067619D8D0816F41F0200101
:10214000816701212BE100BF052D00F2B18001263E
:1021500006FA05F313F0150F0ED0C4F340634FF0E9
:10216000024602EB830366EA0404D3F8A0502C4035
:1021700064F07F44A7E000BF8B6893FAA3F5B5FA3B
:1021800085F51F0208BF9D0E05F01F036FF07E4509
:10219000AC4206FA03F405D1D2F8A0302343C2F8CA
:1021A000A03092E0D2F8A4302343C2F8A4308CE0EF
:1021B0008D68D66805F0F84534402C4344F440045B
:1021C00022E000BFD5682C4044F080741CE000BFC2
:1021D0008D68D66805F0F84534402C4344F0A0746F
:1021E00012E000BFD5682C4044F0C0740CE000BF82
:1021F0008D68D66805F0F84534402C4344F0E0740F
:1022000002E000BFD5682C404A45D46009D0D2F81E
:10221000AC408C69D2F8AC5005F07E452C43C2F836
:10222000AC40D4680E68D1E90457D3684FF0060873
:1022300008EA540408EA5303A5404A4507FA03F3A1
:1022400014D002F1A80476451EBF182707EA565796
:102250003C442768261D07F07E473B4323603368D4
:1022600003F07E432B43336012E000BFC6F30164EA
:10227000C6F3406776453C4418BF4CEA840CDCF852
:10228000007007F0F02747EA05473B43CCF80030E1
:10229000836F23F480338367802313600B7B516843
:1022A000012B0CBF41F0800121F0800175E000BFDF
:1022B000C4F340634FF0024602EB830366EA040472
:1022C000D3F8A0502C40C3F8A040D3684FF00608C4
:1022D00008EA53030D68D1E90447D6689C4008EA30
:1022E00056034A4507FA03F312D06FF07E47BD420A
:1022F00036D1D2F8B07007F07E473B43C2F8B03019
:10230000D2F8B43003F07E432343C2F8B43016E071
:10231000C5F30166C5F3406775453E4418BF4CEAF6
:10232000860CDCF8007007F0F02747EA04473B43CF
:10233000CCF800300B686FF07E47BB421ED1836F34
:1023400023F4003383674FF4807313600B7B516871
:10235000012B14BF21F4807141F480711DE000BF96
:10236000D2F8B87007F07E473B43C2F8B830D2F8D5
:10237000BC3003F07E432343C2F8BC30836F23F4A8
:10238000802383674FF4007313600B7B5168012B2C
:1023900014BF21F4007141F400715160002100224A
:1023A00080F87420BDE8F043084670472DE9F04FEF
:1023B00081B004460020009094F87400012802BF08
:1023C000022001B0BDE8F08F8B460120216884F81F
:1023D00074008868400700F1A58141F20838C4F212
:1023E0000268A8F54277DBF80060B9426ED096FA31
:1023F000A6F0B0FA80F0320208BFB00E00F01F0065
:102400000122CB6902FA00F01843C861DBF804002E
:102410001F27C0F3012200F01F0001EB8202C6F368
:102420008466136B8740BB4306FA00F018431063C1
:1024300088688A6800F0040002F00802801840F002
:10244000B280DBF80000DBF80820C0F3406706022A
:1024500090FAA0F307EB8706B3FA83F308BFC0F343
:102460008463704203EB400001EB870300EB400004
:102470005F6907268640B74302FA00F03843586187
:10248000DBE90402CB68042846D1086EDBF80020A3
:1024900000F07843D00683426ED10A6E22F080624B
:1024A0000A664A6E02F0784282426AD08A6E02F070
:1024B000784282426ED18A6E22F080628A66CA6E4B
:1024C00002F0784282426ED169E000BF02F09AFCCD
:1024D000B0F5805F40F04181DBF8006043F6FF70AB
:1024E000CBF60020864240F20000CDF2207040F38F
:1024F0009580864200F022810021CDF220618E423B
:1025000000F0208144F20001CBF600218E4208BF8A
:1025100000F1EC6621E100BF062707EA530301F151
:10252000600702FA03FCDBF800304FF0784257F8FE
:10253000206002EA430206F0E06342EA0C021A431A
:1025400047F82020DBF81000DBF81C2057F820307B
:1025500023F080731A4347F82020DBF810009BF823
:10256000192057F82030012A23F0806308BF03F1B7
:10257000806347F8203016E04A6E02F078428242CB
:1025800094D14A6E22F080624A668A6E02F07842E6
:10259000824290D0CA6E02F07842824203D1C86E65
:1025A00020F08060C8668868C0072FD1DBF80C3047
:1025B000DBF800004FF6FF75D1F8C07003F0180685
:1025C000C0F20F0520F07F4225FA06F69743064039
:1025D000374313F5803FC1F8C07065D172B390FAEC
:1025E000A0F0B0FA80F0421C02F01E03092B4FEA63
:1025F00080602ED800F1806002F01F02012300F0FD
:10260000F84003FA02F210432FE000BF002000213F
:1026100084F8741001B0BDE8F08F00BF41F20001F2
:10262000CBF200218E4200F0938042F20001CBF207
:1026300000618E4208BF00F148768EE0012202EB75
:102640009062C0F3846302F01E020A2A03F10102C1
:10265000D0D300F1806002F01F02012300F0F840A7
:1026600003FA02F2104340F00070C0F34067060224
:1026700090FAA0F307EB8706B3FA83F3DBF80820A0
:1026800008BFC0F38463704203EB400001EB870393
:1026900000EB40005F6907268640B74302FA00F06E
:1026A00038435861DBF80000B0F1FF3F00F360826F
:1026B00048F20002C4F202229142A8F5407308BF1A
:1026C00002F54278D8F80070914208BF02F1080381
:1026D0001B68DB0726D10023CCF60863984207F07D
:1026E000E07308BF17F4000600F0D6800026CCF691
:1026F0000426B04240F016810026B6EB136F40F07E
:10270000118141F20000C4F20260814218BF91427F
:1027100040F02E82D8F8000020F0E070184340F01E
:1027200080701AE1A06F40F02000A0670120002116
:1027300084F8741001B0BDE8F08F00BF00F17F464F
:102740000BE000BF0020CCF6086000F1816604E0D9
:102750000120C8F2000000F18076DBF80400216956
:10276000022845D141F010001021C8F20001884232
:1027700009D12068C6F384610122836A02FA01F15B
:1027800023EA01018162DBF80000B0F1FF3F00F3B2
:10279000EF81216848F20002C4F20222914208BF90
:1027A00002F542784FF6FF71D8F80060CCF60321AD
:1027B000884261DC0121C8F20001884200F0D0802B
:1027C00041F20001CBF20021884240F0B881D8F8F4
:1027D000000006F0C07120F0E0700844C8F8000066
:1027E00002F010FBB0F5805F00F2A98197E100BF15
:1027F000102241F01001C8F20002914210D196FA65
:10280000A6F12068B1FA81F1320208BFB10E01F0E1
:102810001F010122836A02FA01F119438162BFE0BC
:10282000D4F8882000F01F030F259D40AA4396FA94
:10283000A6F5A16AB5FA85FA36F07F4C5546C6F37F
:10284000846908BF4D4605FA03F3B1EB900F42EAE5
:102850000300C4F8880040F2A380654602F0D2FA73
:10286000B0F5805F00F29680002D00F08980300383
:1028700040F09080D14688E00021CCF604218842C7
:1028800074D00021CCF60861884240F05881D8F815
:10289000000006F0A0716DE041F20000C4F2026099
:1028A000814218BF914240F06381D8F8000042F69F
:1028B000635120F0E070184340F40000C8F80000B5
:1028C00040F21400C2F200000068C0F23E518009DC
:1028D000A0FB01018809022101EB40000090009853
:1028E000002800F0458100980138009000980028E9
:1028F00000F03E810098013800900098002800F018
:1029000037810098013800900098002800F030814D
:10291000009801380090009800284FF00000E2D1A4
:1029200075E600BF0126C8F20006B0424FF0000075
:1029300008BF17F480077FF46AAE41F20000C4F2CA
:102940000260814218BF914240F01281D8F8000025
:1029500020F0E070184340F48000C8F8000007E160
:10296000D8F8000006F0C07104E000BFD8F80000FD
:1029700006F4400120F0E0700844C8F80000DEE0F2
:1029800006F0E040B0F1984F04D9A9F10900012107
:1029900001FA00F62068DBF80410324608F048FA25
:1029A0002068DBF80810B84220D0C6F34063350237
:1029B00096FAA6F203EB8305B2FA82F208BFC6F3D9
:1029C00084626E4202EB460200EB830302EB42029A
:1029D0005E6907259540AE43914031435961DBF86C
:1029E0000030B3F1FF3F00F3C3801BE04FF60C5CF7
:1029F000CFF6FF7C96FAA6F5320258F80C30B5FAFD
:102A000085F54FF4807208BFC6F38465AA40DBB237
:102A10001140194448F80C10DBF80030B3F1FF3FC7
:102A200000F3A68048F20001C4F202214246884227
:102A300008BF01F54272166842F20001CBF2006154
:102A40008B4206F0E07108BF16F4000510D044F286
:102A50000005CBF60025AB423ED10025B5EB116F4A
:102A60003AD1106820F0E070084340F0807065E0D3
:102A7000106820F0E070084340F40000106040F25D
:102A80001400C2F20000006842F663518009C0F2EF
:102A90003E51A0FB01016FF0010000EA51100090CF
:102AA000009800284BD0009801380090009800282A
:102AB00045D0009801380090009800283FD0009839
:102AC000013800900098D0B3009801380090009829
:102AD0000028E8D133E000BF0125C8F20005AB4271
:102AE00006F4800C08BFBCF1000F21D0B84226D1FB
:102AF00041F20000CBF20020834208BFBCF1000F7E
:102B00001DD1D8F8000020F0E070084340F48000A8
:102B1000C8F8000002F076F9B0F5805F0FD82068A1
:102B2000D0F8D01041F00101C0F8D01007E000BF8C
:102B3000106820F0E070084340F48000106002F05C
:102B400061F9B0F5005F13D1DBF800000021CDF290
:102B5000207188424FF0000008BF16F480017FF416
:102B600056AD2068D0F8D01041F00101C0F8D01067
:102B70000020002184F8741001B0BDE8F08F00003F
:102B800040F2C400C2F200004168A1F54861B1F50D
:102B9000C87F88BF704740F6E462C2F2000200219D
:102BA00012680170506840F080005060704700006B
:102BB0007047000070470000F0B581B0044600681F
:102BC00006684568B1070FD515F002010CD0A06F5B
:102BD000C00603D4A06F40F40060A0672046FFF752
:102BE00061FA20680221016041F200077107C4F216
:102BF000026702D515F0040104D1310752D515F052
:102C000008014FD0214651F8782FD20603D40A6824
:102C100042F400720A60B8421AD0C26812F4406FDF
:102C20003AD1C268920437D40268120734D5826858
:102C3000520723D4426822F00C024260086820F454
:102C4000807008600868C00426D4086821E000BFCE
:102C5000F86810F4406F1FD194F82400E0B9386888
:102C6000000719D5B86840070CD4786840F2011203
:102C700020F00C007860086890430AE0A06F40F0F4
:102C8000100002E0A06F40F02000A067214651F83C
:102C90007C0F40F0010008602046FFF771FF2068BC
:102CA0000C210160B8421FD0B10602D515F02001F9
:102CB00004D1710615D515F0400112D0A16FC906D7
:102CC00003D4A16F41F40051A167C36CC168C2680D
:102CD00013F4C07F46D02046FFF7E6F92068602154
:102CE0000160310603D40FE0384631060CD515F0EB
:102CF000800109D0A06F40F48030A067204600F02A
:102D000065FA206880210160F1050DD515F4807108
:102D10000AD0A06F40F40030A0672046FFF7C6F944
:102D200020684FF480710160B1050DD515F4007174
:102D30000AD0A06F40F48020A0672046FFF7B8F9C2
:102D400020684FF400710160F1063AD515F01001CA
:102D500037D0616C39B3B84222D0C168890722D11B
:102D60002DE000BF930105D501F4406102F400524B
:102D70008918B0D101684906ADD581680907AAD480
:102D8000416821F060014160A06F20F48050A0678D
:102D9000A06FC0059FD4A06F40F00100A0679AE724
:102DA000F868800710D0A06F40F48060A067E06FE3
:102DB00040F00200E0672046FFF7FCFE206810218B
:102DC000016001B0F0BD00BF3846F8E7002804BF3D
:102DD000012070472DE9F04182B00446806F38B180
:102DE0002168886880000ED48868C00015D548E046
:102DF000204600F0EDF90020E06784F874002168B7
:102E000088688000F0D588684FF6C072C5F6FF72FA
:102E1000104088608868C00033D44FF6C07288685C
:102E2000C5F6FF7202F18052104000F180508860B8
:102E300040F21400C2F20000006842F663528009BA
:102E4000C0F23E52A0FB02029009022202EB4000B7
:102E500001900198A8B100BF019801380190019834
:102E600078B1019801380190019850B1019801386A
:102E70000190019828B1019801380190019800282B
:102E8000EAD18868C00009D4A06F40F01000A067A4
:102E9000E06F40F00100E067012000E000208A6858
:102EA000A36F02F0040203F01003D218A26F29D11D
:102EB00022F481720232A2678A6841F20C0ED207B4
:102EC000C4F2026E3FD148F2000CC4F2022C6145FC
:102ED00020D041F20003C4F20263994220D1DEF80F
:102EE0000020D4E901C3013B9B0863F38302CA605D
:102EF000DEF8FC224FEA9C4363F39542CEF8FC22B5
:102F000021E000BF42F01000A067012002B0BDE840
:102F1000F08100BF0CF108031B68DB0705D012E04D
:102F2000AEF104031B68DB070DD10EF53F7361455D
:102F300008BF0CF54273D4F804C01A6822F470126A
:102F400042EA0C021A60AEF10C02914266D094F88B
:102F50002420636C94F82C7043EA4232A368012F5A
:102F600042EA030242EA074206D1236B0027CFF66A
:102F7000FE7707EB43431A43636B23B1A76B03F45C
:102F800078733B431A43CB684CF21307CFF6F077C4
:102F90003B401A43CA608A688B6802F0040203F05F
:102FA0000803D21840F0CB8048F20003C4F2022399
:102FB000CB1AE76B227F18BF012307FA03F343EA1A
:102FC0008232CB6844F20307BB431A43CA60E2680B
:102FD0004AB10B6F43F6FF77BB431A430A670A6F88
:102FE00042F000420A6794F854300A69012B40F01D
:102FF0009D804FF61E03CFF600431A40D4E91637E2
:10300000D4E918653A4342EA0342A36E32432A43A5
:1030100042EA930242F001028AE000BF94F82410D1
:10302000227F4B0343EA8232D4E90483656C28F0A3
:103030000046B8F1FF3FC8BF4FF400161A4394F89A
:103040004070002D18BF42F48052324394F82C3067
:1030500042EA470C012B0AD1002900F08180A16FC0
:1030600041F02001A167E16F41F00101E167616B6F
:1030700029B1A26B01F4E07111434CEA010CDEF8B6
:10308000001048F20D02CFF6FE72114041EA0C0129
:10309000CEF80010216A21B1DEF838201143CEF8B5
:1030A0003810E16E21B1DEF838201143CEF8381027
:1030B00004F158030ECB11431943A26E94F8543017
:1030C0001143012BDEF8042008BF41F001014FF647
:1030D0000243CFF2FF731A401143CEF80410DEF81A
:1030E0000810D4E9122321F007011143CEF808108B
:1030F000DEF80810B8F1000F21F0700141EA031169
:10310000CEF8081026D0B8F5001F3ED1D4F88810AC
:10311000DEF81C3001F00F020F2A29D001F0F00276
:10312000F02A25D163F00F012DE000BF22F001024B
:103130000A610A69236D22F070421A430A6122690A
:103140000B6B012A23F00F0202BFA36A013B1A4353
:103150000A6325E0DEF81C1061F00F0113E000BFE8
:103160004CF4803C616B00297FF483AF87E700BF9C
:10317000A26A1C2303EB82026FF00F0302F01C0211
:1031800003FA02F21143CEF81C10DEF800104FF6DD
:10319000F372C8F23F321140614509D10021E16765
:1031A000A16F012262F30101A16702B0BDE8F081C5
:1031B000A06F40F0100020F00200A067E06F40F028
:1031C0000100E067012002B0BDE8F0817047000017
:1031D00070B5D4B0044634A8002640F68C452030A3
:1031E0004C21CDE95266C4F20265FDF779F802A8D8
:1031F0000830C021FDF774F8206805F55D7188423C
:1032000002D054B070BD00BF4FF4004002904FF4A4
:1032100080402C9002A8039603F0A2F9002818BF62
:10322000FEF7DCFCA868002640F02000A860A86833
:103230004FA900F0200001900198286840F0040098
:1032400028602868012500F00400019001980320FF
:10325000509040F60000C4F202204F95519601F0C4
:103260009BFC212034A961C1CDE93766399645968A
:10327000CDE93F66CDE94166439640F2CC06022097
:10328000C2F200063A904FF40030CDE93D5506F108
:1032900018053B9034A8294600F0E8F8002818BF2C
:1032A000FEF79CFC304600212A4600F0CDFB0028AA
:1032B00018BFFEF793FC40F2CC00C2F2000000F011
:1032C000CFFC002818BFFEF789FC41F2C81040F27D
:1032D000D021C2F20000C4F202010160002181226B
:1032E000C0E90E11C0E91011826400F021FA002833
:1032F00018BFFEF773FC41F2C815C2F2000540F298
:10330000CC01C2F20001284600F032FC002818BFB0
:10331000FEF764FC284610212567EC6500F002FEEC
:10332000002818BFFEF75AFC71200021002202F08D
:10333000FBF8712002F0E6F854B070BD70B59CB097
:10334000044600688068400703D494F8740001289C
:1033500002D102201CB070BD012084F87400204608
:1033600016460D46FDF792FE30B1002084F8740039
:1033700001201CB070BD00BF2168A06F41F20C0C91
:1033800040F60172C4F2026C9043ACF10C0300F5FC
:1033900080709942A06702D0A06FC00402D40020C0
:1033A00003E000BFE06F20F00600E067206F40F60A
:1033B0008D72C0F6000241F2090E026640F6F1720B
:1033C000C0F6000EC0F60002C0E919E21C220A6035
:1033D000002284F874204A68994242F010024A6040
:1033E0000AD090F85020120610D48269012A1FD00A
:1033F000022A08BFB6001CE0DCF8002042F00102FF
:10340000CCF8002090F850201206EED5406F68B13D
:10341000016859B101A800F0DFF80028A8D1079889
:10342000012817D0022808BFB60014E0012005E0EB
:10343000760040312A46334601F03CF921684FF6C8
:10344000C0738A68C7F6FF731A4004328A601CB0E2
:1034500070BD00BF7600206F2268416F403209685E
:10346000C1E902620D6100F08BFCE7E700284FF034
:10347000010218BF002901D110467047B0B5D0E94C
:1034800004C2C369D0F818E01A43C36B1A4342EA76
:103490000C0242EA0E020A6003789B0616D5D0E9B8
:1034A00009C34FF07C75D0F82CE0846B05EB035317
:1034B0004FF47C7505EB0C1503F07C7344EA0E04A5
:1034C00005F47C7523432B431A430A604268036B5F
:1034D00040F27F252A401A434A60C368B3F5007F53
:1034E00005D0B3F5806F04D10578AD0601D51A4338
:1034F0004A60436C43B1856C046C05F03F05224380
:1035000042EA05421A434A60B0F8683040F2000CC3
:103510008B600278C0F2FF7C920722D5C56C4FF019
:1035200080540CEB054505EA0C052B438B60056DBB
:1035300004EAD5054FF000542B448B60456D04EA36
:1035400095054FF080442B448B60856D04EA55054A
:103550002B448B60C56DB5F1FF3FDCBF03F1004329
:103560008B60036ECB60436E0B6103689D0703D4D1
:103570004FF4A06029E000BF036D0CF1C052002B96
:1035800048BF5B426FF35F334B61456D2C04002DE8
:1035900048BF05FB02F422401A434A61836D0CF1D7
:1035A0007845002B48BF5B429AB28A61C36D1C0408
:1035B000002B48BF03FB05F422438A610368980788
:1035C0004FF4E06058BF4FF4A06018430022086237
:1035D000BDE8B0401046704700284FF0010218BF08
:1035E000002901D11046704791F820C042F2000234
:1035F000C0F800C00B68C0F6004203F00803036186
:103600000B6803F4002343610B6803F00303836139
:103610000B6803F44033C3610B68C3F30513013334
:1036200043620B68C3F30553013383620B6803F0F5
:103630004023C3620B681A4082630A6802F4C052D6
:10364000C2634B689A0509D403F07F0242604A794D
:10365000520754BF00224FF4806202E04FF4007220
:103660004260C2604A685FEA8C7302F40062826062
:103670004A6802F4404202644A6802F040724264BE
:10368000CA8802F03F0282644A6802F04042026344
:103690000A8982660CD40122C264CA68026609697A
:1036A00000224166C0E91422C0E916221046704784
:1036B00080B54A896FF3DF220132C264CA680266AC
:1036C0000A6942664B696FF35F330365B1F816C050
:1036D0006FF35F3CC0F854C0D1F808E05FEACE0257
:1036E00003D55A420265D1F808E05FEA8E0244BF72
:1036F000CCF100024265B1F818E0C0F858E08A69E0
:103700004FEA124CC0F85CC08A68530003D5CEF172
:10371000000282658A68B2F1FF3FBDE88040C4BF05
:1037200000207047CCF10001C16500207047000007
:10373000B0B5044601F06EFB002C04BF0120B0BD03
:1037400000210546206884F84C10022184F85410AA
:10375000416941F00601416120684169C9070BD008
:1037600001F058FB401B0528F6D901200322102147
:10377000A16584F85420B0BDD4E90E124F23C5F2E0
:103780000203984242EA010240F24F61C5F202018F
:103790001CDC40F24F43C4F20203984232DC40F298
:1037A0004F23C4F20203984256DC40F24F13C4F296
:1037B0000203984200F394805023C4F2020398421B
:1037C00000F0E880D023C4F20203E1E040F24F436E
:1037D000C5F2020398422DDC40F24F23C5F20203EA
:1037E00098424BDC40F24F13C5F20203984200F3BB
:1037F00083805023C5F20203984200F0CB80D0238F
:10380000C4E000BF40F24F63C4F20203984245DCBB
:1038100040F24F53C4F20203984277DC40F2504327
:10382000C4F20203984200F0B58040F2D043C4F2E3
:103830000203ADE0884243DC40F24F53C5F202037D
:1038400098426FDC40F25043C5F20203984200F008
:10385000A18040F2D04399E040F24F33C4F202031A
:10386000984269DC40F25023C4F20203984200F00F
:10387000918040F2D023C4F2020389E040F24F333A
:10388000C5F20203984263DC40F25023C5F2020302
:10389000984200F07F8040F2D02377E040F24F73EF
:1038A000C4F2020398425DDC40F25063C4F20203AA
:1038B00098426FD040F2D063C4F2020368E000BFC8
:1038C00040F24F73C5F20203984257DC40F2506356
:1038D000C5F2020398425DD040F2D06356E000BFCB
:1038E00040F25013C4F20203984253D040F2D01376
:1038F000C4F202034CE000BF40F25013C5F20203D1
:10390000984247D040F2D01340E000BF40F25053FD
:10391000C4F2020398423DD040F2D053C4F20203F5
:1039200036E000BF40F25053C5F20203984231D056
:1039300040F2D0532AE000BF40F25033C4F20203F9
:10394000984227D040F2D033C4F2020320E000BFF7
:1039500040F25033C5F2020398421BD040F2D033FC
:1039600014E000BF40F25073C4F20203984211D039
:1039700040F2D073C4F202030AE000BF40F2D073F9
:10398000C5F20203984205D040F25073C5F202031B
:10399000984201D1236C1A434369884223F44303BC
:1039A00042EA030242614FF000020264636C436426
:1039B0008264C264026511DC40F24F71C4F20201FC
:1039C00088421BDC40F25061C4F2020188422DD0D3
:1039D00040F2D061C4F2020126E000BF40F24F7114
:1039E000C5F20201884215DC40F25061C5F20201C5
:1039F00088421BD040F2D06114E000BF40F2507109
:103A0000C4F20201884211D040F2D071C4F2020126
:103A10000AE000BF40F2D071C5F20201884205D031
:103A200040F25071C5F20201884202D10021416585
:103A300081650021C167A06C012220650020A1657D
:103A400084F85420B0BD00002DE9F04186B0044652
:103A500000284FF001001CBF1546002A02D106B015
:103A6000BDE8F0816069012806D1042020610120B1
:103A700006B0BDE8F08100BF0E46206829433246FB
:103A80000143002E08BF2A46002818BF02465140B5
:103A9000B1F5803F08D268B190F820106EB196F869
:103AA00020209142E1D108E005202061012006B0EC
:103AB000BDE8F0812EB196F8201095F820209142B3
:103AC000D3D10221217300212161296A00274A08EC
:103AD000CFF6010762F3596701F0020162F39A67BA
:103AE00001F1050870B1BEB101AA20463146CDF8FA
:103AF0000480FDF771FFB8B106202061012006B0F7
:103B0000BDE8F081E6B14FF6FC70284038432660EE
:103B100046F82800022023E04FF6FC7108403843A5
:103B200045F82800256019E00398A16888420BD168
:103B3000606868B14FF6FC710840384306E000BF8A
:103B4000256001200CE000BF56F8280045F8280049
:103B50004FF6FC702840384346F82800A068013032
:103B6000A060002001212061217306B0BDE8F08132
:103B700000284FF0010218BF002901D110467047FC
:103B800090F8542090F85430022B18BF052A07D122
:103B900040218165002180F84C100120704700BF52
:103BA0000A7B022A04D101220A611046704700BF35
:103BB000026840F24F63C5F202039A4210DC40F201
:103BC0004F73C4F202039A421ADC40F25063C4F20B
:103BD00002039A422CD040F2D063C4F2020325E0E3
:103BE00040F24F73C5F202039A4215DC40F2506373
:103BF000C5F202039A421BD040F2D06314E000BF2A
:103C000040F25073C4F202039A4211D040F2D073D2
:103C1000C4F202030AE000BF40F25073C5F202038F
:103C20009A4205D040F2D073C5F202039A420DD1F8
:103C3000036D4A68812B03D122B141670020704790
:103C4000002AFAD004200861012070470A6892F81F
:103C500020209207ECD50320086101207047000066
:103C6000002804BF0120704702683AB1416849B199
:103C7000914204BF0020704707E000BF02210161AC
:103C8000012070474169012904D10421016101200B
:103C9000704700BF2DE9F04102210173002101614D
:103CA000136A40F2000C5F08CFF6010C67F3596C01
:103CB000866867F39A6C03F002034FF6FC770533CE
:103CC000002E02EA070E49D0012E01D1764645E0CA
:103CD0004FF6FF74751E023E22EA0404032E05F01F
:103CE000030801D276461EE025F003074FF6FC7567
:103CF000764600BF264356F82360043F06EA0506D1
:103D000046EA040656F8236006EA050646EA040673
:103D100056F8236006EA050646EA040656F82360CC
:103D200006EA0506E6D1B8F1000F17D046EA040509
:103D300055F823604FF6FC75B8F1010F06EA050649
:103D40000CD0264356F82360B8F1020F06EA0506A8
:103D50001EBF344354F8234004EA05064FF6FF74AF
:103D600022EA040434434CEA0E074260012244F87C
:103D7000237001610273BDE8F041084670470000FE
:103D800000285BD0436F002B58D080B590F85410BA
:103D9000D0F800E00129DEF814C004D002294FD188
:103DA0001CF480314CD090F8541001293AD190F88D
:103DB0004C1001294FF002013BD0012280F84C2029
:103DC00080F854101973002181651961DEF8141010
:103DD00041F4BA41CEF81410416E29B1DEF8141046
:103DE00041F40071CEF81410006F28B1DEF8140011
:103DF00040F40050CEF8140018680022016ACFF693
:103E00000102490861F3596261F39A624FF6FF714A
:103E100020EA0101CEF800104FF6FC710840104472
:103E2000CEF87C00DEF81400002140F00100CEF84E
:103E30001400BDE880400846704700BF012070476D
:103E400040218165002180F84C100121BDE88040AF
:103E500008467047B0B5044600F0DCFF002C04BFF4
:103E60000120B0BD054694F85400022824D12068F2
:103E7000416941F004014161052084F8540000BF0C
:103E80002168086980041FD400F0C4FF401B062885
:103E9000F6D3A06D40F01000A065032084F8540014
:103EA00094F8500000064FF0010001D5616F0873CF
:103EB000002184F84C10B0BD2020A0650120002115
:103EC00084F84C10B0BD00BF4869012240F00200E8
:103ED0004861042084F854004FF4FE40C86084F820
:103EE000542094F8500000064FF00000E0D5636FB6
:103EF0001A738864002184F84C10B0BD80B190F82A
:103F0000541002290AD1042180F85410006842F2AA
:103F100004024169114341610020704720218165FD
:103F200001207047024600284FF0010008BF70478B
:103F3000CB0612D5136840F6FF7223EA020203F59E
:103F40007B63C3F3C41301F0110198401129516838
:103F500014BF21EA000008435060002070470000B1
:103F6000806D704710B5044600680C22034600F5CA
:103F70007B6162F30B03C1F3C4111A6822FA01F1E9
:103F8000C90700F0A1800169490544BF41695FEAA2
:103F900041514BD40169090544BF41695FEA0151B0
:103FA0004CD40169C90444BF41695FEAC1414DD4A1
:103FB0000169490444BF41695FEA41414ED4016946
:103FC000890544BF41695FEA81514FD40169890481
:103FD00044BF41695FEA814152D40169C90544BFC8
:103FE00041695FEAC15171D4A06D002808BF10BDBE
:103FF0002068416941F0020141614069C0074FF00A
:10400000030008BF012084F8540094F85000000613
:1040100002D5606F01210173A16E0020002984F890
:104020004C0051D02046BDE8104008474FF4806155
:10403000C160A16D41F00101A165ABE74FF40061E2
:10404000C160A16D41F00201A165AAE74FF4805162
:10405000C160A16D41F00401A165A9E74FF4804161
:10406000C160A16D41F00801A165A8E74FF400719E
:10407000C160616E0029A9D0204688472068A5E765
:104080004FF40051C16094F85410042928D14169BB
:1040900021F400514161416941F0020141614069EF
:1040A000C0074FF0030008BF012084F8540094F8C3
:1040B0005000000602D5606F01210173E16E0020FF
:1040C000002984F84C00ADD110BD00BF94F8501009
:1040D000090611D4816CD1B904F1540115E000BF77
:1040E000052184F85410216F00293FF476AF204653
:1040F0008847206871E700BFC16F41B9816C31B951
:10410000012184F85410616F0C3101220A704FF4C0
:104110004071C160216E0020002984F84C001CBF52
:104120002046884760E7000070B5044600F072FE44
:10413000002C04BF012070BD00210546206884F8D2
:104140004C10022184F85410416941F0060141618C
:1041500020684169C9070BD000F05CFE401B0528B0
:10416000F6D9012003221021A16584F8542070BDE6
:10417000216A426904F1100522F4430211434161AE
:10418000E36926CD1A4340F24F0E1143C5F2020EE9
:1041900040F24F6C704541EA0503C5F2020C1DDC8C
:1041A00040F24F45C4F20205A84233DC40F24F25ED
:1041B000C4F20205A84257DC40F24F15C4F20205D2
:1041C000A84200F395805025C4F20205A84200F0F1
:1041D000E980D025C4F20205E2E000BF40F24F457D
:1041E000C5F20205A8422DDC40F24F25C5F20205BA
:1041F000A8424BDC40F24F15C5F20205A84200F37D
:1042000083805025C5F20205A84200F0CB80D0255E
:10421000C4E000BF40F24F65C4F20205A84245DC8D
:1042200040F24F55C4F20205A84277DC40F25045F7
:10423000C4F20205A84200F0B58040F2D045C4F2B5
:104240000205ADE0604543DC40F24F55C5F2020582
:10425000A8426FDC40F25045C5F20205A84200F0CA
:10426000A18040F2D04599E040F24F35C4F20205FA
:10427000A84269DC40F25025C4F20205A84200F0D1
:10428000918040F2D025C4F2020589E040F24F351A
:10429000C5F20205A84263DC40F25025C5F20205D2
:1042A000A84200F07F8040F2D02577E040F24F75C1
:1042B000C4F20205A8425DDC40F25065C4F202057A
:1042C000A8426FD040F2D065C4F2020568E000BF9A
:1042D00040F24F75C5F20205A84257DC40F2506526
:1042E000C5F20205A8425DD040F2D06556E000BF9D
:1042F00040F25015C4F20205A84253D040F2D01546
:10430000C4F202054CE000BF40F25015C5F20205B0
:10431000A84247D040F2D01540E000BF40F25055CF
:10432000C4F20205A8423DD040F2D055C4F20205C5
:1043300036E000BF40F25055C5F20205A84231D028
:1043400040F2D0552AE000BF40F25035C4F20205D9
:10435000A84227D040F2D035C4F2020520E000BFC9
:1043600040F25035C5F20205A8421BD040F2D035CC
:1043700014E000BF40F25075C4F20205A84211D00B
:1043800040F2D075C4F202050AE000BF40F2D075D9
:10439000C5F20205A84205D040F25075C5F20205EB
:1043A000A84211D1D4E909514FF07C76E26A06EBBC
:1043B00001514FF47C7606EB051501F07C7105F494
:1043C0007C75114329430B43016C251D01F08021AD
:1043D0001943016426CD236B01F07F011143B5F52C
:1043E000007F43EA010323D0B5F5806F40F00E81D2
:1043F000704521DC40F24F41C4F20201884237DCB3
:1044000040F24F21C4F2020188425BDC40F24F11BE
:10441000C4F20201884200F399805021C4F20201E3
:10442000884200F0F180D021C4F20201E6E000BF32
:1044300043F40073EAE000BF40F24F41C5F20201CD
:1044400088422DDC40F24F21C5F2020188424BDC4C
:1044500040F24F11C5F20201884200F383805021DF
:10446000C5F20201884200F0CF80D021C4E000BF35
:1044700040F24F61C4F20201884245DC40F24F51E4
:10448000C4F20201884277DC40F25041C4F20201DA
:10449000884200F0B98040F2D041C4F20201ADE0A0
:1044A000604543DC40F24F51C5F2020188426FDCA7
:1044B00040F25041C5F20201884200F0A58040F26E
:1044C000D04199E040F24F31C4F20201884269DCE8
:1044D00040F25021C4F20201884200F0958040F27F
:1044E000D021C4F2020189E040F24F31C5F202014D
:1044F000884263DC40F25021C5F20201884200F09C
:10450000838040F2D02177E040F24F71C4F2020183
:1045100088425DDC40F25061C4F20201884273D0EF
:1045200040F2D061C4F2020168E000BF40F24F7176
:10453000C5F20201884257DC40F25061C5F2020127
:10454000884261D040F2D06156E000BF40F2501185
:10455000C4F20201884257D040F2D011C4F20201E5
:104560004CE000BF40F25011C5F2020188424BD02E
:1045700040F2D01140E000BF40F25051C4F20201BD
:10458000884241D040F2D051C4F2020136E000BF6F
:1045900040F25051C5F20201884235D040F2D0516C
:1045A0002AE000BF40F25031C4F2020188422BD011
:1045B00040F2D031C4F2020120E000BF40F250319D
:1045C000C5F2020188421FD040F2D03114E000BF92
:1045D00040F25071C4F20201884215D040F2D0710D
:1045E000C4F202010AE000BF40F2D071C5F202013C
:1045F000884209D040F25071C5F20201884208BFDA
:1046000043F4806302E000BF43F48063416C43F2F3
:104610008012C3F6C0421140194341640021604535
:10462000816411DC40F24F71C4F2020188421BDC4C
:1046300040F25061C4F2020188422DD040F2D061B4
:10464000C4F2020126E000BF40F24F71C5F2020140
:10465000884215DC40F25061C5F2020188421BD04D
:1046600040F2D06114E000BF40F25071C4F2020188
:10467000884211D040F2D071C4F202010AE000BFBA
:1046800040F2D071C5F20201884205D040F250716B
:10469000C5F20201884202D10021416581650021F5
:1046A000C167606B012220650020A16584F8542059
:1046B00070BD000000284ED090F84CC0BCF1010F36
:1046C00004BF022070474FF0010C80F84CC090F8F6
:1046D00054C0BCF1010F39D110B54FF0020C80F875
:1046E00054C04FF0000CC0F858C0D0F800C0D0F84B
:1046F00064E0DCF84840BEF1000FC3EA0403CCF8E4
:1047000048304FF4FE43CCF80C30CCF84C10CCF8C9
:104710005020DCF8141041F4BA41CCF8141005D044
:10472000DCF8141041F40071CCF81410006F28B1BB
:10473000DCF8140040F40050CCF81400DCF814004D
:1047400040F00100CCF81400002010BD402181652C
:10475000002180F84C10012070470000B0B50446DD
:1047600000F058FB054640F20C00C2F20000007851
:10477000611C18BF044400BF00F04CFB401BA0426A
:10478000FAD3B0BD2DE9F04F81B040F2180BC2F260
:10479000000B9BF80020012A02BF022001B0BDE8F7
:1047A000F08F044601208BF8000000264FF47A7049
:1047B0008946CBF80460FDF717FA28B18BF8006042
:1047C00001B0BDE8F08F00BF206848F2040220F07D
:1047D000004142F228079142C4F20207CBF80800D8
:1047E00014D16068C10706D002223968C0F2010204
:1047F000023211433960800703D5386840F4C03075
:1048000038604FF47A70FDF7EFF932E04FF0FF3087
:10481000C9F80000D4E902502844854224D240F26D
:10482000020A4FF60548C0F2010AEE00CFF6FE7804
:104830006068396860F3CB2181F4006038603868C3
:1048400000EA0800304340EA0A0038604FF47A700A
:10485000FDF7CAF950B9D4E9020101350836084418
:104860008542E5D3002003E0002002E0C9F80050B3
:10487000002621684FF000423B6862EA01011940BE
:1048800039608BF8006001B0BDE8F08F42F228007B
:10489000C4F20200016841F0004101600068C043B9
:1048A000C00F70472DE9F04381B040F21808C2F202
:1048B0000008144698F80020012A02BF022001B027
:1048C000BDE8F0838146012088F80000002042F214
:1048D00020070D46C4F20207C8F8040000F09AFA57
:1048E000396811F4403F09D000F57A7600F092FA69
:1048F000B04215D2386810F4403FF7D1386842F220
:10490000FA01084014D0D8F804100143C8F8041084
:1049100038600120002188F8001001B0BDE8F08364
:104920000320002188F8001001B0BDE8F08300BF2B
:10493000386829F00046C0071CBF01203860C8F85D
:104940000890B868012E19D140F00100B860EFF36B
:104950001080EFF3108172B6216829606168696088
:10496000A168A960E168E96080F3108800F052FA5C
:10497000396811F4403F52D15CE000BF44F20101BC
:104980000843B860EFF31080EFF3108172B621682E
:10499000296061686960A168A960E168E9602169CE
:1049A000296161696961A169A961E169E961216AB6
:1049B0002962616A6962A16AA962E16AE962216B9E
:1049C0002963616B6963A16BA963E16BE963216C86
:1049D0002964616C6964A16CA964E16CE964216D6E
:1049E0002965616D6965A16DA965E16DE965216E56
:1049F0002966616E6966A16EA966E16EE966216F3E
:104A00002967616F6967A16FA967E16FE96780F343
:104A1000108800F0FFF9396811F4403F0AD000F522
:104A20007A7400BF00F0F6F9A0420FD2386810F493
:104A3000403FF7D1386842F2FA01014008D0D8F877
:104A400004000843C8F80400012007E0032006E042
:104A50003868C0074FF0000001D001213960B96803
:104A6000B143B960002188F8001001B0BDE8F083BF
:104A700042F20800C4F20200016AB1F1FF3FC4BF74
:104A80000020704740F22311C4F26751016048F6DC
:104A9000AB11CCF6EF510160006AC00F7047000007
:104AA000002804BF01207047B0B5044690F83100DB
:104AB00028B9002084F83000204600F039F80020A2
:104AC00020216060E060208284F83310C4E9050092
:104AD0002062A08384F8321000F09CF9216805461A
:104AE0000A6942F48030086120680069C00315D566
:104AF00000F090F9401BB0F5FA7FF5D9606BA0216A
:104B000040F080006063606B40F010006063012043
:104B100084F83110002184F83010B0BD002020212D
:104B20006063606384F83110002184F83010B0BDF8
:104B3000006841F20041C4F20201884218BF704788
:104B400081B040F68840C4F20260016841F004017F
:104B50000160006800F004000090009801B0704708
:104B600070470000B0B542F20C05C4F20265296836
:104B70000446014203D020462C6000F00BF8686820
:104B8000204208BFB0BD20466C60BDE8B040FFF7D2
:104B9000E7BF0000704700002DE9F04F82B00F68BA
:104BA000002F00F01F81804647F67F70C0F22F0073
:104BB00000EA9820002200234FF00109002600257A
:104BC000C4F20262C4464FF0000A009013E000BF36
:104BD000C8464FF001090022C4F202620F680AF1D0
:104BE000010A37FA0AF005F1020506F1040603F19D
:104BF000080300F0F78009FA0AF417EA0400EDD080
:104C00009045019026D0D1F804E04EF01002122A0F
:104C10005CD16FF0030000EA5A0206F01C04424423
:104C20000F20D2F820E000FA04F708692EEA0707FF
:104C300000F00F00A04038431062DCF800000322AF
:104C4000D1F804E0AA4090430EF00302AA401043BA
:104C500045E000BF10684F68A04307F001074EF21F
:104C6000C00407FA0AF7C0F60004384304EBCA0789
:104C70001060D7F804B06FF0030054F83AC000EAAF
:104C80005B071C20674400EA8B04D7F820E00F2064
:104C900000FA04F20B202EEA020200FA04F4224386
:104CA0003A62DCF800204FEA4B07032000FA07F4D1
:104CB0000220A24300FA07F73A43CCF80020D1F8CB
:104CC00004E0BEF1120F10D93EE000BFDCF8000096
:104CD0000322AA4090430EF00302AA401043D34699
:104CE000CCF80000BEF1120F2ED809FA0EF010F029
:104CF000061F25D04FEA4B070322C146DCF8080007
:104D000002FA07F8CA6820EA0800BA401043CCF853
:104D100008000124DCF8040004FA0BF290434FEA87
:104D20001E1202FA0BF21043BEF1030FCCF804007E
:104D30003FF44EAF6FEA0804C8464FF0010908E09F
:104D4000BEF1030F3FF447AF4FEA4B070320B840D3
:104D5000C443DCF80C008A682040BA4010435FEA84
:104D6000CE02CCF80C007FF536AF42F2000E2AF0EE
:104D70000300C4F2026E7044026E03F018070F24A1
:104D8000BC40A243009C04FA07F73A430266DEF8EF
:104D900000B001984A684BEA0007D40258BF2BEADA
:104DA0000007CEF80070DEF804B094024BEA00076A
:104DB00058BF2BEA0007CEF80470DEF884B09403E5
:104DC0004BEA000758BF2BEA0007CEF88470DEF8E4
:104DD0008040D20344EA000758BF24EA0007CEF817
:104DE0008070F8E602B0BDE8F08F0000006908406E
:104DF00018BF0120704700001823002A08BF28238D
:104E0000C150704744F20000CEF204000068000C6C
:104E10007047000041F2D850C2F2000000687047AD
:104E200040F20041C4F203010A68D2071CBF01200E
:104E300070470A6822F0040210430860002070479F
:104E4000B0B540F20045C4F203050220E8602868CE
:104E500020F001002860FFF7DDFF2968C90701D1B4
:104E60000020B0BD044607E02868C0071CBF03202F
:104E7000B0BD2868C007F3D0FFF7CCFF001B0228A5
:104E8000F2D2F6E740F20041C4F20301086840F0B4
:104E9000010200200A60704740F20C01C2F20001DA
:104EA0000878002804BF0120087041F2D851C2F2EE
:104EB00000010A68104408607047000080B542F2A3
:104EC0000000C4F20200016841F480710160032017
:104ED00000F056FB02F08AF840F62041C4F202616D
:104EE00009684EF2A80201F00F01C0F60002515C01
:104EF000C84040F21401C2F2000108600F2000F027
:104F000009F800281CBF012080BD00F0E9FA00204C
:104F100080BD0000B0B588B040F6A441C4F2026183
:104F20000A68044642F400620A60096802A801F4B3
:104F300000610291029901A901F0BCFF02F016F88C
:104F40004DF68361C4F21B31A0FB01014FF0FF302D
:104F500000EB914141F2F82042F60043C2F200001A
:104F600040F2E732C4F201030025C0E90031C0E994
:104F70000252056103F026FC0546B0B941F2F82063
:104F8000C2F2000003F0EEFC054670B90F2C0BD8FE
:104F90002A2021460022002500F0C6FA40F2100027
:104FA000C2F20000046000E001252A2000F0AAFA05
:104FB000284608B0B0BD00007047000070470000F0
:104FC0007047000070470000022180F84A104168D5
:104FD000012903D1D0F800C00CE000BF816AD0F8ED
:104FE00000C0B1F5000F05D1DCF80C1021F46061B0
:104FF000CCF80C10DCF8101041F2597241F00101AC
:10500000CCF810104FF08071CCF80410DCF80810C8
:10501000CDF2B71241F4C971CCF8081040F2140176
:10502000C2F200010968A1FB0212910B4FF47A72DF
:1050300001FB02F10022C1F10403DCF80010C901F8
:1050400013D4DCF80010C9015CBFDCF800105FEA83
:10505000C1110AD4002B08BF0322DCF8001023B1D1
:1050600011F0807103F10403E7D0D1B2032904BF2A
:1050700003207047DCF8101041F00401CCF8101048
:10508000012180F84A10002070470000704700009E
:1050900070470000704700007047000010B50168BD
:1050A00004460868C0071CBF88685FEAC07063D107
:1050B0000868800544BF88685FEA805068D4086843
:1050C000C00444BF88685FEAC0406FD408688004A9
:1050D00044BF88685FEA804076D40868800744BF90
:1050E00088685FEA807000F17D800868400744BFEF
:1050F00088685FEA407000F17D800868000744BF5F
:1051000088685FEA007000F17D800868000344BF92
:1051100088685FEA003000F17F800868C00644BFFD
:1051200088685FEAC06000F183800868800644BF39
:1051300088685FEA806000F183800868400644BFA9
:1051400088685FEA406000F183800868000644BF19
:1051500088685FEA006000F183800868C00546BF88
:1051600088685FEAC05010BD4FF4807220464A60E4
:10517000BDE8104000F0AEB90120486084F8380066
:10518000C86AC00774D12046FFF71AFF73E000BF5A
:105190004FF400704860022084F83800C86AC003E9
:1051A0006ED42046FFF70CFF6DE000BF4FF4805037
:1051B0004860012084F838002046FFF76DFF216821
:1051C000002084F8380081E74FF400504860022046
:1051D00084F838002046FFF75FFF2168002084F83C
:1051E00038007AE7022048602046FFF7E5FE216894
:1051F0007BE700BF04204860204600F06DF921687D
:105200007BE700BF08204860012084F83800204672
:10521000FFF7D8FE216878E74FF4002048600220AD
:1052200084F838002046FFF7CDFE216875E700BFFF
:10523000102048602046FFF7C1FE216875E700BFD7
:10524000202048602046FFF723FF216875E700BF54
:10525000402048602046FFF719FF216875E700BF2E
:1052600080204860204600F039F9216875E700BFCA
:105270002046FFF70FFF2168002084F8380017E769
:105280002046FFF707FF2168002084F8380016E762
:10529000002804BF01207047F0B581B0054690F8A2
:1052A0004A0028B9002085F84900284600F0DAF8BD
:1052B000022085F84A002868696B026942F0010201
:1052C00002614FF480724260816240F21401C2F2C6
:1052D0000001096841F25972CDF2B712A1FB021226
:1052E000910B4FF47A7201FB02F10022C1F104012B
:1052F0000B460468E40510D40468E4055CBF046848
:105300005FEAC45409D4002B08BF0322046823B108
:1053100014F4807403F10403EBD0D2B2032A03D156
:10532000032001B0F0BD00BF102242602A6A8261F2
:1053300000220368DB0610D40368DB065CBF036849
:105340005FEAC36309D4002908BF0322036821B1BF
:1053500013F0100301F10401EBD0D1B2032903D102
:10536000032001B0F0BD00BFC16A89075CBFC16AFC
:105370005FEA813170D5C3686968D5F828C0012912
:1053800004D0BCF5000F03D14FF4000C23F01E0332
:10539000D5F814E04FF6FF76AC686A6A41F23E1722
:1053A000B6454FF2FE16CFF6397718BF3B40CFF621
:1053B0003976334022431A430A43002942EA0C0358
:1053C00042D0012902D0BCF5000F04D1D5E9031267
:1053D000194341EA02034FF6FF718E4505D0D5E926
:1053E0000612114341EA0E010B4344F2FF71C4F26D
:1053F00000618842C3600FDC49F20041C4F2000141
:10540000884205D044F20041C4F20061884211D1C3
:10541000D5E90B1211430CE044F60001C4F200611F
:10542000884205D044F60041C4F20061884201D1AF
:10543000E96A4162012085F84B0085F84C0085F847
:105440004A00002001B0F0BD2969EA6911430B430D
:10545000BCF5000FBAD0BEE7016921F0010101617E
:1054600089E7000010B5B4B0044602A80830C02196
:10547000FAF736FF206844F20041C4F20061884226
:1054800002D034B010BD00BF002003904FF4007074
:1054900002904FF48060209002A801F061F800288B
:1054A00018BFFCF79BFB40F6A840C4F202600168FD
:1054B000002241F40061016000680E2100F40060E8
:1054C00001900198432000F02FF8432000F01AF8D3
:1054D00034B010BD704700007047000070470000F6
:1054E00081B040F69440C4F20260016841F00401CA
:1054F0000160006800F004000090009801B000F026
:1055000025B90000002848BF70471C2200F01F0189
:1055100002EAD000012202FA01F14EF20012CEF2AC
:10552000000281507047000010B54EF60C5CCEF2C0
:10553000000CDCF80030C3F3022E8EF00704042CBC
:1055400028BF0424BEF103034FF0FF3E38BF002301
:105550000EFA04F4A14399400EFA03F39A4311435F
:1055600000F00F0200F160430901043A03F56443BF
:105570006244002848BF02F10C03197010BD0000FE
:105580004EF60C51CEF200010A684FF6FF031A40A6
:1055900060F30A2242F0806040F0FD7008607047BE
:1055A00040F21401C2F200010A6841F25973CDF2CF
:1055B000B71340F63C01C4F20261A2FB032351F889
:1055C000342C00284FEA93301CD042F00202023003
:1055D00041F8342C0A68920732D4012830D00A6886
:1055E00092072FD402282DD00A6892072CD40328C2
:1055F0002AD00A689207A0F1040226D40428104693
:10560000E8D122E022F00202023041F8342C00BF3F
:105610000A68920714D5012812D00A68920711D59A
:1056200002280FD00A6892070ED503280CD00A680A
:105630009207A0F1040208D504281046E8D104E03E
:10564000421E02E0821E00E0C21E0020002A08BFA7
:105650000320704740F60C0CC4F2026CDCF83020DA
:1056600002F4403282425FD0DCF80020B0F5803F87
:1056700022F4E02242EA000240F2140088BF42F421
:105680008022CCF80020C2F20000006841F259727A
:10569000CDF2B712A0FB0202900B0346DCF800101B
:1056A000B3F1FF3218BF012209041ED4591C1CD0CB
:1056B000DCF80010002B1A4618BF0122090414D48C
:1056C0009BB1DCF800105A1E18BF012209040CD44B
:1056D000012B0AD0DCF800109A1E18BF0122090421
:1056E00003D4022BA3F10403D8D112B3DCF8301099
:1056F000421C090416D4AAB1DCF83010090412D4F3
:1057000088B1DCF83010090410D401280ED0DCF880
:105710003010021F090402D402281046E6D1901C62
:1057200010B906E0104620B100207047013800286B
:10573000FAD103207047000040F62C00C4F202604A
:10574000016841F0010101607047000040F610005F
:10575000C4F20260016841F08041016070470000BE
:1057600040F61000C4F20260016841F0005101608F
:105770007047000040F63C00C4F20260006800F48C
:105780004030704740F62800C4F20260016841F0E2
:105790000101016070470000B0B540F6284EC4F228
:1057A000026EDEF80C50DEF80030DEF80010DEF895
:1057B0000020DEF8104002F01002C4F3CC04C1F364
:1057C000032104FB02F203F0030300EE102A6FF33F
:1057D0005F25B8EE400A012B01F1010C66D0032BC6
:1057E00018BF022B62D101EE10CADEF80C10B8EE21
:1057F000411A9FED4D2A6FF35F2182EE011A02EEEE
:10580000101A9FED4A3AB8EE422A20EE030A30EE13
:10581000020AB7EE002A30EE022ADEF8001021EE6E
:10582000020AC90371D5DEF80C10B7EE002AC1F3E5
:10583000462101EE101AB8EE411A31EE021A80EE3E
:10584000011ABCEEC11A11EE102A0260DEF8001037
:10585000890360D5DEF80C10B7EE002AC1F30641CB
:1058600001EE101AB8EE411A31EE021A80EE011A5A
:10587000BCEEC11A11EE102A4260DEF80010490396
:105880004FD5DEF80C10B7EE002AC1F3066101EE29
:10589000101AB8EE411A31EE021A80EE010ABCEE7F
:1058A000C00A10EE101A8160B0BD00BF5EF8201C67
:1058B000090203D4DEF8CC100B0401E05EF8203CB2
:1058C0004EF24012190FC0F6000202EB810102EE07
:1058D00010CA91ED001AB8EE422AB8EE411A9FEDB7
:1058E000133A81EE022A01EE105A20EE030AB8EEB6
:1058F000411A30EE010AB7EE001A30EE011ADEF856
:10590000001021EE020AC9038DD400220260DEF8E5
:10591000001089039ED400224260DEF80010490383
:10592000AFD400218160B0BD0024744B0000003969
:10593000B0B540F62C4EC4F2026EDEF81050DEF820
:105940000030DEF80010DEF80020DEF8144002F02F
:105950001002C4F3CC04C1F3032104FB02F203F0F0
:10596000030300EE102A6FF35F25B8EE400A012B07
:1059700001F1010C66D0032B18BF022B62D101EE9E
:1059800010CADEF81010B8EE411A9FED4D2A6FF3E1
:105990005F2182EE011A02EE101A9FED4A3AB8EE2C
:1059A000422A20EE030A30EE020AB7EE002A30EE59
:1059B000022ADEF8001021EE020AC90371D5DEF8D2
:1059C0001010B7EE002AC1F3462101EE101AB8EE0E
:1059D000411A31EE021A80EE011ABCEEC11A11EE24
:1059E000102A0260DEF80010890360D5DEF810107E
:1059F000B7EE002AC1F3064101EE101AB8EE411AC3
:105A000031EE021A80EE011ABCEEC11A11EE102A14
:105A10004260DEF8001049034FD5DEF81010B7EEF3
:105A2000002AC1F3066101EE101AB8EE411A31EEF8
:105A3000021A80EE010ABCEEC00A10EE101A816054
:105A4000B0BD00BF5EF8241C090203D4DEF8C81004
:105A50000B0401E05EF8243C4EF24012190FC0F630
:105A6000000202EB810102EE10CA91ED001AB8EEBD
:105A7000422AB8EE411A9FED133A81EE022A01EE56
:105A8000105A20EE030AB8EE411A30EE010AB7EEC2
:105A9000001A30EE011ADEF8001021EE020AC903E6
:105AA0008DD400220260DEF8001089039ED400220B
:105AB0004260DEF800104903AFD400218160B0BD20
:105AC0000024744B00000039B0B540F6304EC4F2EB
:105AD000026EDEF81450DEF80030DEF80010DEF85A
