:020000040800F2
:1000000060200020AD03000875D800087DCC0008F2
:1000100039D700085D26000829F70008BF0300084B
:1000200000000000000000000000000055DF000894
:100030005D2E000800000000CDDC000859DF00083C
:10004000C9030008C903000849DF0008C903000804
:10005000C9030008C9030008C9030008C903000850
:10006000C9030008C9030008C9030008C903000840
:10007000C9030008C9030008C9030008C903000830
:10008000C9030008C9030008C9030008612E00085D
:10009000C9030008C9030008C9030008C903000810
:1000A000C9030008C9030008C9030008C903000800
:1000B00000000000C90300088D2F0008992F0008D8
:1000C000A52F0008B12F0008BD2F0008C9030008A4
:1000D000C9030008C9030008C9030008C9030008D0
:1000E000C9030008C903000859E00008C903000853
:1000F000C9030008C903000865E0000871E00008B2
:100100007DE00008C9030008C9030008C90300080E
:10011000C9030008C9030008C9030008C90300088F
:10012000C9030008C9030008C9030008C90300087F
:10013000C9030008C9030008E9F20008C903000860
:10014000C9030008C9030008C9030008C90300085F
:10015000C9030008C9030008C9030008C90300084F
:10016000C9030008C9030008C9030008C90300083F
:10017000C9030008C9030008C9030008C90300082F
:10018000C9030008C9030008C9030008C90300081F
:10019000C9030008C9030008C9030008C90300080F
:1001A000C9030008C9030008C9030008C9030008FF
:1001B000C903000800000000C9030008C9030008C3
:1001C000C903000800000000C9030008C9030008B3
:1001D000C9030008C9030008C9030008C9030008CF
:1001E000C9030008C9030008C9030008C9030008BF
:1001F0000000000000000000C9030008C903000857
:10020000C9030008C51D0008C9030008C903000888
:10021000C9030008C9030008C9030008C90300088E
:10022000C9030008C9030008C9030008C90300087E
:10023000C903000800F002F800F0A8F814A696E838
:10024000000CB244B344DA4501D100F09FF8BAE89B
:100250000F000FA696E83000A5EB040504EB060797
:10026000AAEB0704A7F101074FEA15154FEA34146A
:10027000A4F10104AC4201D300F088F813F0010F9F
:1002800018BFFB1A43F0010300F001F8DBE7184741
:100290007C0D01009C0D0100103A24BF78C878C184
:1002A000FAD8520724BF30C830C144BF04680C607C
:1002B000704700007047000000230024002500263E
:1002C000103A28BF78C1FBD8520728BF30C148BFB9
:1002D0000B6070476E2900F05F83702900F0A384E3
:1002E000662910F03C84652910F03984672910F0E4
:1002F0003684612910F0358403681B0A28BF41F059
:100300008001692900F00C83642900F009837529B4
:1003100000F006836F2900F03184782900F06F84A3
:10032000E92900F0CB83E42900F0C883F52900F027
:10033000C583EF2900F02E84F82900F06E8403684D
:10034000DB0928BF41F08001632901F0E3817329B3
:1003500001F0E881E32901F0F381F32901F0F8814C
:10036000002070471FB510F06DFB01F023FC040066
:100370000020002110F030F8401C606000200021B7
:1003800010F014F8E0601FBD10B510BD01F0E4FBE3
:100390001146FFF7E7FF0FF019FA01F0C1FC03B4B3
:1003A000FFF7F2FF03BC01F005FD00000A4880479B
:1003B0000A480047FEE7FEE7FEE7FEE7FEE7FEE746
:1003C000FEE7FEE7FEE7FEE7FEE70000044805491A
:1003D000054A064B704700000DE000083502000892
:1003E000601A002060200020601C0020601C00209B
:1003F00053EA020C00F069802DE9F04B4FF0000643
:10040000002B1FBFB3FA83F503FA05F424FA05F6AF
:100410005E4012BF1643B2FA82F502FA05F4C5F146
:1004200020051EBF22FA05FC44EA0C04203556EADA
:10043000044C4FEA144418BF641C4FF000084FF0FE
:100440000009904271EB030C39D3002919BFB1FAAE
:1004500081F701FA07F6B0FA80F700FA07F6C7F15C
:1004600020071EBF20FA07FC46EA0C062037B6FB21
:10047000F4FCA7EB0507103F07F01F0BCBF120069C
:100480002CFA06F60CFA0BFB44BFB3460026202FCD
:10049000A4BF5E464FF0000B5BEA060C08BF4FF0AE
:1004A000010B19EB0B0948EB0608ABFB027C06FBC2
:1004B00002CC0BFB03CCC01B71EB0C01C1E70B465C
:1004C000024641464846BDE8F08B13B5084318BFC5
:1004D0004FF0FF300146AFF30080BDE81C4070478D
:1004E0007CB51D4616460C00009007D04142A14243
:1004F00002D32044401E01E04FF0FF30064B7B4406
:100500002A4669460190304600F05FFA002C02D07E
:10051000009A002111707CBDEF0400000FB400B5FB
:100520008DB010A9099000910B904FF0FF300A9008
:1005300000200C90064878440690064878446A46A5
:1005400007900F9909A800F051FC0DB05DF814FB5D
:10055000D3080000EB0800002DE9FF5F1D464FF0B7
:10056000FF3B91464FF000085F46D5E90146A96977
:1005700001987F1C8847296A824688470028F6D15F
:10058000BAF1FF3F0CD0002E24F4C06419DD6006E0
:1005900014D5BAF12B0F09D0BAF12D0F0ED103E00B
:1005A000584604B0BDE8F09F44F48064A9690198FE
:1005B0007F1C8847761E8246002E02DDBAF1300F7E
:1005C00003D0B9F1000F26D032E0A969761E019858
:1005D0007F1C44F400748847002E824605DDBAF182
:1005E000780F06D0BAF1580F03D0B9F1000F10D030
:1005F0001EE0B9F1000F02D0B9F1100F18D1A969AE
:10060000761E01987F1C24F40074884782461020CF
:1006100002E0082000E00A20814609E0A96908FB01
:100620000908761E01987F1C44F4007488478246AE
:10063000002E05DD4946504600F0C4FB0028EDDAE7
:10064000E96901988847A00502D46FF00100A8E786
:10065000E00725D1600613D5600502D5C8F100007A
:1006600000E0404629680A1D2A600968220501D574
:10067000087015E0220701D5088011E008600FE03E
:100680002868011D29600068210502D580F80080D6
:1006900006E0210702D5A0F8008001E0C0F8008044
:1006A00038467EE7014A00F0D1BB00000000002080
:1006B000401ECAB210F8011F8A4202D00029F9D1A7
:1006C0000020704710B5431E13F8014F002CFBD1DA
:1006D00005E011F8014B002C03F8014B03D0521E2A
:1006E000F7D20021197010BD30B505460B462A46D9
:1006F00013F8014B12F8010B08B1A042F8D01CB15D
:10070000002802D06D1CF1E7284630BD10B5431C0F
:1007100002E010F8011B71B18107FAD14FF00132EC
:1007200002C88C1A8C4314EAC211F9D0C01A0A0606
:1007300003D0C01E10BDC01A10BD0A0401D0801E17
:1007400010BD0902FCD0401E10BD40EA010370B587
:100750009B072ED14FF00136042A2AD308C810C9AE
:100760009D1B9D43121F15EAC61517D0D8B2E1B2E2
:10077000401A50EA056110D198B2A1B2401A50EA6D
:1007800005410AD123F07F4024F07F41401A50EA0E
:10079000052102D1180EA0EB146070BDA342DBD07E
:1007A00018BA21BA884201D9012070BD4FF0FF303C
:1007B00070BD0AB9002070BD10F8013B11F8014B63
:1007C00063B1A3420AD1521E08D010F8013B11F8C0
:1007D000014B1BB1A34201D1521EEDD1181B70BDBC
:1007E00002F0FF0343EA032242EA024200F002B8A9
:1007F0004FF0000200B5134694469646203922BFBA
:10080000A0E80C50A0E80C50B1F12001BFF4F7AF04
:10081000090728BFA0E80C5048BF0CC05DF804EBE6
:10082000890028BF40F8042B08BF704748BF20F854
:10083000022B11F0804F18BF00F8012B7047704752
:100840007047704710B500F023FB006810BD10B56D
:10085000044600F01DFB046010BD70B504468569B8
:100860000068C10601D5302600E02026C00707D069
:1008700070BDD4E9012130469047206A401C2062B7
:100880006D1EF6D570BD70B5044685690078C00749
:1008900007D170BDD4E9012120209047206A401C77
:1008A00020626D1EF6D570BD09684A0501D540B2BB
:1008B0007047C905FCD500B2704709684A0501D5E3
:1008C000C0B27047C905FCD580B2704770B50C4600
:1008D0000546012A05D02878800600D5EA6900235C
:1008E00002E0012305E05B1C934202D2E05C002899
:1008F000F9D1A869E618C01AA861286A18442862C4
:100900002846FFF7AAFF04E0D5E9012114F8010BFE
:100910009047B442F8D32846FFF7B5FF70BD0000FA
:100920002DE9F0410646002410687529314616A5C8
:1009300010D0FFF7B9FF002802DA404213A507E004
:1009400031688A0701D512A502E0490704D511A52F
:10095000012401E0FFF7B1FF00210A2206F124077C
:1009600009E0B0FBF2FCB0FBF2F302FB1C003030FC
:1009700078541846491C0028F3D123462A463046AD
:10098000BDE8F04100F0D6BA000000002D000000E4
:100990002B0000002000000011680268006A530567
:1009A00001D508700AE0D30501D5088006E01306DA
:1009B00003D5C217C1E9000200E0086001207047BA
:1009C00001694A1C02610878704700B58FB0CDE913
:1009D00001310021059105497944CDE90310114603
:1009E000684600F02BF90FB000BD0000E5FFFFFFE7
:1009F000D1E900239A4202D2531C0B601070704759
:100A00002DE9FF5F15468A460446DFF8AC80F844BE
:100A10000027D8E900103E46CDE9001010E03AF872
:100A200016106A4602A801F051F8411C07D021783F
:100A3000890603D5E269391891420DD80744761C1E
:100A40002078800602D5E069B84205DDAE42E6DBDB
:100A50003AF816000028E2D1A069C01BA061204628
:100A6000FFF7FBFED8E90010CDE90010002017E0E9
:100A70003AF818106A4602A801F028F8B0F1FF3FD2
:100A800081460BD000250DF1080B05E0D4E90121CA
:100A90001BF8050090476D1C4D45F7D308F1010088
:100AA000B0428046E4DB206A384420622046FFF7EB
:100AB000EAFEBDE8FF9F0000560101002DE9F0416C
:100AC0008046D21D22F007020025D2E90002F52956
:100AD00015A614D0011E72F1000106DA0023D0EB36
:100AE000030063EB020211A608E0D8F800108B07A0
:100AF00001D50FA602E0490701D50EA60125114632
:100B0000002408F1240704E000F0C6F930323A5519
:100B1000641C50EA0102F7D12B463246214640467A
:100B2000BDE8F04100F006BA000000002D00000012
:100B30002B0000002000000030B4002100F124044C
:100B400008E002F00705D208303542EA4372DB08BC
:100B50006554491C52EA0305F3D10468002310A22E
:100B6000250708D504F020040C4304D0C4690123F0
:100B70000CA2641EC46130BC00F0DCB910B50446A0
:100B800021461068FFF799FE02462046BDE8104056
:100B90000023D1E7D21D22F00701D1E90023CBE7E2
:100BA0000000000030000000F0B40D460188090587
:100BB00002D5214C7C4402E01F4C7C440E340021C1
:100BC00000F1240608E002F00F071209E75D42EA8F
:100BD00003721B097754491C52EA0307F3D10278C8
:100BE0000023120704D5702D06D009B10223113459
:100BF0002246F0BC00F09EB901231034F8E770B52E
:100C000004460D4621461068FFF757FE0246294666
:100C10002046BDE870400023C6E7D21D22F007033E
:100C2000D3E90023C0E70368126843F020030360A0
:100C30000823C3610023B7E7B8FF00002DE9F05F88
:100C4000894604464FF0000ADFF874B1FB44C0F84F
:100C500020A02046E1688847002874D0252806D0C7
:100C6000D4E901219047206A401C2062F1E7002668
:100C70005F462046E16888472028054607DB312D7E
:100C800005D2781910F8200C08B10643F1E7B00737
:100C900001D526F00406C4F81CA00027C4F818A04B
:100CA0002A2D09D028460FF079FB38B304EB8708CA
:100CB000303DC8F8185019E059F8041B204604EBE1
:100CC00087029161E1688847012F054618D1E069E4
:100CD000002820DA26F020061DE0D8F8180000EBE6
:100CE000800005EB40003038C8F818002046E16865
:100CF000884705460FF052FB0028EED1012F0AD09D
:100D00002E2D08D12046E16888477F1C0546022F1A
:100D100046F02006C4DBA069002803DA404246F012
:100D20000106A061F00701D026F010066C2D0BD053
:100D3000682D09D04C2D39D06A2D35D0742D35D081
:100D40007A2D33D016E038E0E1682F4620468847F8
:100D5000B842054609D16C2F26D04FF48060E16877
:100D6000064320468847054604E06C2F1AD04FF40E
:100D7000807006430DB3A5F14100192802D8203533
:100D800046F400664A462946204626604E46FFF74E
:100D9000A1FA80B101280BD0F61D26F0070000F162
:100DA000080956E74020E4E78020D8E70020D6E78E
:100DB00006F104094DE7284652E7206ABDE8F09F96
:100DC00048FF00003A2800D2303820F02002412AA3
:100DD00001D3A2F13700884201D34FF0FF307047B2
:100DE000026811441378016018467047D1600549C4
:100DF000794451610449794411620021116111461D
:100E000000F0AABCEDFFFFFF29010000426842B1DB
:100E1000016811F8013B23B1521EC0E900121846C7
:100E200070470121C160881E704742685AB1C3688B
:100E3000016843B983688B4205D0491E521CC0E942
:100E40000012002070474FF0FF3070472DE9F0414D
:100E500015460E46040002D12C6804B90BA42046A6
:100E600000F068FE0444207870B1274631463846C9
:100E700000F050FE0444207810B1002004F8010B6B
:100E800038462C60BDE8F0810027F9E7000000003B
:100E9000004870473800002030B5B0F10A0271F107
:100EA00000034FEA900E4EEA817EB0EB0E0061EB3C
:100EB00091014FEA101E4EEA017E10EB0E0041EB4D
:100EC00011114FEA102E4EEA016E10EB0E0041EBAD
:100ED00011214FEA104E4EEA014E10EB0E0041EB8D
:100EE0001141401841F100014FEAD00040EA417041
:100EF0004FEAD1014FEA810444EA907410EB800577
:100F000044EB01046D1944EB0404521BA3414FF060
:100F1000000348BF0A3200D530BD401C41F100013A
:100F200030BD10B5044600F03DFE0068005D00F0E5
:100F3000010010BD2DE9F0470D4699469246044642
:100F400000F124080168880604D5E06921F0100149
:100F5000216000E00120A84201DD471B00E00027DE
:100F6000A1697A1902EB0900081AA0612078C0066D
:100F700002D42046FFF771FC002608E0D4E90121E5
:100F80001AF806009047206A401C761C20624E45E5
:100F9000F4DB2078C0060AD52046FFF75EFC06E0A9
:100FA000D4E9012130209047206A401C2062381E7D
:100FB000A7F10107F4DC07E0D4E9012118F80500E6
:100FC0009047206A401C2062281EA5F10105F3DC31
:100FD0002046FFF758FC2078000602D50220BDE825
:100FE000F0870120FBE72DE9FF4F0C461E464FF02E
:100FF000FF378BB0D2E90001DDF860800A908A46A5
:10100000C1F30A5505B93D46002108464FF00000DE
:10101000BAF1000F00F4400005DA00EB80004FF455
:10102000400101EA50004FEA9059B9F1010F00DD8B
:10103000B9460A9850EA4A000ED044F61050A5F27C
:10104000FF3545432F14B8F1000F1ED07542291EFD
:101050001EDDC9F100021CE0B8F1010F4FF00000E5
:1010600001D0302103E0F24305E02154401CB0429E
:10107000FBDB30460022002121540B99C1F8088087
:10108000C1E900200FB0BDE8F08FBD1B6D1CDEE78D
:101090004A4600DA694206A800F0D0FD06AB93E8A4
:1010A000070003AB83E8070050460A990EF036FDAF
:1010B0008DE80700A0F500501F3800900398002D20
:1010C0000ADD42F21F014A460844002303A90390A7
:1010D00068460EF09FFF09E0A0F500504A461F3811
:1010E000002303A9039068460EF0A9FF8DE80700CE
:1010F0000004000C03D04FF0FF30410800E0104620
:10110000B8F1000F03D00022009215461EE0751EB4
:1011100005D4FFF7C1FE303262556D1EF9D5B346D6
:101120000122084302D000227F1C04E020783028EE
:1011300001D100227F1E002A099784D01DE0112DC5
:1011400007DAFFF7A9FE303262556D1C50EA010242
:10115000F5D1084302D00098C8B10EE00021681E06
:1011600005E0235C625C63542254401E491C8142AA
:10117000F7DBAB46A81B401E0990002004F80B00CB
:101180000B98099AC0F80880C0E9002B7AE711266D
:101190004FF0000857E72DE9F04F88460446D21D6E
:1011A00022F0070191B0D1E90001CDE90A010FF069
:1011B0007DF802460B98C00F01D02D2007E0206873
:1011C000810701D52B2002E0202101EAC000032A7B
:1011D000099001D0072A05DB03464146204600F06E
:1011E000EDFC0BE12078800601D5E06900E00620E7
:1011F000B8F1650F814606D0B8F1660F18D0B8F186
:10120000670F70D131E00020B9F1110F009001DBC0
:10121000112301E009F101030AAA01A90CA8FFF7B3
:10122000E2FEDDE90C70002609F10105834647E086
:1012300001204B4600904FF000470AAA01A90CA8D4
:10124000FFF7D1FEDDE90DB00C995D46002610B91F
:1012500009F101000D18B9EB050003D4C0F1FF3608
:1012600009F10105A5EB09002BE0B9F1010F01DA45
:101270004FF001090020B9F1110F0090484601DD3F
:10128000112300E003460AAA01A90CA8FFF7ABFE50
:10129000DDE90C704D4600268346207800070AD40D
:1012A000AB4500DA5D4601A8012D04DD411911F8B6
:1012B000011C302907D04F4502DA17F1040F04DA78
:1012C000012082460FE06D1EEEE7002F02DCED1BD1
:1012D0003E4403E0781CA84200DD7D1CB81B00F1F1
:1012E000010A4FF000472078000703D4AA4501DB2C
:1012F0004FF0FF3A0021B7F1004F0DF143088DF890
:10130000431024D002202B23002F01DA7F422D230B
:101310000A21021EA0F1010000DC5FB197FBF1FC85
:1013200097FBF1F201FB1C7C17460CF1300C08F81E
:1013300001CDEEE7A8F1010003702188090501D570
:10134000452100E06521A0F1010800F8011C099881
:101350000FA9A1EB0807FF1D00B10120411901EB06
:10136000EA70A1693844081A401EA0612078C006BE
:1013700002D42046FFF771FA099828B1D4E9012177
:101380009047206A401C20622078C00622D5204663
:10139000FFF763FA1EE0002E04DBB34502DD01A86F
:1013A000805D00E03020D4E901219047206A401C94
:1013B0002062761CAAF101005FEA000A0AD100F05F
:1013C000F9FBC0680168405CD4E901219047206ABC
:1013D000401C2062281EA5F10105DCDC07E0D4E9F1
:1013E000012118F8010B9047206A401C2062381E2A
:1013F000A7F10107F3DC2046FFF745FA032011B0FF
:1014000041E600002DE9F04F04460D46D21D22F0C2
:10141000070089B0D0E90097484639460EF046FFEC
:101420000246F80F01D02D2307E02068810701D57F
:101430002B2302E0202101EAC0038DF820300BB1FC
:10144000012000E00020032A824601D0072A04DBA5
:101450002946204600F0B2FB3FE12078800601D407
:101460000D2500E0E569C7F30A560D2D49DA002184
:101470004FEA175B08464FF00000002F00F44000D1
:1014800007DA00EB80004FF4400100EBD07001EA76
:1014900060008115012901DD4FF0FF3100224FEA84
:1014A000850CBCF1180F06D31346ACF118004FF0B1
:1014B0008052C24003E04FF4801323FA0CF30CF186
:1014C0000C0CBCF1200F04D3ACF1200C09FA0CF089
:1014D00001E007FA0CF000294FF0004801DD18B9CF
:1014E0000FE00ED140450CD319EB02095F4121B941
:1014F000404502D19F4329EA0209BBEB175F00D0A8
:10150000761C2088000502D57B48784402E07A48A2
:101510007844193808AA302302F80A30037C0AF10B
:101520000101002E0AF1020A53546A4602DC4FF010
:10153000300101E04FF031014FF001088DF800104B
:1015400002D0A6F2FF3603E059EA470100D06B4E05
:10155000002D02DC2178090704D54FF002082E2166
:101560008DF80110C44600210BE0C7F303433F018F
:10157000C35C491C6D1E02F80830052908F10108FA
:1015800001DA002DF1DC00210CE000EB1973491C9D
:101590001B786D1E082902F808304FEA091908F176
:1015A000010801DA002DF0DC21688B0602D516E077
:1015B000A8F10108E04505DD02EB080313F8013C42
:1015C000302BF5D0B8F1000F09DD02EB080313F85A
:1015D000013C2E2B03D1090701D4A8F10108002DED
:1015E00005DD3E2102F808106D1E08F10108407C5F
:1015F000002E02F8080008F1010804DA2D207642D6
:1016000002F8080002E02B2002F808000A214FF43B
:101610007A70864208F101080BDB96FBF0F3303359
:1016200002F8083096FBF0F308F1010800FB13669E
:1016300001E0642E0CDB642096FBF0F3303302F8FB
:10164000083096FBF0F308F1010800FB136601E097
:101650000A2E06DB96FBF1F0303002F8080008F1A4
:10166000010896FBF1F001FB1060303002F8080031
:10167000A16908F1010808EB050202EB0A00081A4B
:10168000A0612078C00602D42046FFF7E6F8216A60
:1016900008AE01EB0A00206204E0D4E9012116F84B
:1016A000010B9047BAF1010AF7D22078C00602D5A3
:1016B0002046FFF7D2F86E4609E016F8010B3E28E7
:1016C0000FD0D4E901219047206A401C2062B8F174
:1016D0000108F2D22046FFF7D6F809B00320BDE892
:1016E000F08F206A2844206203E0D4E901213020F1
:1016F00090476D1EEBD3F8E7AEF6000002FCFFFF4B
:1017000010B5436913B1AFF3008001E0FFF7DEF8D5
:10171000012010BD127800F124010A7000224A70E5
:101720000122EDE711684FF0FF32E9E710B5436998
:1017300013B1AFF3008001E0FFF762F9012010BDA3
:10174000128800F1240182840022C2840122EDE784
:1017500011684FF0FF32E9E72DE9F34F4FF0000A2F
:101760000C4656468DB001200C9001F10C000B90F8
:1017700062690B9801219047051E2DD0252D2CD094
:10178000216A8847C0B162690B9801219047216A9C
:1017900088470028F7D16269411E0B98904700E006
:1017A000761CA1690D988847216A88470028F7D1DF
:1017B000E1690D988847DBE7A1690D988847A84241
:1017C000074601D1761CD3E7E1690D9888477F1C55
:1017D00002D1BAF1000F6FD06BE162690B9800275C
:1017E0003D46394690472A2804D162690B98012169
:1017F00090470125DFF8D08262690B98012190475C
:10180000A0F130010A290AD24745E5DC07EB870140
:1018100000EB4107303FDFD445F01005ECE7E90667
:1018200001D46FF000476C280AD04C2814D06828E7
:1018300015D06A280DD074281CD07A281AD01DE043
:1018400062690B98012190476C2802D045F004058D
:1018500014E045F002050DE045F020050AE062695C
:101860000B9801219047682802D045F0080505E053
:1018700045F4006562690B9801219047C4E901575E
:1018800065283DD019DC58287AD00CDC452837D0A3
:1018900004DC252826D041289ED131E046282FD0CF
:1018A000472899D12CE05B2877D0612828D063287D
:1018B0007CD0642823D15AE0F6E06F2848D008DCB9
:1018C00066281DD067281BD0692821D06E2816D124
:1018D00027E0702845D0732868D0752847D078282D
:1018E0000DD14DE0A1690D988847252805463FF4A4
:1018F00069AFE1690D9888476D1C3FF46AAFD8E085
:101900000D9923466A466FF00100AFF30080C5E0F1
:1019100045F0400023464FF000026060A80736D42F
:101920003EE0E8077FF447AF2068011D21600068B2
:10193000290501D506701BE7290701D5068017E7A1
:10194000A90703D5F117C0E9006111E706600FE7A9
:1019500045F0400023464FF008026060A80716D407
:101960001EE040F60E0125EA0100606016E045F039
:10197000400023464FF00A026060A80707D40FE03A
:1019800045F040006060A80708D5234610220D9955
:101990006FF00100AFF3008080E007E010222346E3
:1019A0000D996FF00100FEF7D7FD77E04FF00009C9
:1019B00063284F46C8464B46CB4602D05B2806D02C
:1019C00038E0E80601D40120A060012732E0626916
:1019D000D4F80CB00B98012190475E2807D14FF046
:1019E000010949466269D4F80CB00B989047216907
:1019F00039B900210A4603AB43F82120491C0829C4
:101A0000FADBD8B3216949B308F1010862690B9880
:101A1000012190475D28F4D1B9F1000F09D00020D1
:101A200003A951F82020D24341F82020401C082867
:101A3000F7DB03AB2069002820794FEA40701ED005
:101A40005B462246CDF80080CDE901970D9900282C
:101A50006FF0010020DAAFF300801FE0C11703AA86
:101A600000EBD1614B1121F01F0102EB8302411AFF
:101A700013680120884003431360C7E719E00D99FC
:101A8000224600286FF00100009702DAAFF30080D1
:101A900004E0AFF3008001E0AFF3008000280ADA31
:101AA000401C06D10C9820B14FF0FF300FB0BDE8BC
:101AB000F08F5046FAE7E90701D10AF1010A06441E
:101AC00000200C9054E60000CCCCCC0C2DE9F04169
:101AD00016460C46054600F065F8036893F80101C8
:101AE000012807D0FF2C12D8185D80B101202C707E
:101AF000BDE8F081D3F807013246214603F207130F
:101B0000C7182846BC46BDE8F041002360474FF0A7
:101B1000FF30EDE730B503461D781DB10A4603E0FE
:101B2000AC4201D1181A30BD12F8014B002CF7D18C
:101B30005B1CF1E730B503461D783DB10A4612F84B
:101B4000014B1CB1AC42FAD15B1CF5E7181A30BD51
:101B500000487047380000207546FFF7F9FFAE4691
:101B600005006946534620F00700854618B020B5A9
:101B7000FEF72CFCBDE820404FF000064FF00007B8
:101B80004FF000084FF0000BAC46ACE8C009ACE8E1
:101B9000C009ACE8C009ACE8C00921F007018D46D6
:101BA0007047000010B500F005F8001D10BD00BF23
:101BB00029E8000000487047580000202DE9F04156
:101BC0001F46044603260168072A01F4006004DB6F
:101BD00008B116A505E016A503E008B115A500E0BB
:101BE00015A521F010002060A069C01EA0610FB1F2
:101BF000401EA0612046FEF730FE4FB1D4E901211E
:101C000038469047206A401C2062C01C206206E0D3
:101C1000206AFAE7D4E9012115F8010B9047761EF6
:101C2000F8D22046FEF72FFEBDE8F0814E414E006F
:101C30006E616E00494E4600696E66002DE9F04700
:101C4000814616468AB0354878440DC88DE80D00A7
:101C500032487844801C03AC0DC884E80D0041F67E
:101C60009B300844372190FBF1F290FBF1F5A5F190
:101C7000800501FB12041B3C02D56442012000E0F8
:101C80000020DFF898A080460027FA44AAF1BE0A97
:101C90000EE0E0070AD03246684607EB4701012311
:101CA0000AEB81010EF0CBF98DE8070064107F1C70
:101CB000002CEED1194F7F44AE3F19E0E80715D054
:101CC00007EB04100DF1180A90E80E008AE80E00E8
:101CD000C068F04201D1981908903246012306A944
:101CE00003A80EF0ACF903AB83E807006D10641C89
:101CF000002DE3D14FF0010332466946B8F1000FE1
:101D000003A802D00EF086F901E00EF098F9C9E9B7
:101D10000001C9F808200AB0BDE8F08700F0000013
:101D200010B50446AFF300802046BDE81040FEF732
:101D300036BB00000000000030B44FF0013C50F80A
:101D4000042B51F8043BCCFA52F4D51A20D1FCB93B
:101D500050F8042B51F8043BCCFA52F4D51A17D1A1
:101D6000B4B950F8042B51F8043BCCFA52F4D51A0C
:101D70000ED16CB950F8042B51F8043BCCFA52F454
:101D8000D51A05D1002CDAD030BC4FF000007047D6
:101D900029BAB1FA81F111F01801D1F12000844083
:101DA000F2D1CA40CB4012F0FF0213F0FF0330BC67
:101DB000D01A704701491820ABBEFEE7260002008A
:101DC0007047000041F29430C2F2000002F03EBEC3
:101DD0000146C06D836F826F13F0500F08D0D2069A
:101DE00048BF02F031BE006F826E0846104700BF48
:101DF00042F40071816701680B68CA681B0703D44D
:101E0000910707D002F01CBE12F4406FFAD1C968E6
:101E10008904F7D4816F21F480718167816FC904CF
:101E200048BF02F00DBE816F41F00101816702F0F1
:101E300007BE0000C06D816F41F040018167C16F36
:101E400041F00401C16702F0FFBD0000C06D02F067
:101E5000F9BD0000B0B5016804468A688868C0070B
:101E60004FF0000033D012F0020218BFB0BD8868F6
:101E700000F00D00012821D188684FF6C072C7F626
:101E8000FF721040023088600320086004F00CFFED
:101E900021688968C90704BF0020B0BD054604E079
:101EA0008068C00704BF0020B0BD04F0FDFE411BE8
:101EB00020680329F4D38168C907F1D0A06F40F0EE
:101EC0001000A067E06F40F00100E0670120B0BDA6
:101ED00070B5044600688168C90741D14FF6C076E5
:101EE000C7F6FF76816806F17F0211420AD0A06F23
:101EF00040F01000A067E06F40F00100E0670120B3
:101F000070BD00BF816841F200023140C4F202623C
:101F100041F001019042816001D1206A00BB04F0D0
:101F2000C3FE21680A68D2071AD1054605E000BF42
:101F30000868C0071CBF002070BD8868C00704D1B6
:101F40008868304040F00100886004F0ADFE401B1E
:101F500021680328ECD30868C007E9D1C7E700BFB0
:101F6000002070BD2DE9F04F95B042F2000940F21B
:101F7000C004C0F60809C2F2000404F10800494692
:101F800000F0F0FF207A40F25C16C2F200066070AA
:101F900030460BF0D1FC41F2FC67C2F20007054667
:101FA0004FF0000810A938460022CDE91388CDE98A
:101FB0001188CDE90F8807F01BFE0FA938460022D3
:101FC00007F0E0FD002D4BD005EB450040F2C004CA
:101FD00006EB4000C2F20004C71E861F11E000BFDE
:101FE000607809F5005141EA0010314600F0C0FF69
:101FF000607801306070013D063F2806A6F10606B4
:102000002ED09DF83F0037F8031C00F5FA60884297
:10201000E6D3F0D117F8010C9DF83D108842DFD8C7
:10202000E9D138789DF83E108842D9D838789DF8A3
:102030003E10884204D178789DF840108842CFD86D
:1020400038789DF83E108842D5D178789DF84010B8
:102050008842D0D1B8789DF841108842C0D8CAE7EC
:1020600001204121012200F05FFF40F2C004C2F2D2
:102070000004611C484600F07BFF6078ADF83880B2
:102080000028CDF8348000F0938040F634084FF0FB
:102090000C0A1F2617243B25002709F5005B4FF08B
:1020A000000913E09DF837209DF838409DF839501D
:1020B00080468A46164640F2C000C2F200004078D0
:1020C00009F10109814507F1100774D247EA0B01B4
:1020D0000DA800F047FF9DF83F10BDF8340001F552
:1020E000FA61814226D29DF836104045DAD39DF838
:1020F000372001D15145D7D380EA0803B44626469C
:102100002C4681EA0A052B4325463446664601D112
:10211000B242C9D3921BB3FA83F3B2FA82F25B09DB
:1021200052091A409DF83830012A31D1A3422FD2EA
:102130003246B9E7BFD19DF836109DF83D20914257
:10214000D3D8B8D19DF837209DF83E309A42CCD8EC
:102150009DF837209DF83E309A4205D19DF83820F1
:102160009DF840309A42C0D89DF837209DF83E3007
:102170009A42A0D19DF838209DF840309A429AD1D9
:102180009DF839209DF841309A4294D9ADE700BFBF
:102190001B1BB3FA83F35B091A40012A7FF48BAF50
:1021A0009DF83920EBB29A423246FFF47DAF82E7C8
:1021B0003B2517241F263746264601AC20462821FA
:1021C000FEF716FB4FF480700C9001200B9041F24B
:1021D000FC60C2F20000214600228DF804608DF8F8
:1021E00005508DF8287007F0EFFD15B0BDE8F08FB1
:1021F0002DE9F04F81B040F60000C4F202208021AA
:10220000002204F043FD41F63815C2F2000540F605
:102210009411C2F2000128464FF480620AF04EFB8E
:102220004FF4FA6004F0E4F940F6C241C0F601014F
:1022300028464C224FF0FF330AF0A0FB0A2004F09E
:10224000D7F940F69041C0F60101284622224FF00E
:10225000FF330AF093FB40F6AC5004F0C9F940F6A6
:10226000B341C0F6010128460E224FF0FF330AF0B9
:1022700085FB0A2004F0BCF940F6F564C0F60104C1
:102280002846214617224FF0FF330AF077FB4FF420
:102290007A7004F0ADF940F6D056C0F60106284633
:1022A000314622224FF0FF330AF068FB4FF47A7078
:1022B00004F09EF940F62567C0F601072846394626
:1022C0001C224FF0FF330AF059FB4FF47A7004F0F0
:1022D0008FF940F6426AC0F6010A284651461F228D
:1022E0004FF0FF330AF04AFB4FF47A7004F080F9A4
:1022F00040F6926BC0F6010B2846594620224FF05B
:10230000FF330AF03BFB4FF47A7004F071F940F6AA
:10231000D161C0F60101284623224FF0FF330AF0B5
:102320002DFB4FF47A7004F063F940F63671C0F675
:102330000101284616224FF0FF330AF01FFB4FF42D
:102340007A7004F055F940F6B369C0F601092846E1
:1023500049461D224FF0FF330AF010FB4FF47A700C
:1023600004F046F92846214617224FF0FF330AF0C1
:1023700005FB4FF47A7004F03BF9284631462222DF
:102380004FF0FF330AF0FAFA4FF47A7004F030F9A4
:10239000284639461C224FF0FF330AF0EFFA4FF47B
:1023A0007A7004F025F9284651461F224FF0FF337A
:1023B0000AF0E4FA4FF47A7004F01AF92846594604
:1023C00020224FF0FF330AF0D9FA4FF47A7004F06C
:1023D0000FF940F6D1612846C0F6010123224FF0E3
:1023E000FF3388460AF0CAFA4FF47A7004F000F915
:1023F00040F636712846C0F6010116224FF0FF3331
:102400000AF0BCFA4FF47A7004F0F2F82846494614
:102410001D224FF0FF330AF0B1FA4FF47A7004F046
:10242000E7F82846214617224FF0FF330AF0A6FAB4
:102430004FF47A7004F0DCF82846314622224FF03F
:10244000FF330AF09BFA4FF47A7004F0D1F8284673
:1024500039461C224FF0FF330AF090FA4FF47A709D
:1024600004F0C6F8284651461F224FF0FF330AF009
:1024700085FA4FF47A7004F0BBF8284659462022BA
:102480004FF0FF330AF07AFA4FF47A7004F0B0F8A4
:102490002846414623224FF0FF330AF06FFA4FF4EB
:1024A0007A7004F0A5F840F636712846C0F60101AE
:1024B00016224FF0FF330C460AF060FA4FF47A70A0
:1024C00004F096F8284649461D224FF0FF330AF0E3
:1024D00055FA4FF47A7004F08BF840F6F56128460F
:1024E000C0F6010117224FF0FF330AF047FA4FF40C
:1024F0007A7004F07DF82846314622224FF0FF33EF
:102500000AF03CFA4FF47A7004F072F82846394623
:102510001C224FF0FF330AF031FA4FF47A7004F0C6
:1025200067F8284651461F224FF0FF330AF026FA7B
:102530004FF47A7004F05CF82846594620224FF098
:10254000FF330AF01BFA4FF47A7004F051F8284672
:10255000414623224FF0FF330AF010FA4FF47A700D
:1025600004F046F82846214616224FF0FF330AF0C1
:1025700005FA4FF47A7004F03BF8284649461D22CC
:102580004FF0FF330AF0FAF94FF47A7004F030F8A4
:1025900040F6F5612846C0F6010117224FF0FF33DF
:1025A0000AF0ECF94FF47A7004F022F8284631462C
:1025B00022224FF0FF330AF0E1F94FF47A7004F071
:1025C00017F8284639461C224FF0FF330AF0D6F997
:1025D0004FF47A7004F00CF8284651461F224FF051
:1025E000FF330AF0CBF94FF47A7004F001F8284673
:1025F000594620224FF0FF330AF0C0F94FF47A70A9
:1026000003F0F6FF2846414623224FF0FF330AF03D
:10261000B5F94FF47A7003F0EBFF284621461622F5
:102620004FF0FF330AF0AAF94FF47A7003F0E0FF9D
:10263000284649461D224FF0FF330AF09FF94FF418
:102640007A7003F0D5FF40F60000C4F2022080212A
:10265000012201B0BDE8F04F04F018BBFEE7000016
:102660002DE9F04186B00446A18800200590CDE90F
:102670000110039002212068049101A904F0D6F909
:102680002068A18804F0FCFA98B341F2040540F2F6
:1026900010084DF683670021CEF20005C2F2000853
:1026A000C4F21B372868D8F800200E46A2FB071298
:1026B000910C00BF2A68121A8A420BD22A68121A99
:1026C0008A4207D22A68121A8A4203D22A68121A48
:1026D0008A42EFD32068A18804F0D2FA18B1632EA1
:1026E00006F10101DED3622E82BF012006B0BDE8F3
:1026F000F0812068A18804F0C3FA00281EBF0020E2
:1027000006B0BDE8F08141F2040540F210084DF634
:1027100083670021CEF20005C2F20008C4F21B3725
:102720002868D8F800200E46A2FB0712910C00BFC3
:102730002A68121A8A420BD22A68121A8A4207D2CF
:102740002A68121A8A4203D22A68121A8A42EFD3DE
:102750002068A18804F094FA18B9632E06F10101EB
:10276000DED30020622E88BF012006B0BDE8F081D4
:102770004EF6FC50CEF20000016841F0807101601D
:1027800041F20000CEF20000016841F00101016059
:102790007047000080B541F2040E40F21003CEF203
:1027A000000EC2F20003DEF80020D3F800C04DF6A0
:1027B0008363C4F21B33ACFB0331890C01FB00F0D3
:1027C0000BE000BFDEF80010891A814228BF80BDEF
:1027D000DEF80010891A814209D2DEF80010891A49
:1027E000814204D2DEF80010891A8142EAD380BD0A
:1027F000B0B584B040F20040C4F2022040F20404BC
:1028000000F58061C2F200040291082100900120CD
:10281000651CADF80C10ADF8040002A821462A464C
:1028200000F0F6F840B141F63810C2F2000017A1EE
:102830000CF05CFF09E000BF2278637841F63810A5
:10284000C2F200001CA10CF051FF684621462A4646
:1028500000F0DEF850B141F63810C2F2000021A1BC
:1028600004B0BDE8B0400CF041BF00BF22786378EF
:1028700041F6381040F6DA71C2F20000C0F60101EC
:1028800004B0BDE8B0400CF031BF00BF41542B4D47
:102890005154545055423D302C22436162696E655B
:1028A0007454482F736574222C224572726F722201
:1028B0002C302C300D0A000041542B4D51545450F3
:1028C00055423D302C22436162696E657454482F35
:1028D000736574222C22542564482564222C302CE4
:1028E000300D0A0041542B4D5154545055423D3047
:1028F0002C22436F6C64436162696E657454482F87
:10290000736574222C224572726F72222C302C3027
:102910000D0A00002DE9F04104460068A18841F24B
:102920000405CEF2000504F0ABF940F210084DF6B4
:102930008367C2F20008C4F21B3700B3002600BF51
:102940002868D8F80010A1FB0712910C2A68121A07
:102950008A420BD22A68121A8A4207D22A68121AAD
:102960008A4203D22A68121A8A42EFD32068A188C9
:1029700004F086F918B1632E06F10106E0D3206851
:10298000A18804F07DF900BB002600BF2868D8F8B4
:102990000010A1FB0712910C2A68121A8A420BD26E
:1029A0002A68121A8A4207D22A68121A8A4203D265
:1029B0002A68121A8A42EFD32068A18804F060F9CD
:1029C00018B9632E06F10106E0D32868D8F8001084
:1029D000A1FB0712910C01EB8101C9002A68121AB0
:1029E0008A420BD22A68121A8A4207D22A68121A1D
:1029F0008A4203D22A68121A8A42EFD32068A18839
:102A000004F03EF9002818BF0120BDE8F081000065
:102A10002DE9F04F85B0064688460020B188049025
:102A200001200091CDE9010002213068039141F2BB
:102A3000040469469146CEF2000403F0F7FF3068C3
:102A4000B188002204F022F940F21005C2F200051C
:102A5000206829684DF68367C4F21B37A1FB071273
:102A6000910C44F6382201FB02F100BF2268121AD1
:102A70008A420BD22268121A8A4207D22268121A9C
:102A80008A4203D22268121A8A42EFD33068B18890
:102A9000012204F0FBF820682968A1FB0712910CC1
:102AA0000901A1EB924149002268121A8A420BD215
:102AB0002268121A8A4207D22268121A8A4203D264
:102AC0002268121A8A42EFD33046FFF7C9FD002868
:102AD00040F0D6803046FFF71DFF07463046FFF72F
:102AE00019FF400040EA87043046FFF713FF044314
:102AF0003046FFF70FFFA10041EA40043046FFF7E0
:102B000009FF04433046FFF705FFA10041EA4004F6
:102B10003046FFF7FFFE04433046FFF7FBFE40EA76
:102B2000440A3046FFF7F6FE07463046FFF7F2FE4E
:102B3000400040EA87043046FFF7ECFE044330468D
:102B4000FFF7E8FEA10041EA40043046FFF7E2FE4D
:102B500004433046FFF7DEFEA10041EA4004304660
:102B6000FFF7D8FE04433046FFF7D4FE40EA440B9B
:102B70003046FFF7CFFE07463046FFF7CBFE40005A
:102B800040EA87043046FFF7C5FE04433046FFF7AE
:102B9000C1FEA10041EA40043046FFF7BBFE0443FA
:102BA0003046FFF7B7FEA10041EA40043046FFF788
:102BB000B1FE04433046FFF7ADFE40EA4404304620
:102BC000FFF7A8FE07463046FFF7A4FE400040EAA4
:102BD00087053046FFF79EFE05433046FFF79AFE15
:102BE000A90041EA40053046FFF794FE0543304610
:102BF000FFF790FEA90041EA40053046FFF78AFE44
:102C000005433046FFF786FE40EA45053046FFF7AC
:102C100081FE07463046FFF77DFE400040EA870709
:102C20003046FFF777FE07433046FFF773FEB900E3
:102C300041EA40073046FFF76DFE07433046FFF795
:102C400069FEB90041EA40073046FFF763FE0743DB
:102C50003046FFF75FFE5FFA8BF151FA8AF140EAE6
:102C6000470051FA84F1C0B251FA85F1814207D18F
:102C700089F800A088F80040002005B0BDE8F08F7A
:102C8000012005B0BDE8F08F2DE9F043D2F800C077
:102C9000D0F808E0002953D0BEF1000F4FF0000437
:102CA00064D04FF6FC7311EA03094FF000074FF0B0
:102CB000000300F0B58005684FF6FC732B40BEF1B1
:102CC000020F4FF0010455D34B4553D04FF6FF741C
:102CD00025EA040605274FF6FC7800BF46EA030400
:102CE00054F82C50FC1E744505EA08054ED24D459B
:102CF0004CD046EA050353F82C30BC1E744503EA59
:102D000008031AD24B4518D046EA030454F82C5055
:102D10007C1E744505EA080538D24D4536D046EA92
:102D2000050353F82C30774503EA080307F1040440
:102D300002D24B452746D1D1043C1F462B466FE0BB
:102D4000BEF1000F1AD004684FF6FC75BEF1010306
:102D500004EA050716D04FF6FF75AC43AEF1020545
:102D6000032D03F0030813D230E000BF0027002337
:102D700056E000BF1F46002352E000BF002300279B
:102D8000002456E00124002353E000BF2F4647E013
:102D900023F003054FF6FC7644EA070353F82C3082
:102DA000043D03EA060343EA040353F82C3003EA24
:102DB000060343EA040353F82C3003EA060344EA0B
:102DC000030757F82C7007EA0607E5D13D46B8F12E
:102DD000000F24D044EA050353F82C604FF6FC732F
:102DE000B8F1010F06EA030604D1744637462B46B4
:102DF00016E000BF44EA060555F82C50B8F1020F62
:102E000003EA050304D174461F46334608E000BFB9
:102E10001C4354F82C404FF6FC7504EA0507744631
:102E200039B14FF6FC7631408F421CBF0120BDE81E
:102E3000F0834088946043EA004147EA00435160D0
:102E4000D36053F82C1029B14FF6FC7300041940DD
:102E5000084310610020BDE8F083000070470000C7
:102E600080B540F29070C2F200000178B1FA81F1B1
:102E70004A09027041F60000C4F20220042103F066
:102E800005FF4FF48070BDE8804003F0B5BD000041
:102E9000EFF3108072B600BFFEE70000B0B542F25B
:102EA00020050446C4F2020503F0FEFE296811F471
:102EB000403F0DD0611C27D0044400BF03F0F4FE56
:102EC000A04224BF0320B0BD286810F4403FF5D1D4
:102ED000286842F2FA0101401CD040F21800C2F208
:102EE000000042680A43426001202960B0BD00BF73
:102EF000286810F4403FEBD0286810F4403FE7D03A
:102F0000286810F4403FE3D0286810F4403FEFD128
:102F1000DEE700BF2868C0074FF0000008BFB0BD63
:102F200001212960B0BD000070B586B014460D4681
:102F3000064603F0F3FF03F0E5FC002005900220B5
:102F4000CDE9010601A805A9CDE9035403F064FB0E
:102F50004FF47A70FFF7A2FF04F002F803F0E0FBF1
:102F600006B070BDD1E90012C0E900127047000040
:102F7000B0B50C46054603F0C5FC012029462246A3
:102F800003F0DAFBBDE8B04003F0CABB41F22040D9
:102F9000C2F2000002F030BF41F29840C2F20000DD
:102FA00002F02ABF41F21050C2F2000002F024BF2A
:102FB00041F28850C2F2000002F01EBF41F20060F0
:102FC000C2F2000002F018BF2DE9F04F81B02DEDE4
:102FD000048B9CB00290B3EE0D8A00208DF86E0039
:102FE000ADF86C00019080B21BA900EE100A0090B1
:102FF000B8EE400A029880EE080A20EE000A80ED42
:10300000020A09F097FD9DF86E00BDF86C104FF0B4
:10301000000B41EA004211064FF0500158BF302129
:1030200042F317001A9111044FF0500158BF30219C
:10303000B0F1FF3F4FF050001991C8BF30201490FD
:1030400050064FF0500058BF3020139050044FF0FE
:10305000500058BF3020129050024FF0500058BF1F
:103060003020119090064FF0500058BF3020109043
:1030700090044FF0500058BF3020189090024FF04D
:10308000500058BF30201790D0064FF0500058BF66
:1030900030200F90D0044FF0500058BF30201690D1
:1030A000D0024FF0500058BF3020069010074FF06C
:1030B000500058BF3020059010054FF0500058BF09
:1030C00030200E9010034FF0500058BF3020159064
:1030D00050074FF0500058BF30200D9050054FF072
:1030E000500058BF30200C9050034FF0500058BF94
:1030F00030200B9090074FF0500058BF30200A90BE
:1031000090054FF0500058BF3020099090034FF0C9
:10311000500058BF30200890D0074FF0500008BF33
:1031200030200790D0054FF0500058BF3020049059
:103130005020D10358BF3020039000BF40F2D81078
:103140001A99C2F2000000EB0B0800F80B10199856
:10315000119F88F80800139888F8117088F801000A
:1031600012980F9988F809000646109888F8297077
:1031700088F802001898189F88F80A00179888F8AD
:10318000031088F81200169888F8227088F80B004F
:103190000E98179F88F80C00159888F81B10169940
:1031A00088F814000D9888F82160109E88F82A701D
:1031B00088F823100E991A9F88F805000B981A9A20
:1031C00088F81A6088F8241088F83070199F88F8F9
:1031D0003260189E88F83C10159988F815000998F7
:1031E00088F81820199A88F83870149F88F83A607F
:1031F000179E88F844100C99DDF850900C9BDDF870
:1032000028C088F80E00DDF820E0079888F8202014
:10321000159A88F84070129F88F842600F9E88F8CF
:103220003D100A9988F81090069DDDF814A088F8E2
:103230000D3088F806C088F816E088F80700049C6E
:10324000039888F82890DDF84C9088F82C200D9A87
:1032500088F825300B9B88F81EC0DDF824C088F85C
:103260002EE0DDF81CE088F83970119F88F8336093
:10327000169E88F8361008990BF1480BBBF5B46F11
:1032800088F8135088F804A088F80F4088F81700D1
:1032900088F8199088F82B5088F81CA088F81D2011
:1032A00088F82D3088F826C088F81FE088F8274075
:1032B00088F82F0088F8319088F8417088F83B60D2
:1032C00088F8435088F834A088F8352088F84530CD
:1032D00088F83EC088F8461088F837E088F83F4004
:1032E00088F847007FF42AAF41F61004C2F20004C8
:1032F0002046002108F0A0FB2068002140F2D812EF
:1033000041622046C2F200024FF4B76308F066F94A
:10331000012003F06DF9322003F06AF900981D28AE
:10332000019800F10100FFF45DAEB7EE009A0020B5
:10333000019080B21BA900EE100A0090B8EE400A7E
:10334000029880EE080A20EE000A39EE400A80ED6D
:10335000020A09F0EFFB9DF86E00BDF86C1041EA1F
:10336000004211064FF0500158BF302142F31700C0
:103370001A9111044FF0500158BF3021B0F1FF3FB6
:103380004FF050001491C8BF3020139050064FF0FA
:10339000500058BF3020129050044FF0500058BFDA
:1033A0003020199050024FF0500058BF3020189034
:1033B00090064FF0500058BF3020119090044FF00D
:1033C000500058BF3020109090024FF0500058BF6E
:1033D00030200F90D0064FF0500058BF302017908B
:1033E000D0044FF0500058BF30201690D0024FF05C
:1033F000500058BF3020059010074FF0500058BFC4
:103400003020159010054FF0500058BF30200E901E
:1034100010034FF0500058BF30200D9050074FF070
:10342000500058BF30200C9050054FF0500058BF4E
:1034300030200B9050034FF0500058BF30200A90BE
:1034400090074FF0500058BF3020099090054FF082
:10345000500058BF3020089090034FF0500058BFE4
:1034600030200790D0074FF0500008BF3020069062
:10347000D0054FF0500058BF30200490D1034FF0DA
:1034800050004FF0000258BF3020039040F2D81097
:103490001A99C2F2000081541A9900EB020814989C
:1034A00088F81810199988F808000746129888F8C3
:1034B0002110189988F80100199888F8291017998F
:1034C00088F80900189888F81B10169988F81100D8
:1034D0000F9888F82310159988F81200179888F823
:1034E0001C10149988F80300169888F8381013995E
:1034F00088F80B00159888F84010119988F8040096
:103500000E9888F83210109988F80C000C9888F8FA
:103510003A10169988F805000A9888F82070129FCA
:1035200088F83B100D9988F81500089888F81970EC
:1035300088F83170199F88F844100B99DDF84C9089
:10354000DDF844A0DDF840B0059E0D9BDDF82CC0F1
:10355000DDF824E088F80E00079C069888F839709A
:10356000189F88F83D10099988F8109088F802A0F3
:1035700088F80AB088F8136088F8143088F80DC00D
:1035800088F806E088F8164088F80700049D03983C
:1035900088F8289088F81AA088F822B0DDF83C90C6
:1035A00088F82B60DDF838B088F82C300C9B88F850
:1035B00025C0DDF828C088F81EE0DDF820E088F896
:1035C0002E40069CDDF868A088F84170179F88F8A7
:1035D0004360159E88F8361007994832B2F5B46FEB
:1035E00088F80F5088F8170088F82A9088F824B0D7
:1035F00088F81D3088F82DC088F826E088F81F402C
:1036000088F8275088F82F0088F830A088F8429072
:1036100088F8337088F8346088F83CB088F8353022
:1036200088F845C088F83EE088F8461088F83740AA
:1036300088F83F5088F847007FF428AF41F610041F
:10364000C2F200042046002108F0F6F920680021AB
:1036500040F2D81241622046C2F200024FF4B76332
:1036600007F0BCFF012002F0C3FF322002F0C0FFD0
:1036700000981D28019800F10100FFF459AE1CB01C
:10368000BDEC048B01B0BDE8F08F000070B540F2D6
:10369000D814C2F2000420464FF4B4613022FDF782
:1036A0009FF841F61005C2F20005284600210026C9
:1036B00008F0C2F9286800214662284622464FF4E5
:1036C000B76307F08BFF0120BDE8704002F090BFA8
:1036D0002DE9F04F81B02DED068B9EB09FEDF91ACC
:1036E0000290B4EE410A9FEDF81AF1EE10FA4FF095
:1036F0000000B4EE410A4FF00001D8BF0120F1EE06
:1037000010FAA8BF0121014340F2D410C2F2000018
:103710000078002251EA00038DF87620ADF874207D
:1037200000F0D881B4EE410A9FEDE81AF1EE10FAEC
:103730004FF00001B4EE410AC8BF0121F1EE10FACA
:10374000B8BF012211400140012940F071839FED73
:10375000E0AAB3EE0D8AB7EE009A0020049080B282
:103760001DA900EE100A0390B8EE400A029880EE00
:10377000080A20EE000A39EE400A80FE0A0A80EDAF
:10378000020A09F0D7F99DF87600BDF874104FF0E1
:10379000000B41EA004211064FF0500158BF3021A2
:1037A00042F31700179111044FF0500158BF302118
:1037B000B0F1FF3F4FF050001C91C8BF3020169071
:1037C00050064FF0500058BF3020159050044FF075
:1037D000500058BF3020149050024FF0500058BF96
:1037E0003020139090064FF0500058BF30201290B8
:1037F00090044FF0500058BF30201B9090024FF0C3
:10380000500058BF30201190D0064FF0500058BFE4
:1038100030201090D0044FF0500058BF30201A9044
:10382000D0024FF0500058BF3020079010074FF0E3
:10383000500058BF3020199010054FF0500058BF6D
:103840003020189010034FF0500058BF30200F90D8
:1038500050074FF0500058BF30200E9050054FF0E9
:10386000500058BF30200D9050034FF0500058BF0B
:1038700030200C9090074FF0500058BF30200B9034
:1038800090054FF0500058BF30200A9090034FF041
:10389000500058BF30200990D0074FF0500008BFAB
:1038A00030200890D0054FF0500058BF30200690CF
:1038B0005020D10358BF3020059000BF40F2D810EF
:1038C000C2F20000179900EB0B0900F80B101C98CE
:1038D00089F818101C9989F80800159889F82010A3
:1038E0001A9989F80100149889F82310199989F810
:1038F00009000646129889F81C10189989F80200E8
:103900001B9889F82410179989F80A00109889F8EB
:103910003010169989F803001A9889F84010149904
:1039200089F80B00199889F83910139989F804005F
:10393000189889F84110119989F80C000E9889F8A7
:103940004210189989F805000C9889F83C100F99D5
:10395000139F89F815000A9889F82160129E89F84A
:1039600044100D99DDF8588089F81170DDF844A0F5
:10397000079D0F9A0D9BDDF82CC089F80E00DDF82D
:1039800024E0089889F8297089F81A601B9F89F843
:1039900032601B9E89F83D100B9989F8108089F8D8
:1039A00012A089F8135089F8142089F80D3089F88D
:1039B00006C089F816E089F80700069C059889F882
:1039C0002880DDF8548089F8227089F82AA0109F99
:1039D00089F82B5089F82C200E9A89F825300C9BF9
:1039E00089F81EC0DDF828C089F82EE0DDF820E057
:1039F000DDF870A089F83A601A9E89F84350199D45
:103A000089F8361009990BF1480BBBF5B46F89F8AA
:103A10000F4089F8170089F8198089F81B7089F818
:103A20001D2089F82D3089F826C089F81FE089F813
:103A3000274089F82F0089F838A089F8318089F863
:103A4000337089F83B6089F8345089F8352089F85B
:103A5000453089F83EC089F8461089F837E089F882
:103A60003F4089F847007FF429AF41F61005C2F2C4
:103A700000052846002107F0DFFF2868002440F2F7
:103A8000D812446228460021C2F200024FF4B76304
:103A900007F0A4FD012002F0ABFD462002F0A8FDD6
:103AA00040F2D410C2F20000047003981D2804985C
:103AB00000F10100FFF452AE1EB0BDEC068B01B068
:103AC000BDE8F08FCDCCCC3D0000C8420000E14302
:103AD0000AD7233C1FED029AB3EE0D8A0020019312
:103AE000049080B21DA900EE100A0390B8EE400ABF
:103AF000029880EE080A20EE000A80FE090A80ED96
:103B0000020A09F017F89DF87600BDF874104FF01E
:103B1000000A41EA004211064FF0500158BF30211F
:103B200042F31700179111044FF0500158BF302194
:103B3000B0F1FF3F4FF050001C91C8BF30201690ED
:103B400050064FF0500058BF3020159050044FF0F1
:103B5000500058BF3020149050024FF0500058BF12
:103B60003020139090064FF0500058BF3020129034
:103B700090044FF0500058BF30201B9090024FF03F
:103B8000500058BF30201190D0064FF0500058BF61
:103B900030201090D0044FF0500058BF30201A90C1
:103BA000D0024FF0500058BF3020079010074FF060
:103BB000500058BF3020199010054FF0500058BFEA
:103BC0003020189010034FF0500058BF30200F9055
:103BD00050074FF0500058BF30200E9050054FF066
:103BE000500058BF30200D9050034FF0500058BF88
:103BF00030200C9090074FF0500058BF30200B90B1
:103C000090054FF0500058BF30200A9090034FF0BD
:103C1000500058BF30200990D0074FF0500008BF27
:103C200030200890D0054FF0500058BF302006904B
:103C30005020D10358BF3020059000BF40F2D8106B
:103C4000C2F20000179900EB0A0900F80A101C984C
:103C500089F818101C9989F80800159889F820101F
:103C60001A9989F80100149889F82310199989F88C
:103C700009000646129889F81C10189989F8020064
:103C80001B9889F82410179989F80A00109889F868
:103C90003010169989F803001A9889F84010149981
:103CA00089F80B00199889F83910139989F80400DC
:103CB000189889F84110119989F80C000E9889F824
:103CC0004210189989F805000C9889F83C100F9952
:103CD000139F89F815000A9889F82160129E89F8C7
:103CE00044100D99DDF8588089F81170DDF844B062
:103CF000079D0F9A0D9BDDF82CC089F80E00DDF8AA
:103D000024E0089889F8297089F81A601B9F89F8BF
:103D100032601B9E89F83D100B9989F8108089F854
:103D200012B089F8135089F8142089F80D3089F8F9
:103D300006C089F816E089F80700069C059889F8FE
:103D40002880DDF8548089F8227089F82AB0109F05
:103D500089F82B5089F82C200E9A89F825300C9B75
:103D600089F81EC0DDF828C089F82EE0DDF820E0D3
:103D7000DDF870B089F83A601A9E89F84350199DB1
:103D800089F8361009990AF1480ABAF5B46F89F82A
:103D90000F4089F8170089F8198089F81B7089F895
:103DA0001D2089F82D3089F826C089F81FE089F890
:103DB000274089F82F0089F838B089F8318089F8D0
:103DC000337089F83B6089F8345089F8352089F8D8
:103DD000453089F83EC089F8461089F837E089F8FF
:103DE0003F4089F847007FF429AF41F61004C2F242
:103DF00000042046002107F01FFE2068002140F249
:103E0000D81241622046C2F200024FF4B76307F0B5
:103E1000E5FB012002F0ECFB462002F0E9FB0398F1
:103E20001D28049800F10100FFF45AAE4EE000BFD7
:103E30009FED2D1A0021B4EE410A9FED2C1AF1EEF0
:103E400010FA4FF00002B4EE410AC8BF0122F1EEB1
:103E500010FAB8BF01211140084001287FF42CAEB0
:103E60004DF20A710298C3F6234181601DA90193A6
:103E700008F060FE9DF87600BDF87410002741EA56
:103E8000004600BF04F07F408419FDB22846214659
:103E900000F0CEF83B2D07F10107F3D341F61004F3
:103EA000C2F2000420460021002507F0C5FD20686D
:103EB00040F2D81245622046C2F2000200214FF4BF
:103EC000B76307F08BFB012002F092FB019840F2F0
:103ED000D41180F00100C2F2000108701EB0BDECE8
:103EE000068B01B0BDE8F08F0000FA4300007A4471
:103EF0002DE9F04381B040F2D81443F2500E45F260
:103F00003008002045F2500C50224FF050334FF053
:103F10003035C2F2000443F23001C3F2300E3026D5
:103F2000C5F2500845F23009271824F800C048307F
:103F3000B0F5B46FBA70C7F80330C7F80B50C7F8C4
:103F40001350C7F807E0C7F80F50C7F817803D6255
:103F5000BD62C7F81B307D62B98587F82E60FA779D
:103F6000A7F82F9087F8386087F84060A7F831C02D
:103F7000A7F83910A7F8411087F8332087F83B607D
:103F800087F843607B63FD637D64CDD141F6100407
:103F9000C2F2000420460021002607F04DFD2068F3
:103FA00040F2D815C2F200054662204600212A469A
:103FB0004FF4B76307F012FB012002F019FB40F643
:103FC000B83002F015FB28464FF4B4613022FCF7FC
:103FD00007FC2046002107F02FFD206800214662E3
:103FE00020462A464FF4B76307F0F8FA012001B0E3
:103FF000BDE8F04302F0FCBAB0B541F61004C2F2DD
:10400000000420460021002507F016FD206840F23C
:10401000D81245622046C2F2000200214FF4B76375
:1040200007F0DCFA0120BDE8B04002F0E1BA000080
:1040300080B50A0600EB400340F2D81E4FF0500254
:10404000C2F2000E58BF30220EF833200A040EEBE5
:10405000C3004FF0500258BF302202720A024FF0E4
:10406000500258BF302202744A064FF0500258BF27
:10407000302242704A044FF0500258BF3022427240
:104080004A024FF0500258BF302242748A064FF065
:10409000500258BF302282708A044FF0500258BF3D
:1040A000302282728A024FF0500258BF302282744E
:1040B000CA064FF0500258BF3022C270CA044FF0F7
:1040C000500258BF3022C272CA024FF0500258BF8D
:1040D0003022C2740A074FF0500258BF30220271DA
:1040E0000A054FF0500258BF302202730A034FF006
:1040F000500258BF302202754A074FF0500258BF95
:10410000302242714A054FF0500258BF30224273AC
:104110004A034FF0500258BF302242758A074FF0D1
:10412000500258BF302282718A054FF0500258BFAA
:10413000302282738A034FF0500258BF30228275BA
:10414000CA074FF0500208BF3022C271CA054FF0B3
:10415000500C4FF0500258BF3022C273C90358BFF1
:104160004FF0300C80F817C080BD0000B0B582B0B1
:1041700004460020019094F87400012802BF022038
:1041800002B0B0BD012084F8740020460D46FDF752
:1041900061FEA16F10B141F0100159E041F202122D
:1041A00091430231A16741F20802C4F20262216820
:1041B000A2F1080399424FF6C073C7F6FE7309D007
:1041C0008A681A4005F480331A4302F100428A607B
:1041D00007E000BF156803F580332B4043F0004330
:1041E000136049F2FF52C5F25A528B68B3F1FF3F98
:1041F0002ADC019B01330193019B93421DD88B68FC
:10420000B3F1FF3F20DC019B01330193019B9342FB
:1042100013D88B68B3F1FF3F16DC019B0133019388
:10422000019B934209D88B68B3F1FF3F0CDC019BE3
:1042300001330193019B9342D7D9A06F40F0100046
:1042400020F00201012003E0A16F012262F30101CD
:10425000A167002184F8741002B0B0BD704700005F
:104260007047000070470000704700002DE9F04FD4
:1042700081B004460020009094F87400012802BF29
:10428000022001B0BDE8F08F8B460120216884F840
:1042900074008868400700F1A58141F20838C4F233
:1042A0000268A8F54277DBF80060B9426ED096FA52
:1042B000A6F0B0FA80F0320208BFB00E00F01F0086
:1042C0000122CB6902FA00F01843C861DBF8040050
:1042D0001F27C0F3012200F01F0001EB8202C6F38A
:1042E0008466136B8740BB4306FA00F018431063E3
:1042F00088688A6800F0040002F00802801840F024
:10430000B280DBF80000DBF80820C0F3406706024B
:1043100090FAA0F307EB8706B3FA83F308BFC0F364
:104320008463704203EB400001EB870300EB400025
:104330005F6907268640B74302FA00F038435861A8
:10434000DBE90402CB68042846D1086EDBF80020C4
:1043500000F07843D00683426ED10A6E22F080626C
:104360000A664A6E02F0784282426AD08A6E02F091
:10437000784282426ED18A6E22F080628A66CA6E6C
:1043800002F0784282426ED169E000BF02F084FC04
:10439000B0F5805F40F04181DBF8006043F6FF70CC
:1043A000CBF60020864240F20000CDF2207040F3B0
:1043B0009580864200F022810021CDF220618E425C
:1043C00000F0208144F20001CBF600218E4208BFAC
:1043D00000F1EC6621E100BF062707EA530301F173
:1043E000600702FA03FCDBF800304FF0784257F820
:1043F000206002EA430206F0E06342EA0C021A433C
:1044000047F82020DBF81000DBF81C2057F820309C
:1044100023F080731A4347F82020DBF810009BF844
:10442000192057F82030012A23F0806308BF03F1D8
:10443000806347F8203016E04A6E02F078428242EC
:1044400094D14A6E22F080624A668A6E02F0784207
:10445000824290D0CA6E02F07842824203D1C86E86
:1044600020F08060C8668868C0072FD1DBF80C3068
:10447000DBF800004FF6FF75D1F8C07003F01806A6
:10448000C0F20F0520F07F4225FA06F6974306405A
:10449000374313F5803FC1F8C07065D172B390FA0D
:1044A000A0F0B0FA80F0421C02F01E03092B4FEA84
:1044B00080602ED800F1806002F01F02012300F01E
:1044C000F84003FA02F210432FE000BF0020002161
:1044D00084F8741001B0BDE8F08F00BF41F2000114
:1044E000CBF200218E4200F0938042F20001CBF229
:1044F00000618E4208BF00F148768EE0012202EB97
:104500009062C0F3846302F01E020A2A03F10102E2
:10451000D0D300F1806002F01F02012300F0F840C8
:1045200003FA02F2104340F00070C0F34067060245
:1045300090FAA0F307EB8706B3FA83F3DBF80820C1
:1045400008BFC0F38463704203EB400001EB8703B4
:1045500000EB40005F6907268640B74302FA00F08F
:1045600038435861DBF80000B0F1FF3F00F3608290
:1045700048F20002C4F202229142A8F5407308BF3B
:1045800002F54278D8F80070914208BF02F10803A2
:104590001B68DB0726D10023CCF60863984207F09E
:1045A000E07308BF17F4000600F0D6800026CCF6B2
:1045B0000426B04240F016810026B6EB136F40F09F
:1045C000118141F20000C4F20260814218BF9142A1
:1045D00040F02E82D8F8000020F0E070184340F040
:1045E00080701AE1A06F40F02000A0670120002138
:1045F00084F8741001B0BDE8F08F00BF00F17F4671
:104600000BE000BF0020CCF6086000F1816604E0FA
:104610000120C8F2000000F18076DBF80400216977
:10462000022845D141F010001021C8F20001884253
:1046300009D12068C6F384610122836A02FA01F17C
:1046400023EA01018162DBF80000B0F1FF3F00F3D3
:10465000EF81216848F20002C4F20222914208BFB1
:1046600002F542784FF6FF71D8F80060CCF60321CE
:10467000884261DC0121C8F20001884200F0D0804C
:1046800041F20001CBF20021884240F0B881D8F815
:10469000000006F0C07120F0E0700844C8F8000087
:1046A00002F0FAFAB0F5805F00F2A98197E100BF4D
:1046B000102241F01001C8F20002914210D196FA86
:1046C000A6F12068B1FA81F1320208BFB10E01F003
:1046D0001F010122836A02FA01F119438162BFE0DE
:1046E000D4F8882000F01F030F259D40AA4396FAB6
:1046F000A6F5A16AB5FA85FA36F07F4C5546C6F3A1
:10470000846908BF4D4605FA03F3B1EB900F42EA06
:104710000300C4F8880040F2A380654602F0BCFAAA
:10472000B0F5805F00F29680002D00F089803003A4
:1047300040F09080D14688E00021CCF604218842E8
:1047400074D00021CCF60861884240F05881D8F836
:10475000000006F0A0716DE041F20000C4F20260BA
:10476000814218BF914240F06381D8F8000042F6C0
:10477000635120F0E070184340F40000C8F80000D6
:1047800040F21000C2F200000068C0F23E51800901
:10479000A0FB01018809022101EB40000090009874
:1047A000002800F04581009801380090009800280A
:1047B00000F03E810098013800900098002800F039
:1047C00037810098013800900098002800F030816F
:1047D000009801380090009800284FF00000E2D1C6
:1047E00075E600BF0126C8F20006B0424FF0000097
:1047F00008BF17F480077FF46AAE41F20000C4F2EC
:104800000260814218BF914240F01281D8F8000046
:1048100020F0E070184340F48000C8F8000007E181
:10482000D8F8000006F0C07104E000BFD8F800001E
:1048300006F4400120F0E0700844C8F80000DEE013
:1048400006F0E040B0F1984F04D9A9F10900012128
:1048500001FA00F62068DBF80410324608F010FA7E
:104860002068DBF80810B84220D0C6F34063350258
:1048700096FAA6F203EB8305B2FA82F208BFC6F3FA
:1048800084626E4202EB460200EB830302EB4202BB
:104890005E6907259540AE43914031435961DBF88D
:1048A0000030B3F1FF3F00F3C3801BE04FF60C5C18
:1048B000CFF6FF7C96FAA6F5320258F80C30B5FA1E
:1048C00085F54FF4807208BFC6F38465AA40DBB259
:1048D0001140194448F80C10DBF80030B3F1FF3FE9
:1048E00000F3A68048F20001C4F202214246884249
:1048F00008BF01F54272166842F20001CBF2006176
:104900008B4206F0E07108BF16F4000510D044F2A7
:104910000005CBF60025AB423ED10025B5EB116F6B
:104920003AD1106820F0E070084340F0807065E0F4
:10493000106820F0E070084340F40000106040F27E
:104940001000C2F20000006842F663518009C0F214
:104950003E51A0FB01016FF0010000EA51100090F0
:10496000009800284BD0009801380090009800284B
:1049700045D0009801380090009800283FD000985A
:10498000013800900098D0B300980138009000984A
:104990000028E8D133E000BF0125C8F20005AB4292
:1049A00006F4800C08BFBCF1000F21D0B84226D11C
:1049B00041F20000CBF20020834208BFBCF1000F9F
:1049C0001DD1D8F8000020F0E070084340F48000CA
:1049D000C8F8000002F060F9B0F5805F0FD82068D9
:1049E000D0F8D01041F00101C0F8D01007E000BFAE
:1049F000106820F0E070084340F48000106002F07E
:104A00004BF9B0F5005F13D1DBF800000021CDF2C7
:104A1000207188424FF0000008BF16F480017FF437
:104A200056AD2068D0F8D01041F00101C0F8D01088
:104A30000020002184F8741001B0BDE8F08F000060
:104A4000704700007047000070470000F0B581B06B
:104A50000446006806684568B1070FD515F00201E5
:104A60000CD0A06FC00603D4A06F40F40060A06714
:104A70002046FFF7F3FB20680221016041F20007A6
:104A80007107C4F2026702D515F0040104D13107A1
:104A900052D515F008014FD0214651F8782FD20693
:104AA00003D40A6842F400720A60B8421AD0C2689D
:104AB00012F4406F3AD1C268920437D402681207E8
:104AC00034D58268520723D4426822F00C02426037
:104AD000086820F4807008600868C00426D408685C
:104AE00021E000BFF86810F4406F1FD194F8240053
:104AF000E0B93868000719D5B86840070CD4786861
:104B000040F2011220F00C007860086890430AE03F
:104B1000A06F40F0100002E0A06F40F02000A067FE
:104B2000214651F87C0F40F0010008602046FFF755
:104B300087FF20680C210160B8421FD0B10602D562
:104B400015F0200104D1710615D515F0400112D0E1
:104B5000A16FC90603D4A16F41F40051A167C36CD2
:104B6000C168C26813F4C07F46D02046FFF778FBC7
:104B7000206860210160310603D40FE03846310619
:104B80000CD515F0800109D0A06F40F48030A067EB
:104B9000204600F065FA206880210160F1050DD5FE
:104BA00015F480710AD0A06F40F40030A067204651
:104BB000FFF758FB20684FF480710160B1050DD5F7
:104BC00015F400710AD0A06F40F48020A067204641
:104BD000FFF74AFB20684FF400710160F1063AD5F7
:104BE00015F0100137D0616C39B3B84222D0C168DA
:104BF000890722D12DE000BF930105D501F4406162
:104C000002F400528918B0D101684906ADD5816817
:104C10000907AAD4416821F060014160A06F20F427
:104C20008050A067A06FC0059FD4A06F40F0010026
:104C3000A0679AE7F868800710D0A06F40F4806002
:104C4000A067E06F40F00200E0672046FFF7FCFE3F
:104C500020681021016001B0F0BD00BF3846F8E7C0
:104C6000002804BF012070472DE9F04182B00446BE
:104C7000806F38B12168886880000ED48868C000D1
:104C800015D548E0204600F0EDF90020E06784F8F3
:104C90007400216888688000F0D588684FF6C0727B
:104CA000C5F6FF72104088608868C00033D44FF6A4
:104CB000C0728868C5F6FF7202F18052104000F1A0
:104CC0008050886040F21000C2F20000006842F696
:104CD00063528009C0F23E52A0FB020290090222F8
:104CE00002EB400001900198A8B100BF0198013883
:104CF0000190019878B1019801380190019850B164
:104D0000019801380190019828B10198013801906B
:104D100001980028EAD18868C00009D4A06F40F04B
:104D20001000A067E06F40F00100E067012000E0A4
:104D300000208A68A36F02F0040203F01003D21867
:104D4000A26F29D122F481720232A2678A6841F2ED
:104D50000C0ED207C4F2026E3FD148F2000CC4F22E
:104D6000022C614520D041F20003C4F20263994253
:104D700020D1DEF80020D4E901C3013B9B0863F396
:104D80008302CA60DEF8FC224FEA9C4363F395423B
:104D9000CEF8FC2221E000BF42F01000A067012005
:104DA00002B0BDE8F08100BF0CF108031B68DB070F
:104DB00005D012E0AEF104031B68DB070DD10EF540
:104DC0003F73614508BF0CF54273D4F804C01A68FC
:104DD00022F4701242EA0C021A60AEF10C02914207
:104DE00066D094F82420636C94F82C7043EA423225
:104DF000A368012F42EA030242EA074206D1236B6D
:104E00000027CFF6FE7707EB43431A43636B23B1CA
:104E1000A76B03F478733B431A43CB684CF2130738
:104E2000CFF6F0773B401A43CA608A688B6802F07D
:104E3000040203F00803D21840F0CB8048F20003CC
:104E4000C4F20223CB1AE76B227F18BF012307FAB3
:104E500003F343EA8232CB6844F20307BB431A43AD
:104E6000CA60E2684AB10B6F43F6FF77BB431A434F
:104E70000A670A6F42F000420A6794F854300A69E0
:104E8000012B40F09D804FF61E03CFF600431A40E1
:104E9000D4E91637D4E918653A4342EA0342A36ECF
:104EA00032432A4342EA930242F001028AE000BF01
:104EB00094F82410227F4B0343EA8232D4E904831E
:104EC000656C28F00046B8F1FF3FC8BF4FF40016EC
:104ED0001A4394F84070002D18BF42F480523243B8
:104EE00094F82C3042EA470C012B0AD1002900F03B
:104EF0008180A16F41F02001A167E16F41F00101C4
:104F0000E167616B29B1A26B01F4E07111434CEAD6
:104F1000010CDEF8001048F20D02CFF6FE721140CF
:104F200041EA0C01CEF80010216A21B1DEF83820E8
:104F30001143CEF83810E16E21B1DEF8382011436C
:104F4000CEF8381004F158030ECB11431943A26E6A
:104F500094F854301143012BDEF8042008BF41F0CF
:104F600001014FF60243CFF2FF731A401143CEF80E
:104F70000410DEF80810D4E9122321F007011143D0
:104F8000CEF80810DEF80810B8F1000F21F070011B
:104F900041EA0311CEF8081026D0B8F5001F3ED123
:104FA000D4F88810DEF81C3001F00F020F2A29D047
:104FB00001F0F002F02A25D163F00F012DE000BFCF
:104FC00022F001020A610A69236D22F070421A433D
:104FD0000A6122690B6B012A23F00F0202BFA36A48
:104FE000013B1A430A6325E0DEF81C1061F00F0153
:104FF00013E000BF4CF4803C616B00297FF483AF69
:1050000087E700BFA26A1C2303EB82026FF00F0345
:1050100002F01C0203FA02F21143CEF81C10DEF873
:1050200000104FF6F372C8F23F321140614509D1CA
:105030000021E167A16F012262F30101A16702B0C3
:10504000BDE8F081A06F40F0100020F00200A067E2
:10505000E06F40F00100E067012002B0BDE8F081A0
:105060007047000070B5D4B0044634A8002640F65E
:105070008C4520304C21CDE95266C4F20265FBF725
:10508000B7FB02A80830C021FBF7B2FB206805F58A
:105090005D71884202D054B070BD00BF4FF4004033
:1050A00002904FF480402C9002A8039603F032F84F
:1050B000002818BFFDF7ECFEA868002640F020008D
:1050C000A860A8684FA900F0200001900198286806
:1050D00040F0040028602868012500F004000190D9
:1050E00001980320509040F60000C4F202204F9532
:1050F000519601F09BFC212034A961C1CDE93766AE
:1051000039964596CDE93F66CDE94166439640F232
:1051100018160220C2F200063A904FF40030CDE992
:105120003D5506F118053B9034A8294600F0E8F8F3
:10513000002818BFFDF7ACFE304600212A4600F0DB
:10514000CDFB002818BFFDF7A3FE40F21810C2F2F5
:10515000000000F0CFFC002818BFFDF799FE41F2D7
:10516000006040F2D021C2F20000C4F202010160EE
:1051700000218122C0E90E11C0E91011826400F003
:1051800021FA002818BFFDF783FE41F20065C2F244
:10519000000540F21811C2F20001284600F032FC6E
:1051A000002818BFFDF774FE284610212567EC651E
:1051B00000F002FE002818BFFDF76AFE71200021F2
:1051C000002201F08BFF712001F076FF54B070BD1A
:1051D00070B59CB0044600688068400703D494F81A
:1051E0007400012802D102201CB070BD012084F897
:1051F0007400204616460D46FCF76AFE30B10020CA
:1052000084F8740001201CB070BD00BF2168A06F3D
:1052100041F20C0C40F60172C4F2026C9043ACF106
:105220000C0300F580709942A06702D0A06FC00403
:1052300002D4002003E000BFE06F20F00600E0672A
:10524000206F41F6D152C0F6000241F64D6E026663
:1052500041F63562C0F6000EC0F60002C0E919E260
:105260001C220A60002284F874204A68994242F0A5
:1052700010024A600AD090F85020120610D48269B9
:10528000012A1FD0022A08BFB6001CE0DCF800206B
:1052900042F00102CCF8002090F850201206EED522
:1052A000406F68B1016859B101A800F0DFF800282B
:1052B000A8D10798012817D0022808BFB60014E02B
:1052C000012005E0760040312A46334601F03CF9E2
:1052D00021684FF6C0738A68C7F6FF731A4004321C
:1052E0008A601CB070BD00BF7600206F2268416FDD
:1052F00040320968C1E902620D6100F08BFCE7E70A
:1053000000284FF0010218BF002901D11046704754
:10531000B0B5D0E904C2C369D0F818E01A43C36B32
:105320001A4342EA0C0242EA0E020A6003789B0624
:1053300016D5D0E909C34FF07C75D0F82CE0846B0A
:1053400005EB03534FF47C7505EB0C1503F07C73F0
:1053500044EA0E0405F47C7523432B431A430A6088
:105360004268036B40F27F252A401A434A60C368B3
:10537000B3F5007F05D0B3F5806F04D10578AD0695
:1053800001D51A434A60436C43B1856C046C05F047
:105390003F05224342EA05421A434A60B0F86830AA
:1053A00040F2000C8B600278C0F2FF7C920722D59D
:1053B000C56C4FF080540CEB054505EA0C052B43FA
:1053C0008B60056D04EAD5054FF000542B448B60CB
:1053D000456D04EA95054FF080442B448B60856D44
:1053E00004EA55052B448B60C56DB5F1FF3FDCBF6A
:1053F00003F100438B60036ECB60436E0B61036867
:105400009D0703D44FF4A06029E000BF036D0CF1A9
:10541000C052002B48BF5B426FF35F334B61456D59
:105420002C04002D48BF05FB02F422401A434A61B8
:10543000836D0CF17845002B48BF5B429AB28A61BC
:10544000C36D1C04002B48BF03FB05F422438A6193
:10545000036898074FF4E06058BF4FF4A06018430A
:1054600000220862BDE8B0401046704700284FF0A7
:10547000010218BF002901D11046704791F820C0E1
:1054800042F20002C0F800C00B68C0F6004203F010
:10549000080303610B6803F4002343610B6803F006
:1054A000030383610B6803F44033C3610B68C3F3E8
:1054B0000513013343620B68C3F305530133836261
:1054C0000B6803F04023C3620B681A4082630A68CA
:1054D00002F4C052C2634B689A0509D403F07F02FC
:1054E00042604A79520754BF00224FF4806202E0C2
:1054F0004FF400724260C2604A685FEA8C7302F443
:10550000006282604A6802F4404202644A6802F023
:1055100040724264CA8802F03F0282644A6802F024
:10552000404202630A8982660CD40122C264CA68BE
:105530000266096900224166C0E91422C0E9162208
:105540001046704780B54A896FF3DF220132C2648A
:10555000CA6802660A6942664B696FF35F33036586
:10556000B1F816C06FF35F3CC0F854C0D1F808E042
:105570005FEACE0203D55A420265D1F808E05FEA3D
:105580008E0244BFCCF100024265B1F818E0C0F8C9
:1055900058E08A694FEA124CC0F85CC08A68530030
:1055A00003D5CEF1000282658A68B2F1FF3FBDE803
:1055B0008040C4BF00207047CCF10001C1650020CD
:1055C00070470000B0B5044601F06EFB002C04BF2C
:1055D0000120B0BD00210546206884F84C1002214E
:1055E00084F85410416941F0060141612068416925
:1055F000C9070BD001F058FB401B0528F6D9012044
:1056000003221021A16584F85420B0BDD4E90E1204
:105610004F23C5F20203984242EA010240F24F6171
:10562000C5F202011CDC40F24F43C4F2020398426F
:1056300032DC40F24F23C4F20203984256DC40F2BF
:105640004F13C4F20203984200F394805023C4F233
:105650000203984200F0E880D023C4F20203E1E0A4
:1056600040F24F43C5F2020398422DDC40F24F2333
:10567000C5F2020398424BDC40F24F13C5F202031D
:10568000984200F383805023C5F20203984200F051
:10569000CB80D023C4E000BF40F24F63C4F20203CA
:1056A000984245DC40F24F53C4F20203984277DC43
:1056B00040F25043C4F20203984200F0B58040F239
:1056C000D043C4F20203ADE0884243DC40F24F53C2
:1056D000C5F2020398426FDC40F25043C5F2020368
:1056E000984200F0A18040F2D04399E040F24F335D
:1056F000C4F20203984269DC40F25023C4F2020370
:10570000984200F0918040F2D023C4F2020389E075
:1057100040F24F33C5F20203984263DC40F250235B
:10572000C5F20203984200F07F8040F2D02377E078
:1057300040F24F73C4F2020398425DDC40F25063C2
:10574000C4F2020398426FD040F2D063C4F2020365
:1057500068E000BF40F24F73C5F20203984257DC85
:1057600040F25063C5F2020398425DD040F2D0632C
:1057700056E000BF40F25013C4F20203984253D0E7
:1057800040F2D013C4F202034CE000BF40F25013C9
:10579000C5F20203984247D040F2D01340E000BF68
:1057A00040F25053C4F2020398423DD040F2D0532D
:1057B000C4F2020336E000BF40F25053C5F20203C8
:1057C000984231D040F2D0532AE000BF40F250332B
:1057D000C4F20203984227D040F2D033C4F202034D
:1057E00020E000BF40F25033C5F2020398421BD0C4
:1057F00040F2D03314E000BF40F25073C4F2020311
:10580000984211D040F2D073C4F202030AE000BF04
:1058100040F2D073C5F20203984205D040F25073B3
:10582000C5F20203984201D1236C1A4343698842AE
:1058300023F4430342EA030242614FF00002026490
:10584000636C43648264C264026511DC40F24F7190
:10585000C4F2020188421BDC40F25061C4F2020132
:1058600088422DD040F2D061C4F2020126E000BF90
:1058700040F24F71C5F20201884215DC40F25061DE
:10588000C5F2020188421BD040F2D06114E000BF93
:1058900040F25071C4F20201884211D040F2D0713E
:1058A000C4F202010AE000BF40F2D071C5F2020169
:1058B000884205D040F25071C5F20201884202D1FF
:1058C0000021416581650021C167A06C012220652E
:1058D0000020A16584F85420B0BD00002DE9F041FE
:1058E00086B0044600284FF001001CBF1546002A70
:1058F00002D106B0BDE8F0816069012806D104201C
:105900002061012006B0BDE8F08100BF0E4620688E
:10591000294332460143002E08BF2A46002818BFFB
:1059200002465140B1F5803F08D268B190F820108E
:105930006EB196F820209142E1D108E00520206167
:10594000012006B0BDE8F0812EB196F8201095F840
:1059500020209142D3D10221217300212161296AA3
:1059600000274A08CFF6010762F3596701F00201E8
:1059700062F39A6701F1050870B1BEB101AA204631
:105980003146CDF80480FDF77FF9B8B106202061DB
:10599000012006B0BDE8F081E6B14FF6FC7028406A
:1059A0003843266046F82800022023E04FF6FC71B9
:1059B0000840384345F82800256019E00398A1689D
:1059C00088420BD1606868B14FF6FC7108403843DB
:1059D00006E000BF256001200CE000BF56F828005B
:1059E00045F828004FF6FC702840384346F8280058
:1059F000A0680130A060002001212061217306B061
:105A0000BDE8F08100284FF0010218BF002901D144
:105A10001046704790F8542090F85430022B18BF6D
:105A2000052A07D140218165002180F84C10012012
:105A3000704700BF0A7B022A04D101220A61104686
:105A4000704700BF026840F24F63C5F202039A42FA
:105A500010DC40F24F73C4F202039A421ADC40F2A7
:105A60005063C4F202039A422CD040F2D063C4F2D5
:105A7000020325E040F24F73C5F202039A4215DC9F
:105A800040F25063C5F202039A421BD040F2D06349
:105A900014E000BF40F25073C4F202039A4211D0E6
:105AA00040F2D073C4F202030AE000BF40F2507328
:105AB000C5F202039A4205D040F2D073C5F2020348
:105AC0009A420DD1036D4A68812B03D122B14167FF
:105AD00000207047002AFAD0042008610120704796
