:020000040800F2
:100000004010002049020008D57700080D7600084E
:100010004D760008990D0008C19000085B020008A9
:10002000000000000000000000000000CD7C00087F
:100030003514000800000000457A0008D17C000853
:100040006502000865020008C17C0008650200081E
:1000500065020008650200086502000865020008E4
:1000600065020008650200086502000865020008D4
:1000700065020008650200086502000865020008C4
:1000800065020008650200086502000865020008B4
:1000900065020008650200086502000865020008A4
:1000A0006502000865020008650200086502000894
:1000B00000000000311500083D1500084915000832
:1000C0005515000865020008650200086502000871
:1000D0006502000865020008650200086502000864
:1000E0006502000865020008B57D00086502000889
:1000F0006502000865020008650200086502000844
:100100006502000865020008650200086502000833
:100110006502000865020008650200086502000823
:100120006502000865020008650200086502000813
:100130006502000865020008D58E00086502000807
:1001400065020008650200086502000811760008D3
:100150004176000865020008650200086502000893
:1001600065020008650200086502000865020008D3
:1001700065020008650200086502000865020008C3
:1001800065020008650200086502000865020008B3
:1001900065020008650200086502000865020008A3
:1001A0006502000865020008650200086502000893
:1001B00065020008000000006502000865020008F2
:1001C00065020008000000006502000865020008E2
:1001D0006502000865020008650200086502000863
:1001E0006502000865020008650200086502000853
:1001F0000000000000000000650200086502000821
:100200006502000865020008650200086502000832
:100210006502000865020008650200086502000822
:100220006502000865020008650200086502000812
:1002300065020008DFF80CD000F076FB00480047AC
:10024000DD9000084010002007488047074800471D
:10025000FEE7FEE7FEE7FEE7FEE7FEE7FEE7FEE776
:10026000FEE7FEE7FEE70000697D000835020008B2
:100270002DE9F05F0546002092469B4688460646DB
:10028000814640241BE0284641464746224600F06E
:1002900040F953465A46C01A914110D311461846A8
:1002A000224600F027F92D1A67EB01084F46224637
:1002B0000120002100F01EF917EB00094E41201E1D
:1002C000A4F10104DFDC484631462A464346BDE836
:1002D000F09FD2B201E000F8012B491EFBD270471B
:1002E0000022F6E710B513460A4604461946FFF702
:1002F000F0FF204610BD10B5044604E00B7800F86E
:10030000013B03B1491C521EF8D2204610BD10B566
:10031000002200E0521C835C8C5CA34201D1002BC4
:10032000F8D1D8B2E1B2401A10BD30B50446002071
:10033000034600E05B1C934203D2E05CCD5C401BB3
:10034000F8D030BD0FB400B58DB010A909900B9056
:1003500000914FF0FF300A9000200C900548069065
:10036000054807906A4609A80F9900F0F7F80DB004
:100370005DF814FB79050008970500082DE9FF5F7B
:100380001D464FF0FF3BD5E9014691465F464FF0D1
:100390000008A9697F1C01988847296A8246884716
:1003A0000028F6D1BAF1FF3F0CD024F4C064002E2F
:1003B00019DD600614D5BAF12B0F09D0BAF12D0F53
:1003C0000ED103E0584604B0BDE8F09F44F48064C9
:1003D000A9697F1C01988847761E8246002E02DD9F
:1003E000BAF1300F03D0B9F1000F26D032E0A9697D
:1003F000761E44F400747F1C019888478246002EC4
:1004000005DDBAF1780F06D0BAF1580F03D0B9F173
:10041000000F10D01EE0B9F1000F02D0B9F1100F9B
:1004200018D1A969761E24F400747F1C01988847AE
:100430008246102002E0082000E00A20814609E000
:1004400008FB0908A969761E44F400747F1C019812
:1004500088478246002E05DD4946504600F069F87F
:100460000028EDDAE96901988847A00502D46FF009
:100470000100A8E7E00725D1600613D5600502D585
:10048000C8F1000000E0404629680A1D2A6009689A
:10049000220501D5087015E0220701D5088011E07A
:1004A00008600FE02868011D29600068210502D559
:1004B00080F8008006E0210702D5A0F8008001E066
:1004C000C0F8008038467EE730B50B460146002074
:1004D0002022012409E021FA02F59D4205D303FA06
:1004E00002F5491B04FA02F52844151EA2F1010287
:1004F000F1DC30BD202A04DB203A00FA02F10020B2
:1005000070479140C2F1200320FA03F31943904051
:100510007047202A04DB203A21FA02F000217047BC
:1005200021FA02F3D040C2F120029140084319465B
:1005300070473A2800D2303820F02002412A01D3F7
:10054000A2F13700884201D34FF0FF30704700001E
:10055000026811441378016018467047D16004495D
:1005600051610449116200211161114600F00CBA79
:10057000510500087D090008426842B1016811F880
:10058000013B23B1521EC0E90012184670470121F9
:10059000C160881E704742685AB1C368016843B998
:1005A00083688B4205D0491E521CC0E9001200200E
:1005B00070474FF0FF3070472DE9FE4F804681EACB
:1005C0000300C00F0C46009021F0004123F00045CD
:1005D000B8EB0200A94105D24046214690461C4690
:1005E0000B46024623F00040104347D0270DC7F3C7
:1005F0000A00C3F30A510290401A019040286BDAB6
:10060000C3F3130040F4801B0098924620B10023EE
:10061000D2EB030A63EB0B0B01985946C0F1400281
:100620005046FFF767FF06460D4650465946019A69
:1006300000F092F910EB08006141002487EA1152A2
:1006400084EAE7731A4340D0009A62B3019A012A00
:100650004FEA075215DC001B61EB02014FF000422C
:1006600002EA0752CDE90042001C41F580113246F2
:100670002B4600F02EFB03B0BDE8F08F404621462C
:10068000F9E7001B61EB0201001C41F58013001823
:100690005B412018A2F5001747EB030140EAD57033
:1006A000B6196D4111E06D084FEA360645EAC0758E
:1006B0004FEA0752001B61EB0201001C41F580115B
:1006C00049084FEA30000019514132462B4603B029
:1006D000BDE8F04F00F0EEBA009801224000002380
:1006E000D0EB020263EBE073009821464FEAE0741E
:1006F000B8EB000061EB0401E9E783F000435BE73E
:1007000081F0004158E72DE9FE4F81EA030404F02F
:10071000004421F0004100944FF0000B23F000430F
:1007200050EA01045ED052EA03045BD0C3F30A54DA
:10073000C1F30A552C44A4F2F3340194A0FB0254F3
:10074000C1F3130141F48011C3F3130343F4801385
:1007500001FB024400FB034E840A970A44EA8154D9
:1007600047EA8357A4FB076802958D0A05FB0785B6
:100770004FEA932C04FB0C542705029D4FEA0658C0
:1007800047EA1637B5EB08056EEB070C870E920E9D
:1007900047EA811742EA8312A7FB0201B6EB0B017D
:1007A00064EB00042B0D43EA0C335E1844EB1C5041
:1007B000DA465146E7FB0201C5F313044FEA0B3357
:1007C00043EA14534FEA0432019C43EA0603A4F1BE
:1007D0000C040294009CCDE900B400F07AFA03B056
:1007E000BDE8F08F00200146F9E72DE9F04D81EAE0
:1007F000030404F0004B21F0004514464FF0000ABA
:1008000023F0004150EA050220D054EA01021DD035
:10081000C5F30A570246C5F31303C1F31300C1F32E
:100820000A5640F4801543F48013A7EB0608101B0A
:10083000D64608F2FD3873EB050002D308F1010833
:1008400001E092185B41B8F1000F03DA0020014685
:10085000BDE8F08D00204FF48011064684460EE07E
:10086000171B73EB050705D3121B63EB0503064348
:100870004CEA010C49084FEA300092185B4150EAFB
:100880000107EDD152EA030012D082EA040083EAA4
:100890000501084305D0101BAB4106D201220023FD
:1008A00006E000224FF0004302E06FF00102531017
:1008B0001AEB06004CEB085110EB0A0041EB0B0160
:1008C000BDE8F04D00F0F6B9C1F30A52C1F31301CF
:1008D00040F2FF3341F480119A4202DA00200146CF
:1008E000704740F233439A42A2F2334202DC524252
:1008F000FFF70FBEFFF7FEBD30B5041E71F1000417
:1009000004DB4FF00044404264EB0101141E73F11C
:10091000000405DB1C464FF00043524263EB040326
:10092000994208BF904230BD1CB509480090094863
:1009300001900546009C06E0E06840F0010394E861
:10094000070098471034AC42F6D3FFF777FC00005D
:1009500018A3000838A30008202A06DBCB17203A8A
:1009600041FA02F043EAE07306E041FA02F3D040B4
:10097000C2F120029140084319467047C0B24FF4BB
:10098000F05100F0F5B900002DE9F34F8BB04FF0B6
:10099000000801F10C000C464FF0010B46460DF12A
:1009A000080A01906269012101989047051E2DD027
:1009B000252D2CD0216A8847C0B162690121019898
:1009C0009047216A88470028F7D1411E6269019843
:1009D000904700E0761CA1690B988847216A8847F8
:1009E0000028F7D1E1690B988847DBE7A1690B98EC
:1009F00088470746A84201D1761CD3E7E1690B98E6
:100A000088477F1C02D1B8F1000F6FD046E1002764
:100A100062693D463946019890472A2804D16269A7
:100A20000121019890470125DFF884926269012134
:100A300001989047A0F130010A290AD24F45E5DC20
:100A400007EB870100EB4107303FDFD445F010058D
:100A5000ECE7E90601D46FF000476C280AD04C2877
:100A600014D0682815D06A280DD074281CD07A2894
:100A70001AD01DE062690121019890476C2802D0CC
:100A800045F0040514E045F002050DE045F02005B1
:100A90000AE06269012101989047682802D045F078
:100AA000080505E045F40065626901210198904759
:100AB000C4E9015765283DD019DC58287AD00CDCF0
:100AC000452837D004DC252826D0412831D131E013
:100AD00046282FD047282CD12CE05B2877D06128DE
:100AE00028D063287CD0642823D15AE0D0E06F2836
:100AF00048D008DC66281DD067281BD0692821D083
:100B00006E2816D127E0702845D0732868D0752844
:100B100047D078280DD14DE0A1690B98884705464C
:100B200025283FF469AFE1690B9888476D1C3FF4B5
:100B30006AAFB3E023466A466FF001000B99AFF34A
:100B400000809EE045F040006060A80723464FF01B
:100B5000000236D43EE0E8077FF447AF2068011D6D
:100B600021600068290501D506701BE7290701D51A
:100B7000068017E7A90703D5F117C0E9006111E75F
:100B800006600FE745F040006060A80723464FF07D
:100B9000080216D41EE040F60E0125EA010060604E
:100BA00016E045F040006060A80723464FF00A02B7
:100BB00007D40FE045F040006060A80708D5234641
:100BC00010226FF001000B99AFF3008059E007E0AD
:100BD000234610226FF001000B99FFF7CFFB50E086
:100BE0004FF000094F464B46632802D05B2806D0E1
:100BF00040E0E80601D40120A06001273AE06269E4
:100C00000121019890475E2805D14FF001096269E2
:100C1000494601989047216939B900210A4653464F
:100C200043F82120491C0829FADBB0B3216969B9CE
:100C3000C11700EBD16253110AEB830122F01F02AE
:100C4000821A01200B68904003430B606269012106
:100C5000019890475D28E8D1B9F1000F09D0002034
:100C6000514651F82020D24341F82020401C08284A
:100C7000F7DB02AB224600976FF001000B99AFF350
:100C8000008000280CDA401C08D1BBF1000F05D011
:100C90004FF0FF300DB0BDE8F08FFFE74046F9E7B9
:100CA000E90701D108F1010806444FF0000B79E68D
:100CB000CCCCCC0C10B5141E73F1000408DA401C27
:100CC00041F1000192185B411A4301D120F001006B
:100CD00010BD2DE9F04D92469B4611B1B1FA81F25B
:100CE00002E0B0FA80F220329046FFF703FC04469F
:100CF0000F4640EA0A0041EA0B0153465A460843B0
:100D000013D0114653EA010019D0C8F140025046F1
:100D1000FFF7FFFB05460E46504659464246FFF791
:100D2000E9FB084305D0012004E020463946BDE830
:100D3000F08D0020054346EAE0762C4337430A98BD
:100D40006305E40AA0EB08000022FD0A44EA4754C8
:100D50000A3002D500200146E9E701051019694172
:100D6000DDE9084500196941BDE8F04DA2E7000042
:100D70007F2801D9002208E0064A02EB5002C00792
:100D8000127800D1120902F00F02012090400840B1
:100D9000704700002CA00008FEE700002DE9F0419C
:100DA00086B00446A18800200590CDE9011003908B
:100DB00002212068049101A901F0C2FA2068A188EB
:100DC00001F0E8FB98B341F2040540F210084DF63B
:100DD00083670021CEF20005C2F20008C4F21B377F
:100DE0002868D8F800200E46A2FB0712910C00BF1D
:100DF0002A68121A8A420BD22A68121A8A4207D229
:100E00002A68121A8A4203D22A68121A8A42EFD337
:100E10002068A18801F0BEFB18B1632E06F1010124
:100E2000DED3622E82BF012006B0BDE8F0812068CB
:100E3000A18801F0AFFB00281EBF002006B0BDE86E
:100E4000F08141F2040540F210084DF6836700215D
:100E5000CEF20005C2F20008C4F21B372868D8F8A9
:100E600000200E46A2FB0712910C00BF2A68121A3E
:100E70008A420BD22A68121A8A4207D22A68121AA8
:100E80008A4203D22A68121A8A42EFD32068A188C4
:100E900001F080FB18B9632E06F10101DED30020BA
:100EA000622E88BF012006B0BDE8F0814EF6FC50EE
:100EB000CEF20000016841F08071016041F2000053
:100EC000CEF20000016841F00101016070470000AE
:100ED00070B586B0044640F20040C4F2022000F52E
:100EE000806104910821ADF8141019218DF80F10BC
:100EF0004B21019001208DF80E10ADF8080004A8D8
:100F00000DF10F010DF10E0200F058F980B1012C26
:100F100005D14AF26720C0F6000008F0D3F840F689
:100F20001C30C2F2000044A108F0ACF82CE000BF75
:100F30009DF80F609DF80E5040F61C30C2F2000084
:100F400048A132462B4608F09DF8012C1CD11A2EE0
:100F500006D34A2D04D84AF2A820C0F6000011E0BA
:100F6000182E07D84C2D05D34AF27A20C0F600007F
:100F700008E000BF1A2E28BF4C2D05D34AF28F205F
:100F8000C0F6000008F09EF801A80DF10F010DF168
:100F90000E0200F013F988B1012C05D14AF2FC10C1
:100FA000C0F6000008F08EF840F61C30C2F20000D7
:100FB00037A106B0BDE8704008F064B89DF80F6036
:100FC0009DF80E5040F61C304AF2E521C2F20000B6
:100FD000C0F6000132462B4608F054F8012C1FD110
:100FE0001A2E0BD34A2D09D84AF24320C0F600002E
:100FF00006B0BDE8704008F065B800BF182E0BD8E9
:101000004C2D09D34AF21120C0F6000006B0BDE80D
:10101000704008F057B800BF1A2E28BF4C2D01D2DF
:1010200006B070BD4AF22820C0F6000006B0BDE848
:10103000704008F047B800BF41542B4D51545450F4
:1010400055423D302C22436162696E657454482FCD
:10105000736574222C224572726F72222C302C30F0
:101060000D0A000041542B4D5154545055423D300F
:101070002C22436162696E657454482F7365742233
:101080002C22542564482564222C302C300D0A0073
:1010900041542B4D5154545055423D302C22436FF6
:1010A0006C64436162696E657454482F7365742281
:1010B0002C224572726F72222C302C300D0A0000E7
:1010C0002DE9F04104460068A18841F20405CEF202
:1010D000000501F05FFA40F210084DF68367C2F296
:1010E0000008C4F21B3700B3002600BF2868D8F8F8
:1010F0000010A1FB0712910C2A68121A8A420BD227
:101100002A68121A8A4207D22A68121A8A4203D21D
:101110002A68121A8A42EFD32068A18801F03AFAAD
:1011200018B1632E06F10106E0D32068A18801F012
:1011300031FA00BB002600BF2868D8F80010A1FBD8
:101140000712910C2A68121A8A420BD22A68121AC4
:101150008A4207D22A68121A8A4203D22A68121ACD
:101160008A42EFD32068A18801F014FA18B9632EDF
:1011700006F10106E0D32868D8F80010A1FB071299
:10118000910C01EB8101C9002A68121A8A420BD224
:101190002A68121A8A4207D22A68121A8A4203D28D
:1011A0002A68121A8A42EFD32068A18801F0F2F966
:1011B000002818BF0120BDE8F08100002DE9F04FA4
:1011C00085B0064688460020B18804900120009131
:1011D000CDE9010002213068039141F2040469461F
:1011E0009146CEF2000401F0ABF83068B1880022DD
:1011F00001F0D6F940F21005C2F200052068296816
:101200004DF68367C4F21B37A1FB0712910C44F61D
:10121000206201FB02F100BF2268121A8A420BD23F
:101220002268121A8A4207D22268121A8A4203D20C
:101230002268121A8A42EFD33068B188012201F085
:10124000AFF920682968A1FB0712910C0901A1EBF5
:10125000924149002268121A8A420BD22268121A5D
:101260008A4207D22268121A8A4203D22268121ACC
:101270008A42EFD33046FFF791FD002840F0D68038
:101280003046FFF71DFF07463046FFF719FF4000C5
:1012900040EA87043046FFF713FF04433046FFF768
:1012A0000FFFA10041EA40043046FFF709FF044365
:1012B0003046FFF705FFA10041EA40043046FFF742
:1012C000FFFE04433046FFF7FBFE40EA440A304687
:1012D000FFF7F6FE07463046FFF7F2FE400040EA11
:1012E00087043046FFF7ECFE04433046FFF7E8FE84
:1012F000A10041EA40043046FFF7E2FE04433046D5
:10130000FFF7DEFEA10041EA40043046FFF7D8FEB9
:1013100004433046FFF7D4FE40EA440B3046FFF763
:10132000CFFE07463046FFF7CBFE400040EA870479
:101330003046FFF7C5FE04433046FFF7C1FEA1006B
:1013400041EA40043046FFF7BBFE04433046FFF756
:10135000B7FEA10041EA40043046FFF7B1FE044366
:101360003046FFF7ADFE40EA44043046FFF7A8FEE2
:1013700007463046FFF7A4FE400040EA87053046A6
:10138000FFF79EFE05433046FFF79AFEA90041EAAB
:1013900040053046FFF794FE05433046FFF790FEC8
:1013A000A90041EA40053046FFF78AFE0543304672
:1013B000FFF786FE40EA45053046FFF781FE074607
:1013C0003046FFF77DFE400040EA87073046FFF7D2
:1013D00077FE07433046FFF773FEB90041EA400746
:1013E0003046FFF76DFE07433046FFF769FEB90050
:1013F00041EA40073046FFF763FE07433046FFF7F8
:101400005FFE5FFA8BF151FA8AF140EA470051FA28
:1014100084F1C0B251FA85F1814207D189F800A068
:1014200088F80040002005B0BDE8F08F012005B02D
:10143000BDE8F08F70470000EFF3108072B600BF78
:10144000FEE70000B0B542F220050446C4F20205F2
:1014500001F0ACF8296811F4403F0DD0611C27D091
:10146000044400BF01F0A2F8A04224BF0320B0BD95
:10147000286810F4403FF5D1286842F2FA01014093
:101480001CD040F21400C2F2000042680A434260DD
:1014900001202960B0BD00BF286810F4403FEBD0A8
:1014A000286810F4403FE7D0286810F4403FE3D0AC
:1014B000286810F4403FEFD1DEE700BF2868C0077E
:1014C0004FF0000008BFB0BD01212960B0BD000091
:1014D00070B586B014460D46064601F07DF800F062
:1014E000B7FE002005900220CDE9010601A805A95C
:1014F000CDE9035400F036FD4FF47A70FFF7A2FFF8
:1015000001F08CF800F0B2FD06B070BD0968016012
:1015100070470000B0B50C46054600F099FE01206A
:101520002946224600F0AEFDBDE8B04000F09EBD69
:1015300040F2AC60C2F2000000F004B940F2247046
:10154000C2F2000000F0FEB840F29C70C2F200004F
:1015500000F0F8B840F61400C2F2000000F0F2B853
:1015600000285BD0436F002B58D080B590F8541002
:10157000D0F800E00129DEF814C004D002294FD1D0
:101580001CF480314CD090F8541001293AD190F8D5
:101590004C1001294FF002013BD0012280F84C2071
:1015A00080F854101973002181651961DEF8141058
:1015B00041F4BA41CEF81410416E29B1DEF814108E
:1015C00041F40071CEF81410006F28B1DEF8140059
:1015D00040F40050CEF8140018680022016ACFF6DB
:1015E0000102490861F3596261F39A624FF6FF7193
:1015F00020EA0101CEF800104FF6FC7108401044BB
:10160000CEF87C00DEF81400002140F00100CEF896
:101610001400BDE880400846704700BF01207047B5
:1016200040218165002180F84C100121BDE88040F7
:1016300008467047B0B5044600F0B8FF002C04BF60
:101640000120B0BD054694F85400022824D120683A
:10165000416941F004014161052084F8540000BF54
:101660002168086980041FD400F0A0FF401B0628F1
:10167000F6D3A06D40F01000A065032084F854005C
:1016800094F8500000064FF0010001D5616F087317
:10169000002184F84C10B0BD2020A065012000215D
:1016A00084F84C10B0BD00BF4869012240F0020030
:1016B0004861042084F854004FF4FE40C86084F868
:1016C000542094F8500000064FF00000E0D5636FFE
:1016D0001A738864002184F84C10B0BD80B190F872
:1016E000541002290AD1042180F85410006842F2F3
:1016F0000402416911434161002070472021816546
:1017000001207047024600284FF0010008BF7047D3
:10171000CB0612D5136840F6FF7223EA020203F5E6
:101720007B63C3F3C41301F0110198401129516880
:1017300014BF21EA000008435060002070470000F9
:10174000806D704710B5044600680C22034600F512
:101750007B6162F30B03C1F3C4111A6822FA01F131
:10176000C90700F0A1800169490544BF41695FEAEA
:1017700041514BD40169090544BF41695FEA0151F8
:101780004CD40169C90444BF41695FEAC1414DD4E9
:101790000169490444BF41695FEA41414ED401698E
:1017A000890544BF41695FEA81514FD401698904C9
:1017B00044BF41695FEA814152D40169C90544BF10
:1017C00041695FEAC15171D4A06D002808BF10BD06
:1017D0002068416941F0020141614069C0074FF052
:1017E000030008BF012084F8540094F8500000065C
:1017F00002D5606F01210173A16E0020002984F8D9
:101800004C0051D02046BDE8104008474FF480619D
:10181000C160A16D41F00101A165ABE74FF400612A
:10182000C160A16D41F00201A165AAE74FF48051AA
:10183000C160A16D41F00401A165A9E74FF48041A9
:10184000C160A16D41F00801A165A8E74FF40071E6
:10185000C160616E0029A9D0204688472068A5E7AD
:101860004FF40051C16094F85410042928D1416903
:1018700021F400514161416941F002014161406937
:10188000C0074FF0030008BF012084F8540094F80B
:101890005000000602D5606F01210173E16E002047
:1018A000002984F84C00ADD110BD00BF94F8501051
:1018B000090611D4816CD1B904F1540115E000BFBF
:1018C000052184F85410216F00293FF476AF20469B
:1018D0008847206871E700BFC16F41B9816C31B999
:1018E000012184F85410616F0C3101220A704FF409
:1018F0004071C160216E0020002984F84C001CBF9B
:101900002046884760E7000070B5044600F04EFEB0
:10191000002C04BF012070BD00210546206884F81A
:101920004C10022184F85410416941F006014161D4
:1019300020684169C9070BD000F038FE401B05281C
:10194000F6D9012003221021A16584F8542070BD2E
:10195000216A426904F1100522F4430211434161F6
:10196000E36926CD1A4340F24F0E1143C5F2020E31
:1019700040F24F6C704541EA0503C5F2020C1DDCD4
:1019800040F24F45C4F20205A84233DC40F24F2535
:10199000C4F20205A84257DC40F24F15C4F202051A
:1019A000A84200F395805025C4F20205A84200F039
:1019B000E980D025C4F20205E2E000BF40F24F45C5
:1019C000C5F20205A8422DDC40F24F25C5F2020502
:1019D000A8424BDC40F24F15C5F20205A84200F3C5
:1019E00083805025C5F20205A84200F0CB80D025A7
:1019F000C4E000BF40F24F65C4F20205A84245DCD6
:101A000040F24F55C4F20205A84277DC40F250453F
:101A1000C4F20205A84200F0B58040F2D045C4F2FD
:101A20000205ADE0604543DC40F24F55C5F20205CA
:101A3000A8426FDC40F25045C5F20205A84200F012
:101A4000A18040F2D04599E040F24F35C4F2020542
:101A5000A84269DC40F25025C4F20205A84200F019
:101A6000918040F2D025C4F2020589E040F24F3562
:101A7000C5F20205A84263DC40F25025C5F202051A
:101A8000A84200F07F8040F2D02577E040F24F7509
:101A9000C4F20205A8425DDC40F25065C4F20205C2
:101AA000A8426FD040F2D065C4F2020568E000BFE2
:101AB00040F24F75C5F20205A84257DC40F250656E
:101AC000C5F20205A8425DD040F2D06556E000BFE5
:101AD00040F25015C4F20205A84253D040F2D0158E
:101AE000C4F202054CE000BF40F25015C5F20205F9
:101AF000A84247D040F2D01540E000BF40F2505518
:101B0000C4F20205A8423DD040F2D055C4F202050D
:101B100036E000BF40F25055C5F20205A84231D070
:101B200040F2D0552AE000BF40F25035C4F2020521
:101B3000A84227D040F2D035C4F2020520E000BF11
:101B400040F25035C5F20205A8421BD040F2D03514
:101B500014E000BF40F25075C4F20205A84211D053
:101B600040F2D075C4F202050AE000BF40F2D07521
:101B7000C5F20205A84205D040F25075C5F2020533
:101B8000A84211D1D4E909514FF07C76E26A06EB04
:101B900001514FF47C7606EB051501F07C7105F4DC
:101BA0007C75114329430B43016C251D01F08021F5
:101BB0001943016426CD236B01F07F011143B5F574
:101BC000007F43EA010323D0B5F5806F40F00E811A
:101BD000704521DC40F24F41C4F20201884237DCFB
:101BE00040F24F21C4F2020188425BDC40F24F1107
:101BF000C4F20201884200F399805021C4F202012C
:101C0000884200F0F180D021C4F20201E6E000BF7A
:101C100043F40073EAE000BF40F24F41C5F2020115
:101C200088422DDC40F24F21C5F2020188424BDC94
:101C300040F24F11C5F20201884200F38380502127
:101C4000C5F20201884200F0CF80D021C4E000BF7D
:101C500040F24F61C4F20201884245DC40F24F512C
:101C6000C4F20201884277DC40F25041C4F2020122
:101C7000884200F0B98040F2D041C4F20201ADE0E8
:101C8000604543DC40F24F51C5F2020188426FDCEF
:101C900040F25041C5F20201884200F0A58040F2B6
:101CA000D04199E040F24F31C4F20201884269DC30
:101CB00040F25021C4F20201884200F0958040F2C7
:101CC000D021C4F2020189E040F24F31C5F2020195
:101CD000884263DC40F25021C5F20201884200F0E4
:101CE000838040F2D02177E040F24F71C4F20201CC
:101CF00088425DDC40F25061C4F20201884273D038
:101D000040F2D061C4F2020168E000BF40F24F71BE
:101D1000C5F20201884257DC40F25061C5F202016F
:101D2000884261D040F2D06156E000BF40F25011CD
:101D3000C4F20201884257D040F2D011C4F202012D
:101D40004CE000BF40F25011C5F2020188424BD076
:101D500040F2D01140E000BF40F25051C4F2020105
:101D6000884241D040F2D051C4F2020136E000BFB7
:101D700040F25051C5F20201884235D040F2D051B4
:101D80002AE000BF40F25031C4F2020188422BD059
:101D900040F2D031C4F2020120E000BF40F25031E5
:101DA000C5F2020188421FD040F2D03114E000BFDA
:101DB00040F25071C4F20201884215D040F2D07155
:101DC000C4F202010AE000BF40F2D071C5F2020184
:101DD000884209D040F25071C5F20201884208BF22
:101DE00043F4806302E000BF43F48063416C43F23C
:101DF0008012C3F6C042114019434164002160457E
:101E0000816411DC40F24F71C4F2020188421BDC94
:101E100040F25061C4F2020188422DD040F2D061FC
:101E2000C4F2020126E000BF40F24F71C5F2020188
:101E3000884215DC40F25061C5F2020188421BD095
:101E400040F2D06114E000BF40F25071C4F20201D0
:101E5000884211D040F2D071C4F202010AE000BF02
:101E600040F2D071C5F20201884205D040F25071B3
:101E7000C5F20201884202D100214165816500213D
:101E8000C167606B012220650020A16584F85420A1
:101E900070BD000000284ED090F84CC0BCF1010F7E
:101EA00004BF022070474FF0010C80F84CC090F83E
:101EB00054C0BCF1010F39D110B54FF0020C80F8BD
:101EC00054C04FF0000CC0F858C0D0F800C0D0F893
:101ED00064E0DCF84840BEF1000FC3EA0403CCF82C
:101EE00048304FF4FE43CCF80C30CCF84C10CCF812
:101EF0005020DCF8141041F4BA41CCF8141005D08D
:101F0000DCF8141041F40071CCF81410006F28B103
:101F1000DCF8140040F40050CCF81400DCF8140095
:101F200040F00100CCF81400002010BD4021816574
:101F3000002180F84C10012070470000B0B5044625
:101F400000F034FB054640F20400C2F200000078C5
:101F5000611C18BF044400BF00F028FB401BA042D6
:101F6000FAD3B0BD2DE9F04F81B040F2140BC2F2AC
:101F7000000B9BF80020012A02BF022001B0BDE83F
:101F8000F08F044601208BF8000000264FF47A7091
:101F90008946CBF80460FFF755FA28B18BF800604A
:101FA00001B0BDE8F08F00BF206848F2040220F0C5
:101FB000004142F228079142C4F20207CBF8080020
:101FC00014D16068C10706D002223968C0F201024C
:101FD000023211433960800703D5386840F4C030BD
:101FE00038604FF47A70FFF72DFA32E04FF0FF308F
:101FF000C9F80000D4E902502844854224D240F2B6
:10200000020A4FF60548C0F2010AEE00CFF6FE784C
:102010006068396860F3CB2181F40060386038680B
:1020200000EA0800304340EA0A0038604FF47A7052
:10203000FFF708FA50B9D4E902010135083608441F
:102040008542E5D3002003E0002002E0C9F80050FB
:10205000002621684FF000423B6862EA0101194006
:1020600039608BF8006001B0BDE8F08F42F22800C3
:10207000C4F20200016841F0004101600068C04301
:10208000C00F70472DE9F04381B040F21408C2F24E
:102090000008144698F80020012A02BF022001B06F
:1020A000BDE8F0838146012088F80000002042F25C
:1020B00020070D46C4F20207C8F8040000F076FAC3
:1020C000396811F4403F09D000F57A7600F06EFAD5
:1020D000B04215D2386810F4403FF7D1386842F268
:1020E000FA01084014D0D8F804100143C8F80410CD
:1020F00038600120002188F8001001B0BDE8F083AD
:102100000320002188F8001001B0BDE8F08300BF73
:10211000386829F00046C0071CBF01203860C8F8A5
:102120000890B868012E19D140F00100B860EFF3B3
:102130001080EFF3108172B62168296061686960D0
:10214000A168A960E168E96080F3108800F02EFAC8
:10215000396811F4403F52D15CE000BF44F2010104
:102160000843B860EFF31080EFF3108172B6216876
:10217000296061686960A168A960E168E960216916
:10218000296161696961A169A961E169E961216AFE
:102190002962616A6962A16AA962E16AE962216BE6
:1021A0002963616B6963A16BA963E16BE963216CCE
:1021B0002964616C6964A16CA964E16CE964216DB6
:1021C0002965616D6965A16DA965E16DE965216E9E
:1021D0002966616E6966A16EA966E16EE966216F86
:1021E0002967616F6967A16FA967E16FE96780F38C
:1021F000108800F0DBF9396811F4403F0AD000F58F
:102200007A7400BF00F0D2F9A0420FD2386810F4FF
:10221000403FF7D1386842F2FA01014008D0D8F8BF
:1022200004000843C8F80400012007E0032006E08A
:102230003868C0074FF0000001D001213960B9684B
:10224000B143B960002188F8001001B0BDE8F08307
:1022500042F20800C4F20200016AB1F1FF3FC4BFBC
:102260000020704740F22311C4F26751016048F624
:10227000AB11CCF6EF510160006AC00F704700004F
:10228000002804BF01207047B0B5044690F8310023
:1022900028B9002084F83000204600F039F80020EA
:1022A00020216060E060208284F83310C4E90500DA
:1022B0002062A08384F8321000F078F92168054686
:1022C0000A6942F48030086120680069C00315D5AE
:1022D00000F06CF9401BB0F5FA7FF5D9606BA021D6
:1022E00040F080006063606B40F01000606301208C
:1022F00084F83110002184F83010B0BD0020202176
:102300006063606384F83110002184F83010B0BD40
:10231000006841F20041C4F20201884218BF7047D0
:1023200081B040F68840C4F20260016841F00401C7
:102330000160006800F004000090009801B0704750
:102340002DE9F04F82B00F68002F00F01F8180460A
:1023500047F67F70C0F22F0000EA98200022002389
:102360004FF0010900260025C4F20262C4464FF076
:10237000000A009013E000BFC8464FF00109002298
:10238000C4F202620F680AF1010A37FA0AF005F195
:10239000020506F1040603F1080300F0F78009FACC
:1023A0000AF417EA0400EDD09045019026D0D1F848
:1023B00004E04EF01002122A5CD16FF0030000EA34
:1023C0005A0206F01C0442440F20D2F820E000FA22
:1023D00004F708692EEA070700F00F00A040384311
:1023E0001062DCF800000322D1F804E0AA40904318
:1023F0000EF00302AA40104345E000BF10684F688A
:10240000A04307F001074AF2980407FA0AF7C0F65A
:102410000004384304EBCA071060D7F804B06FF02B
:10242000030054F83AC000EA5B071C20674400EA46
:102430008B04D7F820E00F2000FA04F20B202EEADC
:10244000020200FA04F422433A62DCF800204FEA68
:102450004B07032000FA07F40220A24300FA07F713
:102460003A43CCF80020D1F804E0BEF1120F10D9A5
:102470003EE000BFDCF800000322AA4090430EF0CB
:102480000302AA401043D346CCF80000BEF1120F5D
:102490002ED809FA0EF010F0061F25D04FEA4B0790
:1024A0000322C146DCF8080002FA07F8CA6820EAED
:1024B0000800BA401043CCF808000124DCF80400FE
:1024C00004FA0BF290434FEA1E1202FA0BF2104389
:1024D000BEF1030FCCF804003FF44EAF6FEA0804DE
:1024E000C8464FF0010908E0BEF1030F3FF447AFC3
:1024F0004FEA4B070320B840C443DCF80C008A685D
:102500002040BA4010435FEACE02CCF80C007FF5C1
:1025100036AF42F2000E2AF00300C4F2026E70449D
:10252000026E03F018070F24BC40A243009C04FA7B
:1025300007F73A430266DEF800B001984A684BEAB2
:102540000007D40258BF2BEA0007CEF80070DEF86F
:1025500004B094024BEA000758BF2BEA0007CEF8FC
:102560000470DEF884B094034BEA000758BF2BEAEE
:102570000007CEF88470DEF88040D20344EA0007FA
:1025800058BF24EA0007CEF88070F8E602B0BDE834
:10259000F08F00000069084018BF0120704700005C
:1025A0001823002A08BF2823C150704740F63C403A
:1025B000C2F200000068704740F20041C4F203011B
:1025C0000A68D2071CBF012070470A6822F0040283
:1025D0001043086000207047B0B540F20045C4F2D7
:1025E00003050220E860286820F001002860FFF75A
:1025F000DDFF2968C90701D10020B0BD044607E00E
:102600002868C0071CBF0320B0BD2868C007F3D0EE
:10261000FFF7CCFF001B0228F2D2F6E740F20041A0
:10262000C4F20301086840F0010200200A6070470C
:1026300040F20401C2F200010878002804BF012022
:10264000087040F63C41C2F200010A68104408607C
:102650007047000080B542F20000C4F20200016839
:1026600041F480710160032000F050FB02F054F847
:1026700040F62041C4F2026109684AF2800201F08A
:102680000F01C0F60002515CC84040F21001C2F2D6
:10269000000108600F2000F009F800281CBF01208D
:1026A00080BD00F0E5FA002080BD000070B540F26A
:1026B0000406C2F200063178002904BF012070BD73
:1026C000044640F21000C2F200004FF47A72006833
:1026D000B2FBF1F1B0FBF1F003F0C6F90F2C4FF0B3
:1026E000010508D838B94FF0FF30214600220025F7
:1026F00000F0E0FA7460284670BD000070470000EA
:10270000704700007047000070470000022180F809
:102710004A104168012903D1D0F800C00CE000BF85
:10272000816AD0F800C0B1F5000F05D1DCF80C10BB
:1027300021F46061CCF80C10DCF8101041F25972F1
:1027400041F00101CCF810104FF08071CCF804106A
:10275000DCF80810CDF2B71241F4C971CCF80810BA
:1027600040F21001C2F200010968A1FB0212910BB4
:102770004FF47A7201FB02F10022C1F10403DCF88C
:102780000010C90113D4DCF80010C9015CBFDCF8EB
:1027900000105FEAC1110AD4002B08BF0322DCF845
:1027A000001023B111F0807103F10403E7D0D1B21E
:1027B000032904BF03207047DCF8101041F0040126
:1027C000CCF81010012180F84A100020704700005A
:1027D000704700007047000070470000704700001D
:1027E00010B5016804460868C0071CBF88685FEA26
:1027F000C07063D10868800544BF88685FEA805074
:1028000068D40868C00444BF88685FEAC0406FD4D9
:102810000868800444BF88685FEA804076D408680E
:10282000800744BF88685FEA807000F17D80086897
:10283000400744BF88685FEA407000F17D80086807
:10284000000744BF88685FEA007000F17D80086877
:10285000000344BF88685FEA003000F17F800868A9
:10286000C00644BF88685FEAC06000F183800868E2
:10287000800644BF88685FEA806000F18380086852
:10288000400644BF88685FEA406000F183800868C2
:10289000000644BF88685FEA006000F18380086832
:1028A000C00546BF88685FEAC05010BD4FF4807213
:1028B00020464A60BDE8104000F0D4B901204860CD
:1028C00084F83800C86AC00774D12046FFF71AFFA1
:1028D00073E000BF4FF400704860022084F83800B5
:1028E000C86AC0036ED42046FFF70CFF6DE000BF3E
:1028F0004FF480504860012084F838002046FFF7EC
:102900006DFF2168002084F8380081E74FF4005003
:102910004860022084F838002046FFF75FFF2168F6
:10292000002084F838007AE7022048602046FFF74C
:10293000E5FE21687BE700BF04204860204600F0E8
:1029400093F921687BE700BF08204860012084F8E4
:1029500038002046FFF7D8FE216878E74FF40020C2
:102960004860022084F838002046FFF7CDFE216839
:1029700075E700BF102048602046FFF7C1FE2168C0
:1029800075E700BF202048602046FFF723FF21683D
:1029900075E700BF402048602046FFF719FF216817
:1029A00075E700BF80204860204600F05FF921688D
:1029B00075E700BF2046FFF70FFF2168002084F86D
:1029C000380017E72046FFF707FF2168002084F84A
:1029D000380016E7002804BF01207047F0B581B029
:1029E000054690F84A0028B9002085F84900284695
:1029F00000F0DAF8022085F84A002868696B02695D
:102A000042F0010202614FF480724260816240F242
:102A10001001C2F20001096841F25972CDF2B712F9
:102A2000A1FB0212910B4FF47A7201FB02F100221A
:102A3000C1F104010B460468E40510D40468E40500
:102A40005CBF04685FEAC45409D4002B08BF0322AA
:102A5000046823B114F4807403F10403EBD0D2B200
:102A6000032A03D1032001B0F0BD00BF1022426051
:102A70002A6A826100220368DB0610D40368DB0641
:102A80005CBF03685FEAC36309D4002908BF03225F
:102A9000036821B113F0100301F10401EBD0D1B2AE
:102AA000032903D1032001B0F0BD00BFC16A89072B
:102AB0005CBFC16A5FEA813170D5C3686968D5F8C7
:102AC00028C0012904D0BCF5000F03D14FF4000C3D
:102AD00023F01E03D5F814E04FF6FF76AC686A6A5F
:102AE00041F23E17B6454FF2FE16CFF6397718BFC2
:102AF0003B40CFF63976334022431A430A4300293C
:102B000042EA0C0342D0012902D0BCF5000F04D1E7
:102B1000D5E90312194341EA02034FF6FF718E45CE
:102B200005D0D5E90612114341EA0E010B4344F2E8
:102B3000FF71C4F200618842C3600FDC49F20041BA
:102B4000C4F20001884205D044F20041C4F20061A1
:102B5000884211D1D5E90B1211430CE044F6000173
:102B6000C4F20061884205D044F60041C4F200611D
:102B7000884201D1E96A4162012085F84B0085F85D
:102B80004C0085F84A00002001B0F0BD2969EA69CF
:102B900011430B43BCF5000FBAD0BEE7016921F029
:102BA0000101016189E7000010B5B4B0044602A834
:102BB000C821FDF795FB206849F20041C4F20001ED
:102BC000884227D044F20041C4F20061884246D1D5
:102BD000002003904FF4007002904FF4806020902A
:102BE00002A801F079F8002818BFFEF725FC40F68E
:102BF000A040C4F202608168002241F4006181605B
:102C000080680E2100F40060019001984320432465
:102C100020E000BF002003904FF4806002904FF44A
:102C20008020219002A801F057F8002818BFFEF775
:102C300003FC40F6A040C4F202600168002241F0AB
:102C4000200101600068002100F02000019001983F
:102C50004420442400F02EF8204600F019F834B047
:102C600010BD000070470000704700007047000072
:102C700081B040F69440C4F20260016841F0040162
:102C80000160006800F004000090009801B07047F7
:102C9000002848BF70471C2200F01F0102EAD00044
:102CA000012202FA01F14EF20012CEF2000281502E
:102CB0007047000010B54EF60C5CCEF2000CDCF84C
:102CC0000030C3F3022E8EF00704042C28BF042426
:102CD000BEF103034FF0FF3E38BF00230EFA04F4A9
:102CE000A14399400EFA03F39A43114300F00F02F7
:102CF00000F160430901043A03F56443624400288B
:102D000048BF02F10C03197010BD00004EF60C51C3
:102D1000CEF200010A684FF6FF031A4060F30A2260
:102D200042F0806040F0FD700860704740F2100192
:102D3000C2F200010A6841F25973CDF2B71340F6AE
:102D40003C01C4F20261A2FB032351F8342C002899
:102D50004FEA93301CD042F00202023041F8342C8A
:102D60000A68920732D4012830D00A6892072FD41B
:102D700002282DD00A6892072CD403282AD00A688A
:102D80009207A0F1040226D404281046E8D122E0DC
:102D900022F00202023041F8342C00BF0A68920788
:102DA00014D5012812D00A68920711D502280FD035
:102DB0000A6892070ED503280CD00A689207A0F182
:102DC000040208D504281046E8D104E0421E02E0BF
:102DD000821E00E0C21E0020002A08BF03207047A8
:102DE00040F60C0CC4F2026CDCF8302002F44032E5
:102DF00082425FD0DCF80020B0F5803F22F4E02270
:102E000042EA000240F2100088BF42F48022CCF86F
:102E10000020C2F20000006841F25972CDF2B712F0
:102E2000A0FB0202900B0346DCF80010B3F1FF3266
:102E300018BF012209041ED4591C1CD0DCF8001054
:102E4000002B1A4618BF0122090414D49BB1DCF8E8
:102E500000105A1E18BF012209040CD4012B0AD0FD
:102E6000DCF800109A1E18BF0122090403D4022BBB
:102E7000A3F10403D8D112B3DCF83010421C0904CA
:102E800016D4AAB1DCF83010090412D488B1DCF8E9
:102E90003010090410D401280ED0DCF83010021FC5
:102EA000090402D402281046E6D1901C10B906E0AD
:102EB000104620B10020704701380028FAD10320C5
:102EC0007047000040F62C00C4F20260016841F037
:102ED000010101607047000040F61000C4F202607A
:102EE000016841F0005101607047000040F63C006D
:102EF000C4F20260006800F44030704740F62800D9
:102F0000C4F20260016841F00101016070470000F5
:102F1000B0B540F6284EC4F2026EDEF80C50DEF872
:102F20000030DEF80010DEF80020DEF8104002F07D
:102F30001002C4F3CC04C1F3032104FB02F203F03A
:102F4000030300EE102A6FF35F25B8EE400A012B51
:102F500001F1010C66D0032B18BF022B62D101EEE8
:102F600010CADEF80C10B8EE411A9FED4D2A6FF32F
:102F70005F2182EE011A02EE101A9FED4A3AB8EE76
:102F8000422A20EE030A30EE020AB7EE002A30EEA3
:102F9000022ADEF8001021EE020AC90371D5DEF81C
:102FA0000C10B7EE002AC1F3462101EE101AB8EE5C
:102FB000411A31EE021A80EE011ABCEEC11A11EE6E
:102FC000102A0260DEF80010890360D5DEF80C10CC
:102FD000B7EE002AC1F3064101EE101AB8EE411A0D
:102FE00031EE021A80EE011ABCEEC11A11EE102A5F
:102FF0004260DEF8001049034FD5DEF80C10B7EE42
:10300000002AC1F3066101EE101AB8EE411A31EE42
:10301000021A80EE010ABCEEC00A10EE101A81609E
:10302000B0BD00BF5EF8201C090203D4DEF8CC104E
:103030000B0401E05EF8203C4AF21812190FC0F6AA
:10304000000202EB810102EE10CA91ED001AB8EE07
:10305000422AB8EE411A9FED133A81EE022A01EEA0
:10306000105A20EE030AB8EE411A30EE010AB7EE0C
:10307000001A30EE011ADEF8001021EE020AC90330
:103080008DD400220260DEF8001089039ED4002255
:103090004260DEF800104903AFD400218160B0BD6A
:1030A0000024744B00000039B0B540F62C4EC4F239
:1030B000026EDEF81050DEF80030DEF80010DEF8A8
:1030C0000020DEF8144002F01002C4F3CC04C1F377
:1030D000032104FB02F203F0030300EE102A6FF356
:1030E0005F25B8EE400A012B01F1010C66D0032BDD
:1030F00018BF022B62D101EE10CADEF81010B8EE34
:10310000411A9FED4D2A6FF35F2182EE011A02EE04
:10311000101A9FED4A3AB8EE422A20EE030A30EE2A
:10312000020AB7EE002A30EE022ADEF8001021EE85
:10313000020AC90371D5DEF81010B7EE002AC1F3F8
:10314000462101EE101AB8EE411A31EE021A80EE55
:10315000011ABCEEC11A11EE102A0260DEF800104E
:10316000890360D5DEF81010B7EE002AC1F30641DE
:1031700001EE101AB8EE411A31EE021A80EE011A71
:10318000BCEEC11A11EE102A4260DEF800104903AD
:103190004FD5DEF81010B7EE002AC1F3066101EE3C
:1031A000101AB8EE411A31EE021A80EE010ABCEE96
:1031B000C00A10EE101A8160B0BD00BF5EF8241C7A
:1031C000090203D4DEF8C8100B0401E05EF8243CC9
:1031D0004AF21812190FC0F6000202EB810102EE4A
:1031E00010CA91ED001AB8EE422AB8EE411A9FEDCE
:1031F000133A81EE022A01EE105A20EE030AB8EECD
:10320000411A30EE010AB7EE001A30EE011ADEF86C
:10321000001021EE020AC9038DD400220260DEF8FC
:10322000001089039ED400224260DEF8001049039A
:10323000AFD400218160B0BD0024744B0000003980
:10324000B0B540F6304EC4F2026EDEF81450DEF82F
:103250000030DEF80010DEF80020DEF8184002F042
:103260001002C4F3CC04C1F3032104FB02F203F007
:10327000030300EE102A6FF35F25B8EE400A012B1E
:1032800001F1010C66D0032B18BF022B62D101EEB5
:1032900010CADEF81410B8EE411A9FED4D2A6FF3F4
:1032A0005F2182EE011A02EE101A9FED4A3AB8EE43
:1032B000422A20EE030A30EE020AB7EE002A30EE70
:1032C000022ADEF8001021EE020AC90371D5DEF8E9
:1032D0001410B7EE002AC1F3462101EE101AB8EE21
:1032E000411A31EE021A80EE011ABCEEC11A11EE3B
:1032F000102A0260DEF80010890360D5DEF8141091
:10330000B7EE002AC1F3064101EE101AB8EE411AD9
:1033100031EE021A80EE011ABCEEC11A11EE102A2B
:103320004260DEF8001049034FD5DEF81410B7EE06
:10333000002AC1F3066101EE101AB8EE411A31EE0F
:10334000021A80EE010ABCEEC00A10EE101A81606B
:10335000B0BD00BF5EF8281C090203D4DEF8C4101B
:103360000B0401E05EF8283C4AF21812190FC0F66F
:10337000000202EB810102EE10CA91ED001AB8EED4
:10338000422AB8EE411A9FED133A81EE022A01EE6D
:10339000105A20EE030AB8EE411A30EE010AB7EED9
:1033A000001A30EE011ADEF8001021EE020AC903FD
:1033B0008DD400220260DEF8001089039ED4002222
:1033C0004260DEF800104903AFD400218160B0BD37
:1033D0000024744B0000003980B584B0024643F6E7
:1033E000FF7300209B1A70EB0103C0F26F80D2F1D3
:1033F0007F0370EB0103C0F2B980013A61F1000173
:10340000D2F13F034FF0000373EB0101C0F0BC8227
:10341000DFE812F040002A02BA02D001BA02BA0272
:10342000BA02EA01BA02BA02BA02BA02BA02BA028D
:10343000BA024402BA02BA02BA02BA02BA02BA0222
:10344000BA02BA02BA02BA02BA02BA02BA02BA029C
:10345000BA020402BA02BA02BA02BA02BA02BA0242
:10346000BA02BA02BA02BA02BA02BA02BA02BA027C
:10347000BA02BA02BA02BA02BA02BA02BA02BA026C
:10348000BA02BA02BA02BA02BA02BA02BA02BA025C
:10349000BA02620240F60840C4F20260D0F8D810C6
:1034A00001F00301012900F01383002900F00A83D1
:1034B00050F8082C022903D112F4806240F0C08336
:1034C000D0F8E800032900F0F7BB00BF4FF6FF7308
:1034D000C0F23F039B1A70EB010377DB4FF6FF73DB
:1034E000C0F201039B1A4FF0000C7CEB010380F249
:1034F00095804FF6FF73C0F20F039B1A7CEB01031C
:10350000C0F2FE8082F400330B4300F0078282F4A5
:103510008022114340F0388240F60840C4F2026035
:10352000D0F8E810D0F8E82001F44071920703D5F4
:10353000B1F5807F00F03A81D0F8E820120103D580
:10354000B1F5007F00F0188250F8080CB1F5407F0B
:1035500000F400324FF0000004BF4AF22010C0F225
:103560000700002A08BF104604B080BD40F2FF33B8
:103570009B1A4FF0000C7CEB010380F2738040F645
:10358000FF739B1A7CEB0103C0F2D88082F4806346
:103590000B4300F0DD8182F40062114340F0F481BE
:1035A00040F60840C4F20260D0F8E01011F4407117
:1035B00000F0AC82D0F8E820B1F5807F40F07D814A
:1035C00012F0006240F0D88177E100BF6FF07E43D7
:1035D0009B1A4FF0000C7CEB010380F273806FF0BC
:1035E00078439B1A7CEB0103C0F2C68082F0007323
:1035F0000B4300F0CB8182F08062114340F0C48124
:1036000040F60840C4F20260D0F8DC10C1F301516A
:10361000DFE811F05E027C02B602C40282F480434D
:103620000B4300F0C18182F400430B4300F0DE81C4
:1036300082F48032114340F0A78140F60841C4F281
:103640000261D1F8DC0000F00702042A00F2A28235
:103650004BF68030DFE812F0DE01C40176019801FC
:10366000DC0200BF82F080030B4300F0D98182F4BA
:1036700080730B4300F0F28182F40072114340F03A
:10368000838140F60840C4F20260D0F8E01011F4E3
:10369000406100F03B82D0F8E820B1F5806F03D1A3
:1036A00012F0006240F0688150F8082CB1F5006F0C
:1036B00003D112F4806240F0C382D0F8E800B1F583
:1036C000406FF9E282F480030B4300F0DB8182F467
:1036D00000030B4300F0EA8182F08072114340F056
:1036E000538140F60840C4F20260D0F8D810C1F30C
:1036F0000141DFE811F0D501ED014B020B0200BFE3
:1037000082F480130B4300F0E98182F4001211432C
:1037100040F03A8140F60840C4F20260D0F8DC1074
:10372000490400F15D81D0F8D810C1F38161DFE870
:1037300011F0E10135022702ED0100BF82F4805350
:103740000B4300F0EB8182F40052114340F01C81E6
:1037500040F60841C4F20261D1F8DC00C0F3421225
:10376000042A00F217824BF68030DFE812F02B02B9
:10377000330139010D01310282F000630B4300F087
:10378000EB8182F08052114340F0FE8040F6084108
:10379000C4F20261D1F8E000D1F8E820920700F409
:1037A000004240F10182002A40F0FE814FF40040C7
:1037B00004B080BD40F60840C4F20260D0F8D810D2
:1037C00001F03001102900F08381002900F06881A8
:1037D00050F8082C202903D112F4806240F0308286
:1037E000D0F8E800302967E240F60840C4F20260F1
:1037F000D0F8D81001F0C001402900F069810029FB
:1038000000F04E8150F8082C802903D112F4806218
:1038100040F01682D0F8E800C0294DE240F6084199
:10382000C4F20261D1F8E00000F00700012800F0C6
:103830004F81002800F0208151F8082C022803D184
:1038400012F4806240F0FC81D1F8E820032802D114
:1038500012F00202AAD151F8082C04284FF00000FF
:1038600000F0D28190E000BF40F60840C4F2026050
:10387000D0F8D81001F00C01042900F029810029AA
:1038800000F00E8150F8082C082903D112F4806250
:1038900040F0D681D0F8E8000C290DE240F608404F
:1038A000C4F20260D0F8D81001F44071B1F5807F05
:1038B00000F00E81002900F0F38050F8082CB1F5DB
:1038C000007F03D112F4806240F0BA81D0F8E800A2
:1038D000B1F5407FF0E100BF40F60841C4F202615B
:1038E000D1F8D80000F44060B0F5806F00F0F080AF
:1038F000002800F0D58051F8082CB0F5006F03D1F6
:1039000012F4806240F09C8151F8082CB0F5406FB1
:103910004FF0000000F0788136E000BF40F608412B
:10392000C4F20261D1F8E000C0F30242042A00F2BE
:1039300031814BF68030DFE812F06D005300050056
:1039400027006B0101A8FFF77BFC029804B080BD43
:1039500040F60840C4F20260D0F8D81011F44021BB
:1039600000F09E80D0F8E820B1F5802F40F0608113
:1039700012F0006200F05C81D0F8E800C0004FF067
:10398000FA0058BF4FF4FA4004B080BD40F608403A
:10399000C4F20260D0F8E010C1F3C101DFE811F019
:1039A0006C009800F600B60040F60841C4F20261CF
:1039B000D1F8DC00C0F30222042A00F2EB804BF6BF
:1039C0008030DFE812F0FF0007000D000500050160
:1039D000DAE700BF01A8FFF733FC019804B080BD0F
:1039E00001A8FFF795FA019804B080BD40F60841A0
:1039F000C4F20261D1F8E000C0F30232052A00F2FD
:103A00003381DFE812F0070065002B01310131013D
:103A10004D0100BF04B0BDE8804000F007BE00BF0C
:103A200040F60841C4F20261D1F8D80000F44050D9
:103A3000B0F5805F4CD098B351F8082CB0F5005F1A
:103A400003D112F4806240F0FB8051F8082CB0F5ED
:103A5000405F4FF0000000F0D78095E740F6084047
:103A6000C4F20260D0F8E010C1F38111DFE811F078
:103A7000040030008E00F00004B0BDE8804000F08B
:103A80002BBE00BF40F60841C4F20261D1F8D80055
:103A900000F44040B0F5804F1AD0002840F0A480D8
:103AA00004B0BDE8804000F0D7BD00BF40F608403C
:103AB000C4F20260D0F8D810C1F30151DFE801F080
:103AC0000208662604B0BDE8804000F0E5BD00BFF6
:103AD00004B0BDE8804000F01FBE00BF40F60840C3
:103AE000C4F20260D0F8D810C1F38161DFE801F0C0
:103AF0000256480E50F8080C46F600418004C0F209
:103B0000DC2101EAE07004B080BD00BF0168090259
:103B100002D4D0F8EC0080E000687FE040F6084175
:103B2000C4F20261D1F8DC0051F8082C00F4006006
:103B3000520502D5002800F0838051F8081C0028A7
:103B40001CBF41F20020C0F27A0001F4806100291C
:103B500008BF084604B080BD40F60840C4F20260C9
:103B6000D0F8D81050F8080C800301F0407001D54F
:103B7000002865D0B0F1007F24D0B0F1807F09D15A
:103B800001A8FFF7C5F9029804B080BD50F8080CF1
:103B900020E000BF002004B080BD00BF01A8FFF7F7
:103BA00083FA029804B080BDD1F8E80000014FF01C
:103BB00000007FF5E9AE002A3FF4E6AED1F8E80058
:103BC000DCE600BF01A8FFF76FFA019804B080BDE2
:103BD00051F8080C42F200414005C0F2F40101EA3C
:103BE000E07004B080BD00BF51F8082CB0F5004F64
:103BF00002D112F4806223D151F8082CB0F5404F65
:103C00004FF000007FF4C0AE12F020023FF4BCAED3
:103C1000086800021AD4D1F8EC000004C0F3036075
:103C20004AF21811C0F6000151F8200004B080BD1E
:103C300050F8082CB1F5002F3AD112F4806237D039
:103C400042F20040C0F2F40004B080BD0868E5E72D
:103C50000168090238D4D0F8EC0026E001A8FFF78B
:103C600023FA039804B080BD00F4E04251F8083C08
:103C700042F20040B2F5405FC0F2F40003D113F409
:103C800000337FF481AE51F8081C11F4806118BF35
:103C90000146B2F5804F18BF0021084604B080BD30
:103CA0000868000214D4D1F8EC000004000FB7E754
:103CB000D0F8E800B1F5402F00F002024FF000000C
:103CC00008BF900304B080BD0068000FA8E700BFE4
:103CD0000868000FA4E700002DE9F04F81B004460A
:103CE000006840F6E04BC107C4F2026B20D18107A7
:103CF00028D4410730D4010738D4C10640D4810606
:103D000048D4410650D4010658D4C10560D44102BC
:103D100068D4810570D4410579D4010500F1828011
:103D200040F628488004C4F2026800F18A80B4E0BA
:103D3000DBF80010226D21F003011143CBF80010D5
:103D40008107D6D5DBF80010626D21F00C0111431C
:103D5000CBF800104107CED5DBF80010A26D21F0A2
:103D600030011143CBF800100107C6D5DBF8001075
:103D7000E26D21F0C0011143CBF80010C106BED5A1
:103D8000DBF80010226E21F440711143CBF80010D3
:103D90008106B6D5DBF80810626E21F007011143E9
:103DA000CBF808104106AED5DBF80010A26E21F466
:103DB00040611143CBF800100106A6D5DBF80010D6
:103DC000E26E21F440511143CBF80010C1059ED59D
:103DD000DBF80810226F21F0C0011143CBF8081066
:103DE000410296D5DBF80010626F21F44041114387
:103DF000CBF8001081058ED5DBF80810A26F21F4F6
:103E000040611143CBF8081041057FF586AFDBF820
:103E10000010E26F21F440211143CBF8001001059E
:103E20007FF57EAFDBF80810D4F8802021F44071D4
:103E30001143CBF8081040F628488004C4F2026809
:103E40002BD5D4F890004FEA701104290CD8DFE884
:103E500001F0030D171D1D0004F1080003F0F4FD2F
:103E60000646D8B908E000BF012617E004F12C008F
:103E700003F064FE064688B9D4F8900006E000BF5F
:103E8000D8F8001041F48031C8F80010DBF80410B5
:103E900021F0E0010843CBF80400002660784006DA
:103EA00002D4374638E000BFD4F894004FEA3020FF
:103EB00004280BD83746DFE800F0030F1B1414006A
:103EC00004F1080003F0C0FD0AE000BF012701254E
:103ED0006078000624D449E004F12C0003F02EFEA3
:103EE00007463D4677B16078000619D43EE000BF32
:103EF000D8F80000374640F48030C8F80000002FA2
:103F00003D46F0D1DBF80400D4F8941020F4E060D2
:103F100008430027CBF8040035466078000625D515
:103F2000D4F8A8004FEA3030052807D802280BD073
:103F30003E468FB1A078C0071CD139E00127012689
:103F4000A078C00716D133E004F1080003F07CFD2F
:103F50000746002F3E46EDD1DBF80800D4F8A81044
:103F600020F4E04008430027CBF808002E46A07854
:103F7000C0071DD0D4F88800042800F2A981DFE82A
:103F800010F00B000500AB010B000B00D8F800008F
:103F900040F48030C8F800003D4657B9DBF8040013
:103FA000D4F8881020F0070008430027CBF804005D
:103FB0003546A07880071FD5D4F88C004FEA3040F2
:103FC000042800F29381DFE810F00B000500950152
:103FD0000B000B00D8F8000040F48030C8F8000057
:103FE000B94657B9DBF80800D4F88C1020F4E0206B
:103FF00008430027CBF80800A946A078400701D461
:104000004D465DE05BF84C0C5FEA407A0BD45BF800
:104010004C0C40F004004BF84C0C5BF84C0C00F0DE
:104020000400009000984FF60045CFF6FF7558F851
:10403000050040F0010048F80500FEF7B7FA064613
:1040400058F80500C00707D1FEF7B0FA801B022818
:10405000F6D9032703252AE03D4647BBDBF81000CD
:1040600010F4407018D0D4F8C010884211D0DBF89A
:104070001000DBF8101020F4407041F48031CBF8D0
:104080001010DBF8101021F48031CBF81010CBF8B1
:104090001000C00740F03881DBF81000D4F8C010E1
:1040A00020F44070084300274D46CBF81000BAF1C9
:1040B000000F05D45BF84C0C20F004004BF84C0CBE
:1040C000A078C0061BD5D4F8A0004FEAB060032842
:1040D00000F2E880DFE800F00702EA0704F10800D8
:1040E00003F0B2FC0746394657B9DBF80000D4F8B4
:1040F000A01020F0406008430027CBF800002946BC
:104100002068020320D5D4F8982032B1B2F5005FC0
:1041100018BFB2F5805F40F0D5803E4667B1C1045C
:1041200015D481021ED4010230D4C10139D48101D9
:1041300042D440014BD471E0DBF80430002723F473
:1041400040531A43CBF804200E46C104E9D5DBF8EE
:104150000410D4F89C2021F400611143CBF8041022
:104160008102E0D5D4F8A410B1F5804F05D1D8F87C
:10417000002042F48032C8F80020DBF8042022F44A
:1041800080421143CBF804100102CED5DBF80010B9
:10419000D4F8B42021F440111143CBF80010C10130
:1041A000C5D5DBF80010D4F8B82021F44031114314
:1041B000CBF800108101BCD5DBF80810D4F8BC2086
:1041C00021F018011143CBF80810400126D5D4F88E
:1041D000B000B0F5401F0FD0B0F5001F05D1D8F8E2
:1041E000000040F40030C8F800003D4667B1E078B8
:1041F000000717D43EE000BF04F1080003F024FCE0
:104200000746002F3D46F2D1DBF80400D4F8B01089
:1042100020F4401008430027CBF804003546E0782E
:10422000000727D5D4F8840058B1B0F1007F11D031
:10423000B0F1807F30D1D8F8000040F40030C8F8E9
:10424000000077B1E078C00618D4384601B0BDE868
:10425000F08F00BF04F1080003F0F6FB0746002FC3
:10426000F0D1DBF80000D4F8841020F0407008434F
:10427000CBF800002F46E078C006E6D5DBF8080052
:10428000D4F8AC1020F400400843CBF808003846BE
:1042900001B0BDE8F08F00BF0127E078C006D4D59B
:1042A000ECE700BF012701212AE700BFD8F8000092
:1042B00040F40030C8F80000002F39467FF420AFEA
:1042C00013E700BF01270126C1047FF52AAF3EE7AF
:1042D000012701256DE600BF04F12C0003F02EFC40
:1042E0000746002F3D467FF464AE57E601274FF0A6
:1042F000010982E604F12C0003F020FC0746002FA0
:10430000B9467FF47AAE6DE6FEF750F9064603270C
:10431000032500BFDBF8100080073FF5BDAEFEF7B8
:1043200045F9801B41F288318842F3D9BFE600008D
:104330002DE9F04F81B0002800F01C8142F2000806
:10434000C4F202080446D8F800000D4600F00F0041
:1043500088420DD2D8F8000020F00F002843C8F89A
:104360000000D8F8000000F00F00A84240F00281E1
:10437000206840F62049C106C4F202690DD5616982
:10438000D9F8042002F07002914206D9D9F804202D
:1043900022F070021143C9F8041001070FD52169FA
:1043A000D9F80020702303EA1212914207D9D9F8F4
:1043B000002022F4E06242EA0111C9F8001041072E
:1043C0000DD5E168D9F8002002F07002914206D9BB
:1043D000D9F8002022F070021143C9F800108107BB
:1043E0000DD5A168D9F8002002F00F02914206D93C
:1043F000D9F8002022F00F021143C9F80010C007BD
:1044000074D1206881070DD5A168D9F8002002F089
:104410000F02914206D2D9F8002022F00F02114378
:10442000C9F80010D8F8001001F00F01A9420DD909
:10443000D8F8001021F00F012943C8F80010D8F86F
:10444000001001F00F01A94240F0948041070DD502
:10445000E168D9F8002002F07002914206D2D9F842
:10446000002022F070021143C9F8001001070FD597
:104470002169D9F80020702303EA1212914207D271
:10448000D9F8002022F4E06242EA0111C9F80010D4
:10449000C0060DD56069D9F8041001F0700188429A
:1044A00006D2D9F8041021F070010843C9F80400BD
:1044B00000F032F9D9F800104AF2800201F00F0141
:1044C000C0F60002525C40F20801C2F20001096825
:1044D00040F2100320FA02F2C2F2000308461A600A
:1044E00001B0BDE8F04FFEF7E1B800BF606840F6EC
:1044F0001C47C4F2026768B3022831D0032835D1C3
:10450000D9F874005FEA407A0BD4D9F8740040F00F
:104510000400C9F87400D9F8740000F00400009099
:104520000098FEF743F84FF6F03BCFF6FF7B57F8C5
:104530000B1049036AD4BAF1000F05D4D9F87400FE
:1045400020F00400C9F8740057F81C0C800111D544
:10455000606813E057F81C0C40070BD500200DE0F5
:1045600057F81C0C800305D5022007E057F81C1CE7
:10457000490503D4012001B0BDE8F08F396821F06E
:10458000030108433860FEF711F861680646032905
:1045900041F2883A25D0022931D069B9386810F043
:1045A0000C0F3FF42EAFFEF701F8801B50454FF083
:1045B0000300F3D9DFE700BF386800F00C000428DF
:1045C0003FF41FAFFDF7F2FF801B50454FF0030093
:1045D000F2D9D0E7FDF7EAFF801B50454FF003000A
:1045E000C9D8386800F00C000C28F3D109E700BFE7
:1045F000FDF7DCFF801B50454FF00300BBD8386847
:1046000000F00C000828F3D1FBE600BF064600BF0F
:1046100057F80B0040043FF58EAFFDF7C7FF801B36
:1046200002284FF00300F3D9A5E7000080B500F0A1
:1046300073F840F62041C4F2026109684AF2800230
:1046400001F00F01C0F60002515CC84040F21001B9
:10465000C2F20001086080BD80B500F05DF840F650
:104660002041C4F202610A684AF2800302F00F029C
:10467000C0F600039A5CD04040F21002C2F2000281
:10468000106009684AF29002C1F30211C0F60002FC
:10469000515CC84080BD000080B500F03DF840F698
:1046A0002041C4F202610A684AF2800302F00F025C
:1046B000C0F600039A5CD04040F21002C2F2000241
:1046C000106009684AF29002C1F30221C0F60002AC
:1046D000515CC84080BD000080B500F01DF840F678
:1046E0002041C4F202610A684AF2800302F00F021C
:1046F000C0F600039A5CD04040F21002C2F2000201
:10470000106049684AF29002C1F30211C0F600023B
:10471000515CC84080BD000040F62841C4F20261EF
:1047200051F80C0C10F00C02086815D00C2A04BFCC
:1047300000F0030001280FD051F80C0C9FED350A52
:1047400000F00C00042842F20040C0F2F4001DD03A
:10475000082A18BF002019E051F8200C000205D4E7
:10476000D1F8CC00C0F3033003E000BF51F8200CB7
:10477000000F4AF21813C0F6000353F82000002A75
:1047800000EE100A18BF0020B8EE400A0C2A18BF2D
:104790007047D1F800C00A680B68C2F303220869A9
:1047A0000132C008DB069FED1C1A00EAE3705FEAE5
:1047B0008C7358BFB0EE401A00EE102A6FF35F30D2
:1047C000B8EE400A9FED153A81EE000A01EE100A9C
:1047D000C868B8EE411A6FF35F2002EE100A21EEAE
:1047E000031AB8EE422AC86831EE021AB7EE002A60
:1047F000C0F3066031EE021A013020EE010A01EE2C
:10480000100AB8EE411A80EE010ABCEEC00A10EEA2
:10481000100A7047000000000024744B00000039AB
:10482000002804BF012070472DE9F04381B040F615
:1048300094490446C4F2026959F8780C59F86C1C82
:10484000227840F6004600F00C07D006C4F202665B
:1048500001F0030820D42078C00700F08680082FDC
:104860007CD00C2F08BFB8F1030F77D06068B0F58B
:10487000803F00F0CF82B0F5A81F00F0C382B0F5F2
:10488000A02F40F0DB82306840F480203060306838
:1048900020F48010BDE200BFF7B10C2F08BFB8F1C3
:1048A000010F19D0E1693068002900F0BD8140F0A6
:1048B00001003060FDF77AFE054600BF3068400712
:1048C00000F1F281FDF772FE401B02284FF0030059
:1048D000F4D900F054BD00BF3068400703D5E0694B
:1048E000002800F0B783656AB06800025ABFD9F8A3
:1048F00060000004B06800F07040854240F26881BA
:10490000002F40F02183D9F80000400700F1008318
:10491000D9F8000040F00400C9F80000D9F8000000
:1049200000F0040000900098FEF7E0FAD9F80010BB
:1049300021F00401C9F8001020F48031B1F5003FE6
:1049400000F0EE820021B1EB157F40F0DB83B0F583
:10495000803F40F07F830321E7E200BF306880039F
:1049600003D56068002800F07583207880072DD576
:10497000042F1BD00C2F08BFB8F1020F16D0E1682E
:104980003068002900F01C8240F480703060FDF730
:104990000DFE0546306840050FD4FDF707FE401BAD
:1049A00002284FF00300F5D900F0E9BC306840055B
:1049B00003D5E068002800F04D8359F8840C216984
:1049C00020F4F81040EA014049F8840C20780007F0
:1049D00054D42078400700F1A9802078800600F1A7
:1049E0000B812078000600F131812078400600F12B
:1049F000A181A56B002D00F0748459F8780C00F0AB
:104A00000C000C2840F04A8259F86C1C59F8600CD4
:104A1000012D00F01F83E26B01F00303934240F08D
:104A20001983226CC1F30323013A934240F01283AD
:104A3000C1F30331626C914240F00C83A26C0146D9
:104A40006FF35F21013A914240F00483E16CC0F3BF
:104A5000462201398A4240F0FD82216DC0F30642B0
:104A600001398A4240F0F682616DC0F30660013977
:104A7000884240F0EF8200F034BC00BFD9F800005B
:104A80005FEA40780BD4D9F8000040F00400C9F880
:104A90000000D9F8000000F00400009000984FF6E4
:104AA0002847CFF6FF77F059C00713D1F05940F0EF
:104AB0000100F051FDF77AFD054600BFF059C0072F
:104AC00008D1FDF773FD401B0228F7D9032001B080
:104AD000BDE8F0836069D9F85C10002800F0CE8052
:104AE000A06901F08052904200F0348301F04062EE
:104AF000B2F1006F00F0AE82490140F12483D9F891
:104B00005C0020F0A050C9F85C00FDF74FFD0546A1
:104B1000D9F85C00000140F11583FDF747FD401B0B
:104B200002284FF00300F3D900F029BCD9F80000A7
:104B30005FEA40780BD4D9F8000040F00400C9F8CF
:104B40000000D9F8000000F00400009000984FF633
:104B50002847CFF6FF77F059C00713D1F05940F03E
:104B60000100F051FDF722FD054600BFF059C007D6
:104B700008D1FDF71BFD401B02284FF00300F5D9BB
:104B800000F0FDBBA068C10740F0A280D9F85C101E
:104B9000002821F00101C9F85C10D9F85C1021F05F
:104BA0000401C9F85C1040F0A180FDF7FFFC054648
:104BB00041F28837D9F85C00800740F19382FDF715
:104BC000F5FC401BB8424FF00300F3D9D7E300BF18
:104BD000B068B5F1404F40F40000B060B06820F01C
:104BE000704040EA0500B060C0F09480F068216A2F
:104BF00020F01F000843E9E1E16A3068002900F075
:104C0000CD8040F480503060FDF7D0FC054600BFF9
:104C1000306880043FF5E5AEFDF7C8FC401B022874
:104C20004FF00300F4D9AAE320F001003060FDF753
:104C3000BDFC0546306840077FF50DAEFDF7B6FCBC
:104C4000401B02284FF00300F4D998E3216B306831
:104C5000002900F0118140F480403060FDF7A6FC8F
:104C6000054600BF306800043FF5BFAEFDF79EFC6F
:104C7000401B02284FF00300F4D980E321F0A0503C
:104C8000C9F85C00FDF792FC054600BFD9F85C004E
:104C9000000140F17582FDF789FC401B02284FF0AE
:104CA0000300F3D96BE300BFB06840F40000B060CC
:104CB000B168606A21F070410143B0F1404FB160CA
:104CC000C0F09080F068216A20F01F00084335E2B0
:104CD000D9F85C10400705D541F00400C9F85C0024
:104CE000D9F85C1041F00100C9F85C00FDF75EFCEA
:104CF000054641F2883700BFD9F85C00800733D4FD
:104D0000FDF754FC401BB842F6D9032001B0BDE8C2
:104D1000F08300BFB5F1FF3F40F33881F168206AAE
:104D2000B5F1804FC0F04E8121F4F84141EA802076
:104D30004CE100BF606B002800F03081B06840F4A7
:104D40000000B060B168D4E9090221F07061B0F1EF
:104D5000404F41EA0201B160C0F08881F068216AE9
:104D600020F01F000843F7E2A168D9F85C000906AB
:104D700000F1BA8020F0800041F28837C9F85C0069
:104D8000D9F85C00000540F1B281FDF70FFC401B33
:104D9000B8424FF00300F3D9F1E200BF20F4805095
:104DA0003060FDF703FC0546306880047FF519AEDE
:104DB000FDF7FCFB401B02284FF00300F4D9DEE2B4
:104DC00020F480703060FDF7F1FB05463068400547
:104DD0007FF5FCADFDF7EAFB401B02284FF0030016
:104DE000F4D9CCE2B0F1FF3F40F37481F268216A5C
:104DF000B0F1804FC0F09E8122F4F84040EA81205B
:104E00009CE100BF306840F480203060306840F49E
:104E100080103060306840F480303060FDF7C6FBB1
:104E2000054600BF306880033FF59FADFDF7BEFB30
:104E3000401B64284FF00300F4D9A0E23168002839
:104E400021F480313160316821F480213160316892
:104E500021F480113160E1D1FDF7A8FB05463068EF
:104E600080037FF582ADFDF7A1FB401B64284FF066
:104E70000300F4D983E200BF20F480403060FDF7E6
:104E800095FB0546306800047FF5AFADFDF78EFB5E
:104E9000401B02284FF00300F4D970E2306820F084
:104EA00080703060FDF782FB022D05460ED100BFF9
:104EB0003068800140F17081FDF778FB401B0228CB
:104EC000F6D9032001B0BDE8F08300BF306880014F
:104ED00040F1FE81FDF76AFB401B0228F6D9032052
:104EE00001B0BDE8F08300BF40F0800041F2883798
:104EF000C9F85C00D9F85C00000500F1F880FDF706
:104F000055FB401BB8424FF00300F3D937E200BF16
:104F1000FDF7ECFF20F48031B1F5003F7FF412ADD6
:104F20000021B5F1805F38BF012142F20000C4F2D8
:104F30000200026822F00F020A440260006800F0DA
:104F40000F00884240F08680B06840F40000B060F6
:104F5000B168606A21F070410143B0F1404FB16027
:104F600006D3F068216A20F01F00084392E000BFDA
:104F7000B0F1FF3F72DDF268216AB0F1804FC0F0FE
:104F8000858022F4F84040EA812083E0F068216ABD
:104F900020F4787040EA411018E000BF306820F03B
:104FA00010003060FDF702FB054600BF3068800648
:104FB0007FF51FADFDF7FAFA401B02284FF0030002
:104FC000F4D9DCE121F4782141EAC030002FF0600F
:104FD00061D1D9F80000400722D4D9F8000040F090
:104FE0000400C9F80000D9F8000000F004000090A7
:104FF0000098FDF77BFFD9F8001021F00401C9F8F3
:10500000001020F48031B1F5003F10D00021B1EB49
:10501000157F40F08380B0F5803F1BD103210BE06A
:10502000FDF764FF20F48031B1F5003FEED100219F
:10503000B5F1805F38BF012142F20000C4F20200E6
:10504000026822F00F020A440260006800F00F00BC
:10505000884220D0012001B0BDE8F083F068216AC9
:1050600020F4787040EA411014E000BFB0F1FF3F37
:1050700040F33C81F268216AB0F1804FC0F0688152
:1050800022F4F84040EA812066E100BF22F4782053
:1050900040EAC130F060FFF73FFB59F8741C4AF258
:1050A000800201F00F01C0F60002515C40F21002D4
:1050B00020FA01F140F20800C2F200000068C2F2DA
:1050C00000021160FDF7F2FA002840F05881FFF766
:1050D000C2BB00BFF068216A20F4787040EA41103A
:1050E0002CE000BFD9F85C00000600F10781B8F1A0
:1050F000000F3FF572ACD9F8000020F00400C9F8A9
:1051000000006AE4B5F1005F40F20E8100287FF4F0
:105110000CAFB5F1405F98BF012106E7B5F1005F24
:1051200040F20C8100287FF487AFB5F1405F98BF53
:10513000012181E722F4782040EAC130F060FFF7D6
:105140008ABB00BFA069D9F85C1021F080510843E8
:10515000C9F85C00D9F85C0040F08060C9F85C00D8
:10516000FDF724FA054600BFD9F85C00000107D41A
:10517000FDF71CFA401B02284FF00300F4D9FEE0B3
:10518000B8F1000F3FF525ACD9F8000020F004007D
:10519000C9F80000FFF71DBCD9F800005FEA407CA9
:1051A0000BD4D9F8001041F00401C9F80010D9F867
:1051B000001001F00401009100994FF60C48CFF661
:1051C000FF7856F808E056F808304FF6037723F4D6
:1051D000802346F8083059F86C3CD4E91102BB43EF
:1051E000D4E90F756FF0FF013B43184301EB052134
:1051F0004FF47E43084349F86C0C59F8600C0021C9
:10520000C8F280010840511EE26C4FF4FE0503EB2A
:105210004222236D6FF35F2105EB0343656D92B26C
:105220004FF0FE4707EB0565084403F4FE03104406
:1052300005F0FE451844284449F8600C59F86C0CF8
:105240004FF6F87120F0100049F86C0C59F85C0C1E
:10525000E26D884340EAC20049F85C0C59F86C0CD6
:1052600040F0100049F86C0C59F86C0CA16D20F05E
:105270000C0008435FEA4E3149F86C0C05D556F82E
:10528000080040F4802046F80800BCF1000F05D467
:10529000D9F8000020F00400C9F8000059F86C0C9F
:1052A00040F4802049F86C0C306840F08070306029
:1052B000FDF77CF904463068800112D4FDF776F9D9
:1052C000001B0228F7D9032001B0BDE8F08300BF1E
:1052D00059F86C0C4FF6FC71CFF6F871084049F89C
:1052E0006C0C002001B0BDE8F08300BFF068216ABB
:1052F00020F4787040EA41102EE000BFD9F85C003D
:1053000041F2883720F08000C9F85C00D9F85C00D1
:1053100000057FF5ECAEFDF749F9401BB8424FF0B0
:105320000300F3D92BE000BFB5F1805F2AD1022141
:10533000B0F5803F08BF0121F7E500BFB5F1805F00
:1053400022D10221B0F5803F08BF012174E600BFE1
:1053500022F4782040EAC130F060306840F010005C
:105360003060FDF723F90546306880063FF541AB14
:10537000FDF71CF9401B02284FF00300F4D901B0DF
:10538000BDE8F0830121D0E5012155E6704700001A
:1053900091E80510CB68104347F61C02C4F2006286
:1053A0001060886943EA0C02104347F62042C4F2B9
:1053B000006250601068D1E9043120F0FF101843FA
:1053C00040EA0141002011607047000041F60000F2
:1053D000C4F2022004210122FDF7E2B870B547F6BD
:1053E0005C05C4F2006555F8086C0446F10705D168
:1053F000B0070AD4012084F82D0070BD0120286078
:105400002046FFF7E3FFB007F4D5022028602046CE
:10541000FFF7BCFF012084F82D0070BD002804BFF9
:105420000120704770B5044690F82D0028B900207F
:1054300084F82C00204600F05FF8022047F60C06A6
:1054400084F82D00C4F20066CA20B0615320B06118
:105450003068400613D4306840F080003060FDF7BB
:10546000A5F8316849060AD4054600BFFDF79EF845
:10547000401BB0F57A7F37D830684006F6D5F06823
:105480004FF6BF71CFF68F310840F060231D2269BF
:105490000BCB43EA01411043A269F568104328434E
:1054A000F06071603068D4E9091220F4F8500843C4
:1054B00010433060204602F0BBFB18B1FF21B16100
:1054C00070BD00BFF068D4E9071220F06040636946
:1054D000104308431843F060FF20B061012084F8B6
:1054E0002D00002070BD00BF032084F82D0031681E
:1054F000FF21B16170BD000010B5B4B0044602A830
:105500000830C021FAF7ECFE206847F60001C4F22B
:105510000061884202D034B010BD00BF002003906B
:105520004FF4802002904FF48070329002A8FEF772
:10553000D3FB002818BFFBF77FFF40F6A840C4F25A
:105540000260816C002241F400418164016841F4F1
:10555000001101600068002100F400100190019822
:105560000220FDF7A7FB0220FDF792FB34B010BD2F
:1055700090F82C30012B4FF0020300F004812DE94C
:10558000F04F81B0012547F6180C80F82C50C4F27A
:10559000006C80F82D305CF80C3C03F44073B3F5DC
:1055A000807F01D100228CE0DCF8005022B16A0635
:1055B0000AD40022CA7009E06A0619D40027002222
:1055C0000092CF7017E000BFCA7892054E780F782E
:1055D00036028D7846EA07470E6A2F443A4391F81F
:1055E000247032434D6942EA07622A4369E000BFF2
:1055F000CA78920500920E784FF0CD08A6F10A09FC
:105600005FFA89F505FB08F24F78D40A04EB8404AD
:105610005FFA86FAA9EB44054FF00109A7F10A04E5
:1056200009EBD22EE2B202FB08F291F802B0BAF115
:10563000090F88BF45EA0E16D50A05EB85055FFA06
:1056400087FE09EBD222A4EB4504BEF1090F88BF07
:1056500044EA0217F2B2ABF10A06F5B2FFB205FB5B
:1056600008F53F0247EA0242EF0A07EB87075FFAB5
:105670008BF4A6EB470709EBD526092C88BF47EA30
:10568000061B91F824705FFA8BF6A7F10A05ECB2BD
:1056900004FB08F402EB060EE60A06EB8606FAB2F5
:1056A000A5EB460509EBD424092A88BF45EA04176F
:1056B0000A6A009D4C692A43224342EA0E0242EAEA
:1056C0000762CA27CCF80C705327CCF80C70CF6A4D
:1056D000DCF80050B7F5807F0ED125F48857CCF860
:1056E00000700127B3F5807FCCF8447012D1D1E966
:1056F00006231A4311E000BF25F40857CCF80070C8
:105700000227B3F5807FCCF8447013D1D1E906238A
:105710001A4312E0CCF828208A69CCF82C204A6879
:105720004FF00063CCF858204FF488526FF00065BA
:105730000EE000BFCCF830208A69CCF834204A68EB
:105740004FF08053CCF85C204FF408526FF0805536
:10575000896ADCF80070012907EA050708BF1F43C2
:10576000CCF80070DCF8001000231143CCF80010D6
:10577000FF21CCF80C10012180F82D1080F82C307E
:1057800001B0BDE8F04F1846704700002DE9F04326
:1057900081B0044690F82C0001284FF0020000F080
:1057A0009080012384F82C3084F82D0032B14878A1
:1057B000CA7800028E7840EA024843E048784FF009
:1057C000CD0CC20642BF00F0EF000A304870CA7824
:1057D0004FF0010EA2F10A03DFB207FB0CF7D5B2BE
:1057E000FE0A06EB8606092DA0F10A05A3EB460387
:1057F0000EEBD72688BF43EA0612EFB207FB0CF781
:105800008E78FB0A03EB83030928A5EB43030EEB19
:10581000D72588BF43EA0510A6F10A03DDB2C0B25E
:1058200005FB0CF7D2B2000240EA0248F80A00EB8E
:105830008000F2B2A3EB40000EEBD723092A88BF09
:1058400040EA031647F60C07C4F20067CA2091F835
:105850000090B8615320B8613868400613D43868A6
:1058600040F080003860FCF7A1FE396849060AD490
:10587000054600BFFCF79AFE401BB0F57A7F17D8AB
:1058800038684006F6D5F0B240EA08004FEA4931E0
:1058900020F0C000084347F8080C204602F0C8F981
:1058A000FF21B96150B9012084F82D00002005E0E6
:1058B000032084F82D003968FF21B961002184F8A4
:1058C0002C1001B0BDE8F0832DE9F04F81B0044603
:1058D00090F82C0001284FF0020000F0C1808846AB
:1058E000012147F60C0584F82C1084F82D00C4F231
:1058F0000065CA20A8615320A861286816464006A2
:1059000013D4286840F080002860FCF74FFE296817
:1059100049060AD4074600BFFCF748FEC01BB0F595
:105920007A7F29D828684006F6D5286800F44070A8
:10593000B0F5807F00F08780E8683EB140060DD466
:105940004FF0000E88F803E00CE000BF40061BD4C7
:105950004FF0000E88F803E01AE000BF98F803004B
:105960004FEA805E98F8012098F80000120298F83B
:10597000021042EA004251E0032084F82D00296819
:10598000FF21A96169E000BF98F803004FEA805E3B
:1059900098F800304FF0CD0CA3F10A06F1B201FBEC
:1059A0000CF298F80170D00A00EB80004FF0010A69
:1059B000A6EB400BA7F10A06F0B200FB0CF05FFA71
:1059C00083F90AEBD22298F80210B9F1090F88BFC7
:1059D0004BEA0213C20A02EB82025FFA87F90AEB72
:1059E000D020A6EB4202B9F1090F88BF42EA0017A6
:1059F000D8B2A1F10A03DEB2FAB206FB0CF712022A
:105A000042EA0042F80A00EB8000CEB2A3EB40006D
:105A10000AEBD723092E88BF40EA0311C8B210430E
:105A200047F67F7140EA0E00C0F27F01084045F85A
:105A30000C0CE86820F48020E860D8E90301EA68EB
:105A400008431043E860204602F0F2F8FF21A96104
:105A500018B9012084F82D000020002184F82C10B2
:105A600001B0BDE8F08F0000411E0020B0EB116FC7
:105A70001CBF012070474EF21002CEF200025160AE
:105A80004EF62351CEF20001F0230B7007219060F7
:105A900011607047704700007047000070470000B9
:105AA00070470000704700007047000090F83C20ED
:105AB000012A4FF0020200F0A68010B580F83D20C8
:105AC000026842F6FF33D2F804E0D2F808C0C5F20B
:105AD00001039A420CDC42F60043C4F201039A42ED
