:020000040800F2
:10000000B82600202902000863280008B12400084F
:10001000612800081F040008D14700080000000004
:10002000000000000000000000000000E1290008BE
:100030002105000800000000DF290008ED29000864
:10004000430200084302000843020008430200087C
:10005000430200084302000843020008430200086C
:10006000430200084302000843020008430200085C
:100070006904000843020008430200084302000824
:10008000430200084302000843020008430200083C
:10009000430200084302000843020008430200082C
:1000A000430200084302000843020008430200081C
:1000B000430200084302000843020008430200080C
:1000C00043020008430200084302000843020008FC
:1000D000430200084302000843020008C52C000840
:1000E00043020008430200084302000843020008DC
:1000F00043020008430200084302000843020008CC
:1001000043020008430200084302000843020008BB
:1001100043020008430200084302000843020008AB
:100120004302000875040008810400084302000827
:10013000430200084302000843020008430200088B
:100140004302000843020008430200086528000833
:10015000430200088D04000899040008D12C00080F
:10016000430200084302000843020008430200085B
:100170004302000843020008430200080000000098
:10018000A52400084302000800F002F800F03CF843
:100190000AA090E8000C82448344AAF10107DA45E2
:1001A00001D100F031F8AFF2090EBAE80F0013F0F8
:1001B000010F18BFFB1A43F00103184794460000D3
:1001C000B4460000103A24BF78C878C1FAD8520764
:1001D00024BF30C830C144BF04680C6070470000C1
:1001E0000023002400250026103A28BF78C1FBD840
:1001F000520728BF30C148BF0B6070471FB504F0DD
:1002000011FB1FBD10B510BD00F0CFF81146FFF770
:10021000F5FF04F0EEFA00F0EDF803B4FFF7F2FF9B
:1002200003BC00F0F5F80000094880470948004782
:10023000FEE7FEE7FEE7FEE7FEE7FEE7FEE7FEE796
:10024000FEE7FEE704480549054A064B70470000F3
:10025000892A000889010008B8200020B82600205B
:10026000B8220020B822002053EA020C00F0698076
:100270002DE9F04B4FF00006002B1FBFB3FA83F5BA
:1002800003FA05F424FA05F65E4012BF1643B2FAEB
:1002900082F502FA05F4C5F120051EBF22FA05FC1D
:1002A00044EA0C04203556EA044C4FEA144418BFC3
:1002B000641C4FF000084FF00009904271EB030CF2
:1002C00039D3002919BFB1FA81F701FA07F6B0FA5C
:1002D00080F700FA07F6C7F120071EBF20FA07FCD7
:1002E00046EA0C062037B6FBF4FCA7EB0507103FE7
:1002F00007F01F0BCBF120060CFA0BFB2CFA06F6CD
:1003000044BFB3460026202FA4BF5E464FF0000B2B
:100310005BEA060C08BF4FF0010B19EB0B09ABFBB6
:10032000027C48EB0608C01B06FB02CC0BFB03CC8F
:1003300071EB0C01C1E70B46024641464846BDE859
:10034000F08B13B54FF000004FF00001AFF30080C9
:10035000BDE81C4070474FF0000200B513469446BC
:100360009646203922BFA0E80C50A0E80C50B1F10D
:100370002001BFF4F7AF090728BFA0E80C5048BF21
:100380000CC05DF804EB890028BF40F8042B08BFBF
:10039000704748BF20F8022B11F0804F18BF00F8BB
:1003A000012B7047704770477047754600F02CF876
:1003B000AE4605006946534620F00700854618B052
:1003C00020B5FFF73FFFBDE820404FF000064FF09B
:1003D00000074FF000084FF0000B21F00701AC467A
:1003E000ACE8C009ACE8C009ACE8C009ACE8C00999
:1003F0008D46704710B50446AFF300802046BDE837
:100400001040FFF70ABF0000004870475820002046
:1004100001491820ABBEFEE7260002007047FEE748
:10042000002070470020704710B50022044905489D
:1004300002F03AFE0449034802F029FE002010BDF4
:1004400054110020780400205409002010B5014602
:10045000034802F01CFE024802F0F2FD002010BD2D
:100460007804002000207047014800F0B3B9000074
:1004700058030020014800F0ADB90000B803002087
:10048000014800F0A7B9000098020020014800F0E0
:10049000A1B9000018040020014800F09BB9000039
:1004A000F802002001681823CAB2103AB2FBF3F236
:1004B000054B6FF30901032A9B5CC36500D9091D35
:1004C00081650846704700002E48000810B50146B7
:1004D00000208B698A6A4FF0C07453B1B3F5005F96
:1004E00015D072B1012A0CD0022A0AD0032A09D1F0
:1004F00004E01AB1012A06D0022A03D1C96AC9014F
:1005000000D5012010BDC96AA142FAD010BD002A51
:10051000F7D0012AF2D0022AF3D0032AF3D010BD7B
:10052000704772B6FEE770B5040003D094F820005F
:1005300010B104E0012070BD204600F081F8206871
:10054000016841F00101016000F08EFB05460526BF
:1005500004E000F089FB401B0A2811D8206840689D
:10056000C007F6D02068016821F00201016000F0A8
:100570007BFB05460BE000F077FB401B0A2806D901
:10058000606A40F40030606284F82060D2E720683E
:1005900040688007EFD4207E0128206801683DD0A4
:1005A00021F080010160607E01282068016838D058
:1005B00021F040010160A07E01282068016833D04D
:1005C00021F020010160E07E0128206801682ED022
:1005D00041F010010160207F01282068016829D0C6
:1005E00021F008010160607F01282068016824D0A3
:1005F00021F004010160D4E902010843D4E90412A6
:10060000114308436168491E08432168C8610020FE
:100610006062012084F82000002070BD41F080015C
:10062000C0E741F04001C5E741F02001CAE721F0F1
:100630001001CFE741F00801D4E741F00401D9E708
:10064000F0B587B0044614216846FFF784FE2E4BB0
:100650002E48DFF8B0E01968D4F800C02B4A032513
:100660000226092710300024491CF4451AD11960CC
:10067000012907D1016841F000710160006800F0B4
:1006800000700590106840F0080010601068CDE917
:10069000005600F00800CDE9047069461C48CDE919
:1006A00002452AE0DFF86CE0F44528D1D0F800C01C
:1006B0004CF0806CC0F800C0D0F800C001290CF0EC
:1006C000806CCDF814C0196007D1016841F0007149
:1006D0000160006800F000700590106840F00200B2
:1006E0001060106802AB00F0020005906020CDE9B8
:1006F000000683E8B0006946074800F0B7F907B084
:10070000F0BD0000006400400000002030380240CE
:10071000000C024000680040000402402DE9F04156
:100720000446876D00F0A0FA064694F835000025CF
:10073000022806D08020606584F834500120BDE88E
:10074000F0812068016821F016010160206841698C
:1007500021F080014161206C08B9A06C20B12068B3
:10076000016821F0080101602068016821F00101A1
:1007700001600CE000F078FA801B052807D92020E2
:100780006065032084F8350084F83450D7E720688A
:100790000068C007EED194F85C103F208840B86034
:1007A000012084F8350084F834500020C7E790F821
:1007B0003510022903D080214165012070470521B1
:1007C00080F835100068016821F001010160002007
:1007D000704700002DE9F84304464FF00009CDF8BA
:1007E000009063484FF41651A56D0068B0FBF1F717
:1007F0002E6894F85C10082000FA01F131420FD005
:1008000021680A6852070BD50A6822F004020A60C0
:1008100094F85C108840A860606D40F0010060654D
:1008200094F85C104FF0010808FA01F0304208D04B
:1008300021684969090604D5A860606D40F002008E
:10084000606594F85C1004208840304208D021682C
:100850000968890704D5A860606D40F004006065F0
:1008600094F85C1010208840304218D02168096844
:10087000090714D5A86020680168490304D50068F9
:10088000000308D5A16C07E00168C90503D401681D
:1008900021F008010160216C09B12046884794F8D5
:1008A0005C1020208840304231D021680968C90698
:1008B0002DD5A86094F8350005282068016806D079
:1008C000490347D5006800031DD4616C1CE021F08A
:1008D000160101602068416921F080014161206CAE
:1008E00008B9A06C20B12068016821F008010160FE
:1008F00094F85C103F208840A86084F8358084F824
:100900003490216D1FE0E16B09B120468847606D8E
:1009100000282BD0606DC00714D0052084F8350066
:100920002068016821F0010101600098401C0090DE
:10093000B84203D820680068C007F6D184F8358033
:1009400084F83490E16C002910D001B02046BDE855
:10095000F04308470168C905D5D4016821F01001AA
:10096000016084F8358084F83490CCE7BDE8F883E2
:10097000740000202DE9F041044600F075F90646A8
:100980005CB1022084F83500002584F834502068DA
:10099000016821F0010101600DE00120BDE8F08156
:1009A00000F062F9801B052805D92020606503202E
:1009B00084F83500F2E720680068C007F0D12268AB
:1009C000116820480140D4E901031843D4E90336F3
:1009D0003343184363691843A3691843E369184311
:1009E000236A18430843616A042903D1D4E90B132D
:1009F00019430843106020684069666A20F00701C7
:100A000030460E43012704280CD1A06A0643E06A51
:100A100040B12046FFF75AFD20B14020606584F8C0
:100A20003570BAE7206846612046FFF73BFD94F831
:100A30005C203F2191408160656584F8357000201D
:100A4000ACE700003F8010F070B5044600F00CF9F0
:100A50000546601C02D004480078044400F004F904
:100A6000401BA042FAD370BD680000202DE9F84F6A
:100A7000DFF8BCA10022012503264FF00F090AF17F
:100A8000040BAAF1040E00BF0B6805FA02F4234020
:100A9000A34270D10F7907F00307012F01D0022F75
:100AA00016D187684FEA420806FA08FC27EA0C07C5
:100AB000D1F80CC00CFA08FC4CEA070CC0F808C0CE
:100AC0004768A7430C79C4F3001494403C43446046
:100AD0000C79E443A4070AD0C4684FEA420C06FA32
:100AE0000CF7BC438F6807FA0CF72743C7600C79F3
:100AF00004F00304022C12D1D40800EB840CDCF8BF
:100B000020405707FF0E09FA07F824EA0804D1F835
:100B1000108008FA07F848EA0408CCF82080046836
:100B20004FEA420C06FA0CF7BC430F7907F00307B3
:100B300007FA0CF7274307604C6814F4403F70D065
:100B40003C4C276847F480472760246822F003075D
:100B500004F480440094384C07EB040CDCF808489B
:100B600097074FEA177809FA08F7BC43334FB842A2
:100B700002D1002724E054E0314FB84201D10127CF
:100B80001EE0304FB84201D1022719E02E4FB84283
:100B900001D1032714E02D4FB84201D104270FE003
:100BA0002B4FB84201D105270AE02A4FB84201D1A4
:100BB000062705E0284FB84201D1072700E00827A3
:100BC00007FA08F72743CCF80878DAF800405746C8
:100BD000D1F804C09C435FEACC2C00D51C433C6098
:100BE000DBF800405F46D1F804C09C435FEA8C2CE0
:100BF00000D51C433C60DEF800407746D1F804C0C5
:100C00009C435FEA8C3C00D51C433C60084F083F86
:100C10003C68D1F804C09C435FEACC3C00D51C433F
:100C20003C60521C102AFFF42FAFBDE8F88F000083
:100C3000083C0140443802400030014000000240BE
:100C40000004024000080240000C02400010024074
:100C50000014024000180240001C02400AB18161E9
:100C600070470904FBE700000148806870470000F6
:100C70006800002002488168027811448160704752
:100C8000680000200B4810B5016841F40071016054
:100C9000016841F480610160016841F48071016084
:100CA000032000F06FF80F2000F006F800F024F8A1
:100CB000002010BD003C024070B50D4D04464FF4BD
:100CC0007A712878B1FBF0F00A490968B1FBF0F0BD
:100CD00001F038F948B9102C07D200222146501EE5
:100CE00000F030F800206C6070BD012070BD000085
:100CF00068000020740000200A4808B5016841F42B
:100D000080410160006800F4804000900548001FA9
:100D1000016841F080510160006800F0805000904F
:100D200008BD000044380240002809DB00F01F0223
:100D3000012191404009800000F1E020C0F800113D
:100D400070470000F0B40E4B1B680C46C3F302233F
:100D5000C3F10705042D00D90425191D072901D267
:100D6000002300E0DB1E012606FA05F1491E2140A2
:100D700099409E40761E16403143F0BC03F029BDD9
:100D80000CED00E0064900F0070208684FF6FF038B
:100D9000184040EA0220034A1043086070470000F0
:100DA0000CED00E00000FA05704700684162002089
:100DB0007047F0B50368586A39B19C6A4FF482767F
:100DC00000EB144400204D1E0AE040EA0240986205
:100DD0000FE006EB8007DF59401C04EB1744C0B25C
:100DE000A842F6D344EA02404FF4807202EB81013C
:100DF00058500020F0BDD0F8E00402F040BC01EBF8
:100E0000C10200EB8202D0F8E004126A02F091BB4A
:100E100001EBC10200EB8202D0F8E004D2F86022BC
:100E200002F0E3BBD0F8E00402F02BBC0A0601F0AC
:100E30000F0101EBC10100EB810101D5143101E08B
:100E400001F51571006803F011BB70B504460B067F
:100E500001F00F0000EBC00104EB81014FF0010233
:100E60004FF0000502D54A75143103E081F8555260
:100E700001F51571087094F89404012808D084F8DD
:100E80009424206803F00CF884F89454002070BD7A
:100E9000022070BD70B5044601F00F002279904227
:100EA00001D9012070BD0B0601F00F0101EBC1015A
:100EB00004EB81014FF001024FF0000502D54A75A5
:100EC000143103E081F8555201F515718D700870E9
:100ED00094F89404012808D084F89424206803F03E
:100EE00051F984F89454002070BD022070BD01F0C7
:100EF0000F0101EBC10100EB8100D0F868027047DF
:100F00002DE9F04104460F0601F00F0000EBC0018F
:100F100004EB81014FF001064FF0000502D54E753C
:100F2000143103E081F8555201F51571C2F30A023C
:100F300008708A600B714A7802B14883022B00D195
:100F40004D7194F89404012809D084F894642068C1
:100F500002F0F4FE284684F89454BDE8F0810220A3
:100F6000FBE710B501F00F0404EBC40100EB8101B5
:100F7000C1E998230023C1F8683281F8553281F81D
:100F80005442837901F51571012B00D1CA61827930
:100F9000006803F04FF9002010BD70B504460D46FF
:100FA00001F00F002179884201D9012070BD290686
:100FB0004FF000064FF0010206D500EBC00104EB34
:100FC00081014A75143107E005EBC50104EB81018D
:100FD00081F8556201F515718A70087094F89404CF
:100FE000012807D084F89424206803F0F7F8280734
:100FF00002D007E0022070BDA17904F29C42206873
:1010000003F094F884F89464002070BD10B501F0EA
:101010000F0404EBC40100EB8101C1E908230023A4
:101020008B6201234B7501F8144F8379012B00D19A
:10103000CA618279006803F0FDF8002010BD00004D
:101040002DE9FC5F05680446284603F0ABFA00284A
:101050007DD1206803F0D2FA002878D0D5F80808AE
:10106000C0F30D20C4F8D404206803F0C7FA800749
:1010700004D52068416901F002014161206803F054
:10108000BDFAC10604F29C40009034D52068816905
:1010900021F0100181612F6A07F00F0000EBC00002
:1010A00004EB8006C7F3434006F51576022802D00C
:1010B000062811D01AE047F6F070074216D0C7F3A1
:1010C0000A1217462846F16803F09CFAF068384483
:1010D000F0607069384408E008222846009903F05F
:1010E00091FA7069C7F30A11084470612068816938
:1010F00041F010018161206803F080FA00034FF095
:10110000080B4FF0000A4FF001097CD5002620683B
:1011100003F053FA074674E0F80770D0F1B2206884
:1011200003F064FA8046C00707D005EB4611C1F80A
:10113000089B3146204601F09BFB5FEA087024D5EE
:1011400005EB4611C1F808BB2068016C00E023E202
:1011500000EB46100191D0F8082BFB4B994205D9C2
:10116000110403D54FF40041C0F8081B204600F0DD
:10117000F6FAF5490198884207D9A079012804D1E7
:1011800020680121009A02F0D1FF5FEAC86004D50F
:1011900005EB46111020C1F8080B5FEA88701DD5D9
:1011A0006869000605D5D5F8040840F48061C5F8E3
:1011B000041806EBC60004EB800090F8571200F507
:1011C0001570012905D180F803A0F1B2204600F086
:1011D000E9F905EB46110220C1F8080B5FEA8860C7
:1011E00004D505EB46102021C0F8081B5FEA8840B3
:1011F00005D505EB46104FF40051C0F8081B7F08D9
:10120000761C002F88D1206803F0F8F940036ED5D2
:10121000206803F0CBF90746002666E0F80762D0A5
:10122000F1B2206803F0D0F98046C00723D006F061
:101230000F01D5F8342809FA01F18A43C5F834289A
:1012400005EB4611C1F80899A07901280FD106EBEA
:10125000C60004EB8000D0E907211144016236B9D1
:10126000606A20B920680121009A02F05FFFF1B2A4
:101270002046FFF7C4FD5FEA087003D505EB461171
:10128000C1F808B95FEAC86004D505EB4611102023
:10129000C1F808095FEA486004D505EB4610402113
:1012A000C0F808195FEA887016D53146284603F061
:1012B0004EF906EBC60004EB8000C17D1430012915
:1012C00005D180F803A0F1B2204600F067F905EBE4
:1012D00046110220C1F808095FEA086003D53146CB
:1012E000204601F02BFB7F08761C002F96D120684A
:1012F00003F084F9002811DAD5F8040820F0010180
:10130000C5F8041894F8CC0401282BD0204600F02E
:101310000BFA2068416901F000414161206803F047
:101320006DF900050BD5D5F80808C00702D0204696
:1013300000F03EFA2068416901F4006141612068D3
:1013400003F05CF9C00467D5D5F8040820F001006B
:10135000C5F804081021206803F0F9F800214FF6C1
:101360007F3220E084F8CCA400212046FFF71CFD4A
:10137000CFE700BF05EB4110C0F80829D0F80039CD
:1013800023F40013C0F80039C0F8082BD0F8003B54
:1013900023F40013C0F8003BD0F8003B43F0006397
:1013A000C0F8003B491C20798842E3D8D5F81C08D6
:1013B00040F00111C5F81C18E07B002828460DD02C
:1013C000D0F8840840F00B01C5F88418D5F844081B
:1013D00040F00B012846C5F844180DE0D0F8140879
:1013E00042F22B010843C5F81408D5F8100840F064
:1013F0000B012846C5F81018D0F8000820F4FE614B
:10140000C5F80018A1792068009A02F08FFE2068C4
:10141000416901F480514161206803F0EFF88004D4
:1014200015D5206802F0CAFC206803F0AEF8E07120
:1014300000F070FA0146E279206803F041F9204695
:1014400000F05CF92068416901F4005141612068B5
:1014500003F0D4F8000707D5204600F069F92068AA
:10146000416901F008014161206803F0C7F80006F6
:1014700016D5A86920F08001A96101260DE000BF02
:1014800006EBC60004EB800090F85702012803D158
:10149000F1B22046FFF7CAFC761C2079B042EFD8A3
:1014A000206803F0ABF8C0021FD501264F4614E0B8
:1014B00005EB4610D0F8000906EBC60104EB8101EC
:1014C0000A7E012A08D1002806DACF75F0B240F072
:1014D00080012046FFF7AAFC761C2079B042E7D8AD
:1014E0002068416901F480114161206803F086F8A9
:1014F000800234D501204A4629E000BF05EB4011A7
:10150000D1F8001B00EBC00304EB830393F858628F
:10151000012E1BD1002919DA94F8D464C1F30041DB
:1015200006F001068E4211D183F85722A96941F0D5
:101530008003AB616969090608D4D5F8040840F452
:101540000070C5F8040805E00A30544F401C2179AA
:101550008142D3D82068416901F4001141612068BB
:1015600003F04CF8400007D52046FFF744FC206804
:10157000416901F080414161206803F03FF8400774
:101580000AD520684568680702D52046FFF74AFC5F
:101590002068416829434160BDE8FC9FD0F8E00421
:1015A00002F0C1B8D0F8E00402F0D1B8F8B50400F8
:1015B00005D094F895042668002510B106E00120B6
:1015C000F8BD84F89454204600F056F8032084F8BF
:1015D0009504B6F1A04F00D1A571206802F0A0FDDE
:1015E000207C8DF8000094E80F0002F0F5FB022645
:1015F000B8BB0021206803F024F890BB002001272D
:101600000DE000BF00EBC00104EB81014F750875D0
:10161000C8850D76CD610D62401CC0B24D62217946
:101620008142EFD8002011E000EBC00104EB810102
:1016300081F8555281F8540281F85852C1F85C5231
:10164000C1F86052401CC0B2C1F864522179814295
:10165000EAD8207C8DF8000094E80F0002F0A2FC8C
:1016600010B184F89564AAE7657484F895742068CD
:1016700002F08AFC0020F8BD10B586B004461421A3
:101680006846FEF768FE2068B0F1A04F2FD11948D8
:101690000021026842F001020260006800F00100CF
:1016A00005904FF4C05000900220CDE901010320C5
:1016B00003900A20049069460F48FFF7D7F90D48B8
:1016C000001D016841F0800101600A481430016882
:1016D00041F4804101600068002200F480400590E0
:1016E00011464320FFF72EFB4320FFF71DFB06B0FA
:1016F00010BD0000303802400000024070B50446C2
:10170000C079012570B1022801D0FEF70AFF2946F1
:10171000D4F8E00402F08AF8D4F8E004BDE87040A0
:1017200002F03EB80025F2E7D0F8E00402F067B816
:10173000D0F8E00402F06DB810B5044690F89404B7
:1017400001280AD0012084F894046174206802F012
:10175000A6FF002084F8940410BD022010BDD0F82C
:10176000E02400F29C41104602F06CB810B504462B
:10177000006894F89414012909D0012184F8941484
:10178000C168490609D5617B012902D005E0022024
:1017900010BD816B41F480318163206802F0B5FE99
:1017A000206802F0E3FB002084F8940410BD0000E0
:1017B00010B50446D0F8E00402F086F82068D0F8AE
:1017C000001E41F00101C0F8001EE07A002804D09C
:1017D0000248016841F00601016010BD10ED00E013
:1017E0002DE9F0470E46050065D0DFF81481D8F8E2
:1017F0000000F7B200F00700B04207D288F800708E
:10180000D8F8000000F00700B04254D128683D4CE1
:10181000810712D5400703D5206840F4E0502060CE
:101820002878000703D5206840F4604020602068D5
:10183000A96820F0F000084320602878C0072DD068
:10184000304968680839012812D0022813D00328CB
:1018500011D00968890700292DDA216821F00301D8
:1018600001432160FFF700FA814641F2883A0EE019
:1018700009688903EFE709688901ECE7FFF7F4F9E4
:10188000A0EB0901514502D90320BDE8F08720688B
:10189000696800F00C00B0EB810FEFD1D8F80010B0
:1018A000404601F00701B14207D90770006800F017
:1018B0000700B04201D00120E7E72878400705D5AE
:1018C0002068E96820F4E050084320602878000789
:1018D00006D52068296920F4604040EAC1002060F4
:1018E00000F03EF82168084AC1F30311515CC8407A
:1018F0000649086006480068FFF7DEF90020C4E7E3
:10190000003C0240083802403648000874000020BD
:101910006C0000200148006870470000740000203F
:101920000448054900680968044AC1F38221515CF2
:10193000C84070477400002008380240464800083C
:101940000448054900680968044AC1F34231515C02
:10195000C84070477400002008380240464800081C
:10196000154810B5006810F00C02144813D0144943
:10197000042A0FD0082A0ED10F4C241F2268236896
:1019800002F03F025B0207D52068C0F38810A0FB7D
:10199000010106E0084610BD2168C1F38811A1FBD2
:1019A00000010023FEF760FC2168C1F30141491CDE
:1019B0004900B0FBF1F010BD083802400024F400EB
:1019C00040787D012DE9F84F04006ED02078DFF8D3
:1019D0004C93C007A9F104054AD009F1040001683D
:1019E000C1F38101012908D00068C0F381000228F9
:1019F0000AD1D9F80000400206D52868800337D5FF
:101A000060680028E1D033E06068B0F5803F10D016
:101A1000B0F5A02F286810D020F480302860286806
:101A200020F4802028606068A8B1FFF71DF9064601
:101A30000DE0286840F48030F4E740F4802028600E
:101A4000F7E700BFFFF710F9801B642873D82868F8
:101A50008003F7D50CE0FFF707F9064605E000BF65
:101A6000FFF702F9801B6428F0D828688003F7D4B8
:101A70002078DFF8AC8280074FF0000A3ED5A748F7
:101A8000001D016811F00C0F08D00068C0F3810040
:101A900002280BD1D9F80000400207D4286880073B
:101AA00016D5E068012800D112E033E1E068B8B152
:101AB0000120C8F80000FFF7D7F8064605E000BF90
:101AC000FFF7D2F8801B0228C0D828688007F7D516
:101AD0002868216920F0F80040EAC10028600DE084
:101AE000C8F800A0FFF7C0F8064604E0FFF7BCF80E
:101AF000801B02281FD828688007F7D420780007A9
:101B000022D5864F87486169703771B10121016024
:101B1000FFF7AAF8064604E0FFF7A6F8801B0228A4
:101B200009D838688007F7D50EE0C0F800A0FFF7A5
:101B30009BF8064605E082E0FFF796F8801B022836
:101B40007DD838688007F7D42078400768D5DFF85B
:101B5000CCB100270BF13C0BDBF80000C0000BD42C
:101B6000DBF8001041F08051CBF80010DBF80000EA
:101B7000012700F0805000906B4E3068C00510D4F3
:101B8000306840F480703060FFF76EF8009005E038
:101B9000FFF76AF80099401A022850D83068C0054B
:101BA000F6D55E4EA0686C3601280FD00528306847
:101BB00010D020F001003060306820F00400306068
:101BC000A068B8B1FFF750F800900FE0306840F01F
:101BD0000100F4E740F004003060F7E7FFF744F855
:101BE0000099411A41F28830814266D830688007F6
:101BF000F4D50EE0FFF738F8009007E0FFF734F86F
:101C00000099411A41F28830814256D830688007E5
:101C1000F4D42FB1DBF8001021F08051CBF8001084
:101C2000A069C8B33D49091D0968C1F381010229B2
:101C30004AD00228504607D0C8F8600000E03CE0D7
:101C4000FFF712F804463BE04746C8F86000FFF78C
:101C50000BF8064605E000BFFFF706F8801B0228D8
:101C60002BD828688001F7D4D4E907010843A16A7A
:101C70002E4A490802EB0141626A41EA8211084397
:101C800094F82C1040EA0161C9F800100120386670
:101C9000FEF7EAFF044606E03EE000BFFEF7E4FF81
:101CA000001B022809D828688001F7D534E000BF5E
:101CB000FEF7DAFF001B022802D90320BDE8F88FE7
:101CC00028688001F4D427E00128F7D0D9F8000073
:101CD000E26900F4800191421CD1226A00F03F01C8
:101CE000914217D147F6C071626A0140B1EB821F81
:101CF00010D1A26A4FF0FF3300F4403103EB5202DF
:101D0000B1EB024F06D194F82C1000F07060B0EBEC
:101D1000016F01D00120D1E70020CFE70438024055
:101D200000004742800E4742007000400000FFFF65
:101D3000704710B5016804464868820601D5102036
:101D400002E042060BD50820A06004206071204606
:101D5000FFF7EEFF21686FF06000486010BDC0071C
:101D6000FCD0086820F00800086020688168E16005
:101D700060790428F2D00120607100202071204693
:101D800000F038F810BD70B5040003D0607900256C
:101D900010B105E0012070BD2571204600F00CF85F
:101DA000022060712068016841F004010160012097
:101DB0006071A560002070BD08B500680B498842BD
:101DC00012D10B48016841F0400101600068002217
:101DD00000F04000009011465020FEF7B3FFBDE830
:101DE00008405020FEF7A0BF08BD000000080650C4
:101DF00034380240704770B5040009D0606A00258D
:101E000040B125616561A56294F8510040B10CE0D4
:101E1000012070BD6068B0F5827FF4D0E561F2E723
:101E200084F85050204600F045F8022084F8510014
:101E30002068016821F040010160A088218900F438
:101E4000827001F404410843A18901F40061084350
:101E5000217C01F002010843217D01F001010843CA
:101E6000218B01F400710843217F01F03801084300
:101E700094F8201001F080010843218D01F40051F5
:101E8000084321680860A069042101EA104094F821
:101E9000241001F010010843216848602068C169DE
:101EA00021F40061C1616565012084F851000020C2
:101EB00070BD0000F0B587B0044614216846FEF7F7
:101EC0004AFA1C492068884232D11B480024016824
:101ED00041F480510160006800F48050059016487C
:101EE0001438016841F002010160016801F002014B
:101EF0000591016841F0010101600068022500F0D0
:101F0000010005901820CDE9000502AA0326052747
:101F100082E8D00069460948FEF7A8FD8020CDE997
:101F2000000502AA694682E8D0000548FEF79EFD3A
:101F300007B0F0BD003001404438024000040240C8
:101F40000000024010B5401EB0F1807F01D3012097
:101F500010BD4FF0E02460610F21601702F039FCE2
:101F60000020A06107202061002010BD704770474D
:101F7000F8B5016804460868CA684B6910F00F0F8D
:101F80004FF0000559D003F0010602F49077374373
:101F900065D0C10705D0D10503D5616C41F00101C1
:101FA0006164410705D5D90703D0616C41F0020196
:101FB0006164810705D5D90703D0616C41F0040144
:101FC0006164010707D502F02001314303D0616C41
:101FD00041F008016164616C00293AD0800604D5A3
:101FE000900602D5204600F085FD20684069616CAE
:101FF000C0F38010090700D460B3204600F053FD01
:1020000020684069400621D52068143050E8001F40
:1020100021F0400140E80012002AF5D1E06BA8B1A0
:1020200072490165E06BFEF7C2FB002811D0E06B3E
:10203000016D01B0BDE8F040084783060FD5930657
:102040000DD52046BDE8F84000F054BD2046FFF70E
:102050008EFFF8BD2046FFF78AFF6564F8BD266B4A
:102060002023012E7ED1C6067CD5D6067AD50868F7
:102070004868009048694FF0020640064DD5E26B73
:10208000106840684FF480770004000C3AD0A18DAE
:10209000814237D9E085D069B8422DD020680C3014
:1020A00050E8001F21F4807140E80012002AF5D1A9
:1020B0002068143050E8001F21F0010140E80012B0
:1020C000002AF5D12068143050E8001F21F04001AB
:1020D00040E80012002AF5D184F8423025632068D8
:1020E0000C3050E8001F21F0100140E80012002AD7
:1020F000F5D1E06BFEF712FB6663A08DE18D401A0F
:1021000081B206E0A18D8142A8D1D069B842A5D1A3
:1021100066632046FFF72AFFF8BDA08DE18D401AC7
:1021200081B2E08D0028F7D00029F5D020680C306E
:1021300050E8002F22F4907240E80027002FF5D1DC
:102140002068143050E8002F22F0010240E80027F8
:10215000002FF5D184F84230256320680C3050E818
:10216000002F00E006E022F0100240E80023002BE0
:10217000F3D1CDE705062BD5150629D594F84100F6
:102180002128C9D1A068B0F5805F01D12069B0B124
:10219000206A411C2162216800784860E08C401E62
:1021A0000004000CE084B7D12068C16821F08001F0
:1021B000C1602068C16841F04001C160F8BD206A7B
:1021C0000088C0F308004860206A801C2062E5E7B0
:1021D0004006F3D55006F1D5CA68204622F04002E9
:1021E000CA6084F8413000F05CF9F8BD992A000813
:1021F00070B5040004D094F84100002510B106E049
:10220000012070BD84F84050204600F023F82420BF
:1022100084F841002068C16821F40051C160204663
:1022200000F0CAFC2068016921F490410161206836
:10223000416921F02A0141612068C16841F40051DF
:10224000C1606564202084F8410084F84200656321
:10225000002070BD2DE9F04F87B004461421684678
:10226000FEF779F88348DFF808821438D4F800C004
:10227000804A022103260723002507154FF0400B53
:102280004FF0006AC44560D1D2F800C04CF0100C89
:10229000C2F800C0126802F010020592026842F013
:1022A00002020260026802F002020592026842F035
:1022B000010202600068884600F00100059080205D
:1022C000CDE900080DF1080C99468CE860026946DA
:1022D0006948FEF7CBFB7810CDE900080DF108083E
:1022E000694688E860026548FEF7C0FB654E6448B1
:1022F0004FF440393060C6E901A5C6E9035775615E
:10230000B561C6E90759D04630467562FEF732FB23
:1023100008B1FEF706F9E663B4635A4E58486036D2
:102320007830C6E903577561B561C6E9075975622A
:1023300086E801093046FEF71DFB08B1FEF7F1F80B
:10234000A663B46307B0BDE8F08FDFF83C814FF4BB
:102350000039C44538D1474A121FD2F800C04CF4A6
:10236000802CC2F800C0126802F480220592026834
:1023700042F0040202600068049300F0040005903B
:102380004FF440608DE8630069464048FEF76EFBFD
:102390003C4E3F48C0363060C6E901A5C6E9035748
:1023A0007561B561C6E9075930467562FEF7E2FA14
:1023B00008B1FEF7B6F8E663002211462720B463A1
:1023C000FEF7C0FC272050E0324B9C45BAD1136881
:1023D00043F020031360126802F0200205920268A5
:1023E00042F040020260006800F0400005904FF4A7
:1023F00084408DE863000820049069462648FEF773
:1024000035FB1F48254E18384FF020683060C6E96C
:102410000185C6E903577561B561C6E907593046BC
:102420007562FEF7A7FA08B1FEF77BF8E663B463BE
:102430001A4E134860366030C6E903577561B561BE
:1024400086E801094FF48030C6E9075030467562CE
:10245000FEF790FA08B1FEF764F8A6630022114671
:102460004720B463FEF76EFC4720FEF75DFC69E78A
:1024700000100140443802400004024000000240C5
:1024800040640240980200200048004000080240DA
:10249000286002400014014000180240B8030020E8
:1024A000704770470148FFF744BC00005801002006
:1024B000FEE70000F0B500230A24302537261F462A
:1024C00011E000BFB4EB107F02D905EB107C01E0F6
:1024D00006EB107C01F813C001EB430C00015B1C00
:1024E0008CF80170DBB29342ECD3F0BD0F4810B50D
:1024F0000D4901600321416000214FF410228160E9
:10250000C0E903124FF400124261017641768176F0
:10251000C17601774177FEF706F8002803D0BDE8C1
:102520001040FDF7FEBF10BD006400400801002010
:102530000F4810B50D4901600321416000214FF49F
:1025400010228160C0E903124FF40012426101764B
:1025500041768176C17601774177FDF7E4FF002867
:1025600003D0BDE81040FDF7DCBF10BD006800409F
:10257000300100201D4808B5016841F48001016068
:10258000016801F480010091016841F400110160CB
:102590000068002200F40010009011460C20FEF7A5
:1025A000D1FB0C20FEF7C0FB002211463920FEF7BC
:1025B000C9FB3920FEF7B8FB002211463A20FEF78E
:1025C000C1FB3A20FEF7B0FB002211464520FEF782
:1025D000B9FB4520FEF7A8FB002211464620FEF776
:1025E000B1FBBDE808404620FEF79EBB30380240F4
:1025F0002DE9F04186B014216846FDF7ACFE37485E
:102600000024016841F002010160016801F002014B
:102610000591016841F040010160016801F040014D
:102620000591016841F001010160016801F00101BB
:102630000591016841F008010160016801F008019D
:102640000591016841F004010160016801F0040195
:102650000591016841F0800101600068204E00F0A2
:1026600080004FF4E0550590002229463046FEF7E1
:10267000F5FA1C4F002210213846FEF7EFFADFF87A
:102680006880002201214046FEF7E8FA0095012506
:10269000CDE90154694630460394FEF7E7F910206E
:1026A0000090CDE90154694638460394FEF7DEF9FF
:1026B000302000904FF48810CDE9010469460B48A2
:1026C000FEF7D4F90095CDE90154694640460394DC
:1026D000FEF7CCF906B0BDE8F081000030380240CA
:1026E000001C0240000002400004024000080240BA
:1026F000074910B5054808600846FFF744FB002865
:1027000003D0BDE81040FDF70CBF10BD0008065017
:1027100058010020104810B50E4901604FF4827135
:102720004160002102228160C0E90312012242615E
:10273000520282613822C0E90721416281620A2186
:10274000C162FFF758FB002803D0BDE81040FDF739
:10275000E8BE10BD00300140680100200C4810B5F3
:102760000A4901604FF4E1314160002181600C228F
:10277000C160C0E904128161C161FFF739FD002821
:1027800003D0BDE81040FDF7CCBE10BD00100140E5
:10279000C00100200D4810B50B4901600C49416093
:1027A00000214FF480628160C0E903120422C0E975
:1027B0000521C161FFF71CFD002803D0BDE81040D2
:1027C000FDF7AFBE10BD0000004800400802002029
:1027D000A08601000C4810B50A4901604FF4E131B0
:1027E0004160002181600C22C160C0E90412816156
:1027F000C161FFF7FDFC002803D0BDE81040FDF7E4
:1028000090BE10BD001401405002002010B50022FF
:102810000F49104800F068FE08B1FDF782FE0E492E
:102820000C4801F07DF808B1FDF77BFE0B49094823
:1028300000F022FC08B1FDF774FE064801F0F4F840
:10284000002803D0BDE81040FDF76BBE10BD0000AE
:102850000400002078040020D00000205400002054
:10286000FEE7FEE70148FEF7EBBB0000741B00200B
:102870002DE9F04103680D4604461E6C03EB45113B
:10288000D1F8080B94F806E04FF400474FF0200C05
:1028900004F29C42BEF1010F09D0DFF898E07645C2
:1028A00039D1020432D500BFC1F8087B3FE0224B8A
:1028B0005FEA007E04D59E4239D90004F4D436E0A4
:1028C0005FEA806E02D5C1F808CB30E010F0280F27
:1028D0002DD19E4201D90004E6D405EBC50004EBDE
:1028E0008000D1F8101BD0F87432C1F31201591ACC
:1028F000C0F8681200F51570ADB903691BB1C26864
:102900001144C1600FE0012120680AE080060AD569
:10291000C1F808CB07E035B9D4F8640218B9002132
:10292000184601F003FCE9B22046FEF771FA0020D8
:10293000BDE8F0810A31544F0A30544F2DE9F84F69
:102940000E4601EBC60100EB810481460568D4E91F
:1029500009101434884202D90120BDE8F88F081A02
:10296000A168814200D20846C01C870805EB4618C2
:102970001BE000BFA0EB010AA068504500D28246D0
:102980000AF10300870899F8060000901FFA8AF3FD
:10299000F2B22846E16801F007FFE16801EB0A00A6
:1029A000E060616901EB0A006061D8F8180980B243
:1029B000B84205D3D4E90401814201D20028D9D11B
:1029C000D4E90401884208D806F00F0101208840AC
:1029D000D5F834188143C5F834180020BDE7704796
:1029E00070470178407841EA00207047FEF742B90D
:1029F00030B593B030216846FDF7ADFC14210CA82A
:102A0000FDF7A9FC1E480025016841F080510160D6
:102A1000006800F0805011901A48016841F480412C
:102A200001600068022400F48040119001200090B1
:102A3000000401908001CDE90640192008904FF470
:102A4000A870CDE9090407200B906846FEF7BAFF8D
:102A500008B172B6FEE70CA90F2081E831004FF4EF
:102A6000A0500F904FF48050109005210CA8FEF755
:102A7000B7FE002801D072B6FEE713B030BD0000EB
:102A800040380240007000400248016841F4700183
:102A90000160704788ED00E010B5806B0021C185B2
:102AA000FFF765FA10BD01680C3151E8002F22F4E0
:102AB000907241E80023002BF5D10168143151E8F0
:102AC000002F22F0010241E80023002BF5D1016B19
:102AD000012909D101680C3151E8002F22F01002C0
:102AE00041E80023002BF5D1202180F8421000217D
:102AF0000163704708B590F84210222901D00220E6
:102B000008BD82684FF480539A4201D1016921B116
:102B1000816A9A421BD04AB10AE00268816A52680F
:102B2000C2F308020A80816A891C08E0026972B156
:102B30000268526802F07F020A70816A491C816251
:102B4000C18D491E0904090CC18503D01BE0026830
:102B50005268F1E70168CA6822F02002CA60016881
:102B6000CA6822F48072CA6001684A6922F00102D0
:102B70004A61202180F8421000214163026B012A42
:102B800003D0FFF78DFC002008BD016301680C3104
:102B900051E8002F22F0100241E80023002BF5D16C
:102BA00001680A68D20602D50A6849680091818DD9
:102BB000FFF7DCF9E7E7000070B50446006801693B
:102BC000E26821F44051114301612169A068E26982
:102BD00008436169114308432168CA6849F20C63DC
:102BE0009A430243CA6020684169A26921F4407196
:102BF0001143416131492068884202D030498842FE
:102C000002D1FEF79DFE01E0FEF78AFEE269002395
:102C1000192164253226B2F5004F626828D0A0FB46
:102C20000101930F9200FDF71FFB0146B0FBF5F089
:102C30006FF01802504301EB800006EB0010B0FB70
:102C4000F5F000F0F002B1FBF5F002EB0012B1FB81
:102C5000F5F06FF01803584301EB800006EB00100D
:102C6000B0FBF5F000F00F0021681044886070BDE3
:102C7000A0FB010192185B41FDF7F6FA0146B0FB9B
:102C8000F5F00201B1FBF5F06FF01803584301EBCA
:102C9000800006EBC000B0FBF5F000F0F80002EB9E
:102CA0004002B1FBF5F0584301EB800006EBC00099
:102CB000B0FBF5F000F00700D6E70000001001407F
:102CC000001401400148FFF753B90000080200203A
:102CD0000148FFF74DB90000500200202DE9F041F6
:102CE0000C46D0F8D412D0F8C82200EB8101D1F8FC
:102CF000C01229B304F00F0606EB860300EB830530
:102D000000276B694BB106EBC60602EB8602D2695F
:102D1000B3FBF2F602FB1632A2B1C1F81472D0F87E
:102D2000D42200EB8200D0F8C40203692BB1D1F8A1
:102D30000802224601F5047198470020BDE8F081A1
:102D40000320FBE700231A4621466F6100F0C9FD0E
:102D5000F3E770B50546D0F8D40205EB8000D0F853
:102D6000C04294B1284600F09BFCC4F80C02D5F890
:102D7000D412D4F8040205EB8101D1F8C412CA6858
:102D800004F503719047002070BD032070BD000062
:102D900070B5234D0446297800F0C2FB2878002640
:102DA00000F00F0000EB800004EB800080F823604F
:102DB0006978204600F0B4FB687800F00F0000EB63
:102DC000800004EB800080F86361A978204600F061
:102DD000A7FBA87800F00F0000EB800004EB800058
:102DE00080F82360C661D4F8D40204EB8000D0F8E8
:102DF000C01299B1D0F8C40240688047D4F8D40218
:102E000004EB8000D0F8C00200F092FFD4F8D402A6
:102E100004EB8000C0F8C062C4F8BC62002070BD42
:102E20007C00002010B5D0F8D41200EB8100D0F85F
:102E3000C04284B1D0F8C41259B194F80002FF28FE
:102E400007D08B6894F8012221469847FF2084F828
:102E50000002002010BD032010BD00000A210180E7
:102E6000004870478000002070B5064682210C485B
:102E700000F0D9FA05460121094800F0D4FA0446C9
:102E80008121074800F0CFFA0DB11021A97140212E
:102E900004B1A18000B1818043203080004870BD22
:102EA0008C00002070B5064682210D4800F0BBFA68
:102EB000054601210A4800F0B6FA04468121084877
:102EC00000F0B1FA0DB11021A9714FF4007104B1F5
:102ED000A18000B1818043203080014870BD000096
:102EE0008C00002070B5064682210C4800F09BFA49
:102EF00005460121094800F096FA04468121074859
:102F000000F091FA0DB11021A971402104B1A18006
:102F100000B1818043203080004870BD8C000020CB
:102F20002DE9F04704464FF40775284600F002FFEC
:102F300006004FF0000865D02946FDF70CFAD4F8DA
:102F4000D4023E4D04EB80004FF01009C0F8C0627F
:102F5000C4F8BC62207C4FF4007A0127E8B3402318
:102F600002222978204600F006FC2878402300F051
:102F70000F0000EB800004EB800080F82370022239
:102F80006978204600F0F7FB6878082300F00F000E
:102F900000EB800004EB8000032280F86371A978C5
:102FA000204601F00F0101EB810104EB8101C1F822
:102FB0001C90A97800F0DFFBA87800F00F0000EB70
:102FC000800004EB800080F82370C6F80482D4F8F7
:102FD000D402474604EB800000E01BE0D0F8C402B6
:102FE00006F50176006880473761776132687AB10B
:102FF000207C00B340236978204600F0C8FB002005
:10300000BDE8F087D4F8D41204EB8101C1F8C08286
:103010000220F5E7534602222978204600F0ABFB58
:103020002878534600F00F0000EB800004EB80008E
:1030300080F82370A3E75346DDE700007C00002002
:1030400010B5D0F8D41200EB8101D1F8C01259B1FB
:10305000027C084C002AD1F8042207D04023617872
:1030600000F095FB002010BD032010BD4FF400734D
:10307000F5E700007C00002039B1D0F8D42200EB45
:103080008200C0F8C4120020704703207047D0F8B7
:10309000D42200EB8200D0F8C00218B1C0F80412AC
:1030A0000020704703207047D0F8D43200EB830033
:1030B000D0F8C00228B1C0F81022C0F808120020D1
:1030C0007047032070472DE9FC410646D0F8D40232
:1030D0000C4606EB80000021D0F8C0728DF800107D
:1030E000ADF804100D4637B1217811F060022FD0F1
:1030F000202A4BD102E00320BDE8FC81E288F2B136
:1031000009060DD5D0F8C40263783946D0F808C056
:103110001846E047E288072A00D9072239462DE001
:10312000607887F80002E088402800D34020C2B2CF
:1031300087F801223946304600F058F82BE0D0F8E5
:10314000C40263780022866821461846B04722E010
:10315000607830B101281ED00A2809D00B2815D17B
:1031600010E096F89C02032810D1022201A905E084
:1031700096F89C02032809D101226946304600F0E6
:1031800051F808E096F89C02032804D02146304606
:1031900000F021F803252846AEE710B5D0F8B82294
:1031A00000245268904700B10324204610BD00203F
:1031B000704700207047134610B50A46002100F002
:1031C000E6FA002010BD134610B50A46002100F0B3
:1031D00088FB002010BD10B50446802100F062FB82
:1031E0002046BDE81040002100F05CBB10B5032371
:1031F000C0F89432C0F85421C0F858211346C0F8E2
:1032000064110A46002100F0C2FA002010BD10B57A
:103210000521C0F8941200231A46194600F0B7FAA7
:10322000002010BD10B50223C0F8943242618261C3
:10323000134641620A46002100F053FB002010BDF6
:1032400010B50421C0F8941200231A46194600F064
:1032500048FB002010BD000010B50A46024903A03B
:1032600000F00FF9004810BD5407002043444320EC
:10327000436F6E666967000012200880004870473F
:103280002400002010B50A46024903A000F0F9F816
:10329000004810BD5407002043444320496E746524
:1032A0007266616365000000042008800048704772
:1032B0002000002010B50A46024903A000F0E1F802
:1032C000004810BD5407002053544D6963726F6568
:1032D0006C656374726F6E696373000010B50A46A3
:1032E000024903A000F0CDF8004810BD54070020AB
:1032F00053544D3332205669727475616C20436F9C
:103300006D506F727400000010B51A2008800A48D2
:103310000168001D0468001D0068081809D0082213
:103320000649FFF7C7F80549042210312046FFF788
:10333000C1F80248801E10BD107AFF1F3A0000201D
:10334000F8B504460020ADF8000048880D46010A93
:1033500008295FD2DFE801F05E0409175E5E3C4594
:10336000D4F8B412207C0A6819E0207C02260028D8
:10337000D4F8B80205D0C16A68468847014646704D
:1033800039E0816AF8E7C0B2062843D2DFE800F0EE
:10339000030A1014181CD4F8B402426805E0694608
:1033A00090471CE0D4F8B402826892B3207CF6E720
:1033B000D4F8B402C268F8E7D4F8B4020269F4E7BA
:1033C000D4F8B4024269F0E7D4F8B4028269ECE7B9
:1033D000207CF0B9D4F8B802416B684688470146B2
:1033E00009E0207CA8B9D4F8B802016B6846884788
:1033F000014607204870EA888AB1BDF8000040B154
:10340000824200D90246ADF800202046FFF70AFFAD
:10341000F8BDFFE729462046FFF7DDFEF8E7204626
:10342000FFF70EFFF4E778B50E46428801780025D5
:1034300004468A4212D9ADF800100AE0694600F04D
:1034400019F84178052904D181780546B14205D0A3
:1034500000256188BDF800209142EFD8284678BD4C
:103460000146002002E0401CC0B2491C0A78002A34
:10347000F9D170470A8803781A440A800178084411
:10348000704770B516460D46002820D00446FFF759
:10349000E7FF022101EB40014FF40070814204D8A4
:1034A0002046FFF7DDFF4000801C30803078287018
:1034B000032068700220002206E02954401CC0B29C
:1034C0002A54401CC0B2641C21780029F5D170BD7B
:1034D00001004FF0000004D0012901D0022901D0E1
:1034E000032070470120704778B10023C0F8B8323C
:1034F000C0F8C432C0F8D03209B1C0F8B41201210A
:1035000080F89C12027000F0CFB80320704710B50D
:10351000D0F8C802FDF7BEFCBDE81040FFF7D8BFE9
:1035200010B5D0F8C802FDF790FCBDE81040FFF7D9
:10353000CFBF70B50446002521B194F89C02032842
:1035400046D050E0D4F8941204F11400022939D185
:10355000818942688A420AD9511A41608289016987
:103560001144016142682046FFF72DFE0FE09142B1
:1035700014D10068884211D3D4F8981288420DD231
:10358000002211462046FFF71EFEC4F89852002381
:103590001A461946204600F0FAF813E094F89C0207
:1035A000032808D1D4F8B802C16821B1C4F8D452B4
:1035B000C168204688478021204600F073F92046E4
:1035C000FFF725FE94F8A00268B184F8A0520AE043
:1035D000D4F8B802426932B1C4F8D45242692046E4
:1035E0009047002800D1002070BD10B5044600228D
:1035F00021B194F89C02032834D03EE0D4F8941210
:1036000004F5AA70032938D1818943688B420ED909
:10361000591A4160828901691144016142688089B7
:10362000824200D802462046FFF7C5FD25E094F807
:10363000AA0210F01F0003D0012802D0022800D0F7
:10364000002294F89C02032808D1D4F8B80201693A
:1036500021B1C4F8D4220169204688472046FFF7EB
:10366000EFFD0AE0D4F8B802836933B1C4F8D4227C
:10367000826920469047002800D1002010BD00201C
:10368000704710B50024012180F89C12D0F8B822B0
:1036900022B152680179904700B10324204610BD41
:1036A000D0F8C802FDF723BC10B5017839BB154925
:1036B0000222C1F8E004C0F8C8124FF0A040086030
:1036C00004200871CA71002088714A728872C87219
:1036D00008738873C8730846FDF768FF08B1FCF7E4
:1036E00020FF80210748FDF760FB402200210548AC
:1036F000FDF75FFB802201210248FDF75AFB002005
:1037000010BD0000741B00200A0601F07F01D0F8F4
:10371000C80201EBC10100EB810001D5807D70473B
:1037200090F85602704710B5D0F8D42200EB820210
:10373000D2F8B82222B190F89C32032B02D004E0D8
:10374000032010BD126A02B19047002010BD10B5D1
:10375000D0F8D42200EB8202D2F8B82222B190F83D
:103760009C32032B02D004E0032010BD526A02B148
:103770009047002010BD10B51C461346D0F8C80273
:103780002246FDF7BDFBBDE81040FFF7A1BE10B516
:10379000D0F8C802FDF7E5FBBDE81040FFF798BE82
:1037A0002DE9F04100260125044680F89C52C4F81A
:1037B00094626660C4F8A46280F8A062D0F8B8028F
:1037C00030B1426822B100212046904700B1032663
:1037D0000022402311462046FFF7CDFF402784F802
:1037E0006351A4F860713B46002280212046FFF718
:1037F000C2FF84F8235027843046BDE8F08190F85A
:103800009C12042903D190F89D1280F89C1200208C
:10381000704710B590F89C12032905D1D0F8B81262
:1038200011B1C96901B18847002010BD01740020A1
:10383000704710B5D0F8C802FDF77EFFBDE8104014
:10384000FFF746BE70B5044600F2AA20054600F018
:1038500051F80120C4F89402B4F8B002C4F89802F8
:1038600094F8AA0210F01F010AD001290ED00229F3
:1038700012D000F080012046BDE8704000F012B880
:1038800029462046BDE8704000F0D0B829462046C1
:10389000BDE8704000F013BA29462046BDE87040EC
:1038A00000F05AB910B5D0F8C802FDF776FBBDE8B4
:1038B0001040FFF70DBE10B5D0F8C802FDF756FF57
:1038C000BDE81040FFF704BE90F89C12042903D015
:1038D00090F89C1280F89D12042180F89C12002020
:1038E000704710B5D0F8C802FDF790FBBDE8104056
:1038F000FFF7EEBD70B5054611F8010B287008788A
:1039000068704C1C2046FFF76CF86880A41C2046A9
:10391000FFF767F8A880A01CFFF763F8E88070BD88
:1039200038B504460020ADF80000A1B1C4F8B812C3
:10393000D4F8D40204EB8000D0F8B802C16A19B1FF
:1039400068468847C4F8D002D4F8D802401CC4F8AE
:10395000D802002038BD032038BD02460020D2F82E
:10396000B832002B02D01B68104618477047000081
:103970002DE9F04188462B4E8978002504463170A8
:10398000012906D941462046FFF725FC0320BDE862
:10399000F08194F89C02022702280CD003281DD045
:1039A00041462046FFF717FC31782046FFF7F5FB2C
:1039B00003252846EBE789B320466160FFF7CDFF7A
:1039C000050004D041462046FFF705FC1DE02046D7
:1039D000FFF736FC032084F89C02EAE7C1B1606877
:1039E00088421BD0C1B22046FFF7D7FB3178204672
:1039F0006160FFF7B2FF050010D041462046FFF797
:103A0000EAFB21792046FFF7C8FB84F89C72D0E7D7
:103A100084F89C7220466160FFF7BFFB2046FFF7E9
:103A20000FFCC6E778000020FFF745BF2DE9F04105
:103A30000A78002512F060020CD0202A01D0402A1A
:103A40007DD1D0F8D42200EB8202D2F8B82292685D
:103A5000904731E04B78002201260A2B6FD2DFE835
:103A600003F041666E586E08056E2D29FFF768FC5D
:103A700067E004468888D8B9C888C8B948888028CB
:103A800016D200F07F0794F89C02032810D084F827
:103A90009E7239462046FFF7CCFE2046FFF7D0FB4A
:103AA0001FB1022084F89C024BE084F89C6248E03D
:103AB000204644E0FFF75CFF054642E0CB88012B3F
:103AC0003DD190F89C32012B04D0022B02D0032B65
:103AD00035D104E08260012200F1080116E00122E4
:103AE000011D13E090F89C22012A03D0022A01D084
:103AF000032A24D1CA88022A21D1C660D0F8A41290
:103B000009B10321C160022200F10C01FFF78AFB19
:103B100017E04A88012A02D0022A03D00FE0C0F839
:103B2000A46216E08988090A80F8A01211E090F8D2
:103B30009C32012B08D0022B06D0032B04D0FFF7B8
:103B40004AFB2846BDE8F08149880129F9D1C0F82F
:103B5000A422FFF775FBF4E72DE9F041054608784C
:103B60000C790E464FF0000810F060000BD02028B2
:103B700001D040286BD121462846FFF718FBFF28CB
:103B800000D0D8B398E07078C8B3012824D00328B7
:103B90005DD195F89C02022802D0032857D10CE091
:103BA000002C54D0802C52D021462846FFF77AFEB4
:103BB00080212846FFF776FE7EE0708840B93CB150
:103BC000802C05D0C88818B921462846FFF76AFE20
:103BD0002846FFF735FB6FE095F89C020228DFD0FE
:103BE000032866D1708888BB600603D0214628462A
:103BF000FFF78DFC2846FFF723FBBCE700E00AE057
:103C0000C5F8D402D5F8B8028268FAB13146284620
:103C10009047804650E095F89C020027022802D089
:103C2000032846D114E00CB1802C42D1200604F0C8
:103C30007F0000EB800005EB800101D5143101E02D
:103C400001F5AA71022201F80E7F2EE034E030E087
:103C5000200604F00F0000EB800005EB80000AD581
:103C600090F8230028B304F07F0000EB800005EB00
:103C7000800614360AE090F86301D0B104F07F00AA
:103C800000EB800005EB800606F5AA764CB1802C8F
:103C900007D021462846FFF737FD10B10120B07349
:103CA00000E0B773022206F10E012846FFF7BAFAC8
:103CB00002E02846FFF78FFA4046BDE8F08170B574
:103CC0000546087800240E4610F0600003D0202836
:103CD00001D0402827D195F89C02012803D0022862
:103CE00001D003281FD1B088C1B201291AD8C1B2AE
:103CF0002846FFF75EFAFF280CD058B9D5F8B8125D
:103D00008A683AB1C5F8D4028A6831462846904795
:103D1000044600E00324F088204307D12846FFF73B
:103D20008FFA03E031462846FFF755FA204670BD6A
:103D300070470000004870475419002070B50A7899
:103D4000012302F00F054E78AB401B4CD0F81C58F5
:103D5000012E17D045EA0343C0F81C3800EB42108F
:103D6000D0F8002B12040BD4D0F8002B0B89097962
:103D7000C3F30A031A4344EA81410A43C0F8002B03
:103D8000002070BD9BB21D43C0F81C5800EB4210D0
:103D9000D0F800391B04F3D4D0F800390D89097923
:103DA000C5F30A0589042B4341EA82510B4323439F
:103DB000C0F80039E4E7000000800010D0F80019D6
:103DC0006FF30A01C0F80019D0F8041841F48071AB
:103DD000C0F804180020704770B50D460446C2F3C1
:103DE000072104981E4601291BD0E06840F04000DE
:103DF000E060204600F032F8C6F307210029A16BED
:103E000026D021F48031A163C5F30741012907D1F0
:103E1000A16841F00601A160A16841F02001A16004
:103E200070BDA16B21F48031A163E1680A4A1140A1
:103E3000E160E16821F44011E160C0B2012803D1E2
:103E4000E06840F48010E060204600F007F8DBE70F
:103E500041F48031D7E70000BFFFBDFF08B5002166
:103E600000914FF07061009A521C00928A4210D863
:103E70000269002AF7DA0A220092521E0092FCD14F
:103E8000026942F001020261009A521C00928A42C9
:103E900001D9032008BD0269D207F5D1002008BD71
:103EA00030B54C780A78012300EB4212012C2CD05B
:103EB000D2F8004B002C0BDAD2F8004B44F000642F
:103EC000C2F8004BD2F8004B44F08044C2F8004BDB
:103ED000D0F83C580C7804F00F0403FA04F425EAF7
:103EE0000444C0F83C48D0F81C48097801F00F01A0
:103EF0008B4024EA0341C0F81C18D2F8000B194982
:103F00000840C2F8000B002030BDD2F80049002C58
:103F10000BDAD2F8004944F00064C2F80049D2F844
:103F2000004944F08044C2F80049D0F83C480D787C
:103F300005F00F0503FA05F5ADB2AC43C0F83C48F7
:103F4000D0F81C48097801F00F018B4099B28C43DE
:103F5000C0F81C48D2F8000903490840C2F800091B
:103F6000D1E700000078F3EF007833ECD0F8001EC2
:103F700021F00301C0F8001ED0F8041821F002015E
:103F8000C0F8041800207047D0F8001E21F003018B
:103F9000C0F8001ED0F8041841F00201C0F804185F
:103FA000002070472DE9F04F00250E4604461746C5
:103FB0002846294604EB8002C2F80411401C0F2851
:103FC000F8D3C3F307405FEA0009204616D0806BA0
:103FD00020F40012A263A06B40F40022A263084602
:103FE00088462146C4F8000EC7F30720012817D0E1
:103FF0000846D1F8001841F0030118E0D0F8040891
:1040000040F00202C4F80428A06B40F40012A2633E
:10401000A06B20F40022A263A06B20F48022DDE7D5
:10402000300E0846D1F8001801D041F00101C0F867
:104030000018102100F08BFA00B10125204600F095
:104040006AFA00B101254046C4F81088C4F8148803
:10405000C4F81C8800214FF0006B4FF0904E4FF6D3
:104060007F3AF2B215E000BF04EB4113D3F800C968
:10407000BCF1000F06DA11B1C3F800E904E0C4F89E
:1040800000B901E0C3F80009C3F81009C3F808A992
:10409000491C8A42E8D8002115E000BF04EB411317
:1040A000D3F800CBBCF1000F06DA11B1C3F800EB76
:1040B00004E0C4F800BB01E0C3F8000BC3F8100B28
:1040C000C3F808AB491C8A42E8D8D4F8101821F488
:1040D0008072C4F81028A0616FF080406061C6F360
:1040E000074018B9A06940F01000A061A0690A4912
:1040F0000843A061C7F3074018B1A06940F0080069
:10410000A061B9F1010F03D1A06904490843A0617E
:104110002846BDE8F08F000000383C8004000040D5
:10412000816821F0010181600020704710B5036CA7
:10413000134CA34203D9D0F8003B002B1EDB002315
:10414000C0F8103BD0F8103B43F40023C0F8103BFC
:10415000D0F8103B43F01803C0F8103BD0F8103BE8
:1041600043F0C043C0F8103B012907D1C0F8142B1D
:10417000D0F8001B41F08021C0F8001B002010BDCA
:104180000A30544F4A780B78012A00EB43100BD0C9
:10419000D0F8002B22F40012C0F8002B0979032973
:1041A00014D0022912D017E0D0F8002922F400120E
:1041B000C0F800290979032901D002290CD1D0F8CF
:1041C000001941F08051C0F8001905E0D0F8001B3B
:1041D00041F08051C0F8001B002070470A784B78EE
:1041E000D1B200EB4110012B12D0D0F8001B0029F6
:1041F00006DB2AB1D0F8001B21F08041C0F8001B7B
:10420000D0F8001B41F40011C0F8001B00207047DB
:10421000D0F80019002906DB2AB1D0F8001921F0E6
:104220008041C0F80019D0F8001941F40011C0F81D
:104230000019EBE7F8B50C784F788B4DE3B26FF0CF
:10424000604600EB4313012F29D0D3F8107B6FF3A6
:104250001207C3F8107BD3F8107B2F40C3F8107BF4
:10426000002C7DD00D69002D7BD08C6825446D1EFF
:10427000B5FBF4F5ADB26C430C62D3F8104B06EA13
:10428000C5452C43C3F8104BD3F8104B0D6AC5F34A
:1042900012052C43C3F8104B012A70D0CBE00F69F4
:1042A000EFB1D3F810796FF31207C3F81079D3F890
:1042B00010792F40C3F810790CB30F698D682F4423
:1042C0007F1EB7FBF5F5D3F81079ADB206EAC54607
:1042D0003743C3F810790E79012E1CD02AE0D3F8A9
:1042E00010692E40C3F81069D3F8105945F4002521
:1042F000C3F81059D3F810596FF3120520E00E6976
:104300008D68AE4200D90D61D0F8105945F40026F1
:10431000C0F810690EE0D3F8106926F0C046C3F863
:104320001069D3F810694FF0C04707EA45752E436E
:10433000C3F81069D3F810590E69C6F31206354355
:10434000C3F81059012A1BD000EB4413D3F80049DD
:1043500044F00444C3F800490C79012C31D001E049
:1043600044E057E00A695AB3D0F83428097801F0DC
:104370000F03012199400A43C0F8342871E056E048
:10438000CA691AB100EB4413C3F814290979012949
:104390000ED1D0F80818C90500EB4411D1F8002956
:1043A00002D442F0005201E042F08052C1F80029EC
:1043B00000EB4410D0F8001941F00441C0F8001996
:1043C0004FE0D0F80848E405D3F8004902D444F09F
:1043D000005401E044F08054C3F8004900920A8A76
:1043E00093B20A78C96800F0DFF93AE00C690CB1C1
:1043F0008C680C618C680C62D0F8105BC4F31204FA
:104400002543C0F8105BD0F8104B44F40024C0F8EA
:10441000104B41E7D3F8104B8D68C5F312052C43C0
:10442000C3F8104BD3F8104B44F4002432E7CA68A9
:104430000AB1C3F8142B097901290CD1D0F8080866
:10444000C005D3F8000B02D440F0005001E040F06A
:104450008050C3F8000BD3F8000B40F00440C3F8C1
:10446000000B0020F8BD0000FFFF07E038B5002278
:10447000009213464D780A7842F2107400EB421213
:10448000012D19D0D2F8005B002D3CDAD2F8005B88
:1044900045F00065C2F8005B0A7800EB4212D2F8E2
:1044A000005B45F08045C2F8005B009A521C009208
:1044B000A24221D9012326E0D2F80059002D22DAA8
:1044C000D2F8005945F00065C2F800590A7800EBAF
:1044D0004212D2F8005945F08045C2F80059009ABE
:1044E000521C0092A242E5D80A7800EB4212D2F8A0
:1044F0000029002AF3DB06E00A7800EB4212D2F82A
:10450000002B002AD1DB184638BD816841F001013B
:1045100081600020704708B500214FF07062009163
:10452000009B5B1C009393420AD80369002BF7DAC7
:104530000091102101610099491C0091914201D91B
:10454000032008BD0169C906F5D4002008BD18B5CF
:1045500000224FF070630092009C641C00949C4207
:104560000CD80469002CF7DA0092202242EA81116B
:1045700001610099491C0091994201D9032018BD9D
:1045800001698906F5D4002018BDD0F8080810F09C
:10459000060004D0022803D0062801D00F2070475F
:1045A00002207047406900F001007047D0F81818E9
:1045B000D0F81C08084080B27047D0F81818D0F81E
:1045C0001C080840000C704710B5D0F81038D0F81F
:1045D000342801F00F0400EB4110E24002F0010228
:1045E000D0F8080943EAC212104010BD00EB411197
:1045F000D1F8081BD0F81408084070474169806959
:104600000840704730B503460846940802F003019D
:10461000002203F5805303E01D6840F8045B521C40
:10462000A242F9D300290BD01C680022D50024FA3D
:1046300005F3491E521C090400F8013B090CF5D191
:1046400030BD70B50446C068002520F0C040E06071
:10465000012901D079B120E0E06840F00050E0602D
:104660000A20FCF7F1F960690A3510F0010F10D14A
:10467000C82DF5D30DE0E06840F08040E0600A20EE
:10468000FCF7E2F960690A3510F0010F01D0C82D7E
:10469000F5D3C82D01D0002070BD012070BDD0F829
:1046A000002822F4FE62C0F80028D0F800284FF459
:1046B000FE6303EA01110A43C0F800280020704796
:1046C000022A3ED1264A274B0A449A4201D20F21A0
:1046D00038E0254A254B0A449A4201D20E2131E0A6
:1046E000234A244B0A449A4201D20D212AE0224A4D
:1046F000224B0A449A4201D20C2123E0204A214B4A
:104700000A449A4201D20B211CE01F4A1F4B0A4463
:104710009A4201D20A2115E01D4A1E4B0A449A42D0
:104720000FD31D4A1D4B0A449A4201D2082109E0C9
:104730001B4A11441B4A914201D2072102E0062183
:1047400000E00921C26822F47052C260C2684FF4CE
:10475000705303EA81210A43C260002070470000C1
:10476000405327FF00350C00401E1BFF40420F0046
:1047700000DC0BFF804F1200808CF9FE20D6130066
:1047800060B6E5FE60E3160000D3CEFE40771B0066
:10479000C05BB3FEC091210000CA91FE20753800B5
:1047A000E05459FEE09C410010B5029C74B9DB1C3A
:1047B0009C0800EB0230002300F5805004E000BFAD
:1047C00051F8042B02605B1CA342F9D3002010BDFA
:1047D000FEE70907090E002804DB00F1E02080F85D
:1047E0000014704700F00F0000F1E02080F8141D65
:1047F0007047FCF747FAFEF7FBF8FDF7F9FEFDF707
:10480000B9FEFDF773FEFDF793FEFDF783FFFDF79D
:10481000A5FFFDF7BFFFFDF7DDFFFDF769FFFDF722
:10482000F5FFFEE74FF04070E1EE100A704700061A
:104830001016000610160000000000000000010223
:104840000304060708090000000001020304000039
:10485000704800080000002008010000C4010008A2
:104860007849000808010020B0250000E001000898
:104870000000000079320008A9320008B5320008B3
:10488000DD3200080933000859320008853200087B
:10489000040309041201000202020040830440578D
:1048A00000020102030100001A03000000000000E2
:1048B00000000000000000000000000000000000F8
:1048C0000000000029040008250400082104000855
:1048D0004D040008650400080100000010000000FD
:1048E000000000000024F4000000000081018200AC
:1048F0000A06000200000040010000000902430017
:10490000020100C032090400000102020100052476
:104910000010010524010001042402020524060000
:10492000010705820308001009040100020A0000C3
:104930000007050102400000070581024000000059
:10494000212F0008912D0008C7300008000000004A
:10495000252E0008DD2C0008532D00080000000063
:104960000000000000000000A52E0008692E0008CD
:08497000E52E00085D2E000891
:040000050800018965
:00000001FF
